:100000000C9485030C94AD030C94AD030C94AD03D8
:100010000C94AD030C94AD030C94AD030C94DA1264
:100020000C94AD030C94AD030C94AD030C94AD0390
:100030000C94AD030C94AD030C94AD030C94AD0380
:100040000C9490120C94AD030C9480130C945A13DE
:100050000C94AD030C94AD030C94AD030C94AD0360
:100060000C94B2130C94AD0308000000BE92244916
:10007000123EABAAAA2ABECDCCCC4C3E00000080DA
:10008000BEABAAAAAA3E00000000BF000000803F4D
:100090000000000000084178D3BB4387D1133D190D
:1000A0000E3CC3BD4282AD2B3E68EC8276BED98F3A
:1000B000E1A93E4C80EFFFBE01C4FF7F3F0000007E
:1000C000000000407A10F35A00A0724E1809001088
:1000D000A5D4E80000E87648170000E40B540200BD
:1000E00000CA9A3B000000E1F505000080969800E8
:1000F000000040420F000000A08601000000102711
:1001000000000000E80300000000640000000000A0
:100110000A00000000000100000000002C76D888D2
:10012000DC674F0823DFC1DFAE59E1B1B796E5E3E5
:10013000E453C63AE651997696E8E6C28426EB89FE
:100140008C9B62ED407C6FFCEFBC9C9F40F2BAA59B
:100150006FA5F490055A2AF75C936B6CF9676DC133
:100160001BFCE0E40D47FEF520E6B500D0ED902E37
:100170000300943577050080841E080000204E0A95
:10018000000000C80C333333330F986E12831141D3
:10019000EF8D2114893BE65516CFFEE6DB18D1849E
:1001A0004B381BF77C1D901DA4BBE42420328472C5
:1001B0005E228100C9F124ECA1E53D27000000008A
:1001C000003E5B4F5B3E3E6B4F6B3E1C3E7C3E1CDD
:1001D000183C7E3C181C577D571C1C5E7F5E1C0023
:1001E000183C1800FFE7C3E7FF0018241800FFE7DA
:1001F000DBE7FF30483A060E2629792926407F059D
:100200000507407F05253F5A3CE73C5A7F3E1C1CB2
:1002100008081C1C3E7F14227F22145F5F005F5F72
:1002200006097F017F006689956A6060606060945E
:10023000A2FFA29408047E040810207E2010080863
:100240002A1C08081C2A08081E101010100C1E0C6E
:100250001E0C30383E3830060E3E0E060000000000
:100260000000005F00000007000700147F147F14E7
:10027000242A7F2A1223130864623649562050002C
:1002800008070300001C2241000041221C002A1C18
:100290007F1C2A08083E0808008070300008080803
:1002A0000808000060600020100804023E51494523
:1002B0003E00427F400072494949462141494D3341
:1002C0001814127F1027454545393C4A49493141A8
:1002D000211109073649494936464949291E000076
:1002E00014000000403400000008142241141414CB
:1002F0001414004122140802015909063E415D59B7
:100300004E7C1211127C7F494949363E41414122BF
:100310007F4141413E7F494949417F090909013EE9
:10032000414151737F0808087F00417F4100204010
:10033000413F017F081422417F404040407F021C22
:10034000027F7F0408107F3E4141413E7F09090939
:10035000063E4151215E7F09192946264949493205
:1003600003017F01033F4040403F1F2040201F3FCB
:100370004038403F63140814630304780403615950
:10038000494D43007F414141020408102000414192
:10039000417F04020102044040404040000307083E
:1003A0000020545478407F2844443838444444283A
:1003B000384444287F385454541800087E090218E1
:1003C000A4A49C787F0804047800447D4000204069
:1003D000403D007F1028440000417F40007C0478AD
:1003E00004787C080404783844444438FC182424F5
:1003F0001818242418FC7C08040408485454542475
:1004000004043F44243C4040207C1C2040201C3CF1
:100410004030403C44281028444C9090907C4464E8
:10042000544C44000836410000007700000041367B
:10043000080002010204023C2623263C1EA1A16101
:10044000123A4040207A3854545559215555794133
:100450002154547841215554784020545579400C0A
:100460001E527212395555555939545454593955EB
:100470005454580000457C410002457D420001452E
:100480007C40F0292429F0F0282528F07C5455459B
:10049000002054547C547C0A097F4932494949322E
:1004A0003248484832324A4848303A4141217A3A43
:1004B00042402078009DA0A07D39444444393D400D
:1004C00040403D3C24FF2424487E4943662B2FFCBA
:1004D0002F2BFF0929F620C0887E09032054547968
:1004E000410000447D413048484A32384040227A39
:1004F000007A0A0A727D0D19317D2629292F2826B6
:100500002929292630484D402038080808080808BD
:100510000808382F10C8ACBA2F102834FA00007B16
:10052000000008142A142222142A1408AA005500D4
:10053000AAAA55AA55AA000000FF00101010FF003B
:10054000141414FF001010FF00FF1010F010F0142E
:100550001414FC001414F700FF0000FF00FF141433
:10056000F404FC141417101F10101F101F1414147F
:100570001F00101010F0000000001F101010101FBE
:1005800010101010F010000000FF101010101010CC
:10059000101010FF10000000FF140000FF00FF000B
:1005A000001F10170000FC04F41414171017141483
:1005B000F404F40000FF00F714141414141414F7D6
:1005C00000F7141414171410101F101F141414F42F
:1005D000141010F010F000001F101F0000001F1476
:1005E000000000FC140000F010F01010FF10FF14C9
:1005F0001414FF141010101F00000000F010FFFF73
:10060000FFFFFFF0F0F0F0F0FFFFFF000000000040
:10061000FFFF0F0F0F0F0F38444438447C2A2A3E47
:10062000147E02020606027E027E02635549416381
:100630003844443C04407E201E2006027E0202997B
:10064000A5E7A5991C2A492A1C4C7201724C304A14
:100650004D4D303048784830BC625A463D3E49499D
:1006600049007E0101017E2A2A2A2A2A44445F4445
:100670004440514A444040444A51400000FF010375
:10068000E080FF000008086B6B083612362436063F
:100690000F090F060000181800000010100030406D
:1006A000FF0101001F01011E00191D1712003C3C33
:1006B0003C3C0000000000020000000800020100B5
:1006C000000304070000000000000000000000001C
:1006D000250028002B0000000000240027002A002D
:1006E00004040404040404040202020202020303D8
:1006F00003030303010204081020408001020408E0
:100700001020010204081020D11411241FBECFEFC5
:10071000D8E0DEBFCDBF25E0A0EEB1E001C01D9264
:10072000A83AB207E1F711E0A0E0B1E0E4E5FFE3A9
:1007300002C005900D92A03EB107D9F713E0C5E8BD
:10074000D3E004C02197FE010E94621BC438D10788
:10075000C9F70E94A2150C94A81F0C940000FC017C
:10076000942F90954081492340830895FC01908106
:10077000492B4083089590E0FC01E854F94F2491FF
:10078000FC01EC50F94F3491FC01E052F94FE49137
:10079000EE23C9F0222339F0233001F1A8F42130EF
:1007A00019F1223029F1F0E0EE0FFF1FE453F94F69
:1007B000A591B4918FB7F894EC91611126C0309552
:1007C0003E233C938FBF08952730A9F02830C9F00D
:1007D000243049F7809180008F7D03C08091800094
:1007E0008F7780938000DFCF84B58F7784BDDBCF98
:1007F00084B58F7DFBCF8091B0008F778093B00060
:10080000D2CF8091B0008F7DF9CF3E2BDACF3FB7AA
:10081000F89480919A0290919B02A0919C02B091D1
:100820009D0226B5A89B05C02F3F19F00196A11D7A
:10083000B11D3FBFBA2FA92F982F8827BC01CD012A
:10084000620F711D811D911D42E0660F771F881F89
:10085000991F4A95D1F708958F929F92AF92BF92B8
:10086000CF92DF92EF92FF924B015C010E9407044E
:100870006B017C010E9407046C197D098E099F0998
:10088000683E734081059105A8F321E0821A910822
:10089000A108B10888EEC80E83E0D81EE11CF11C47
:1008A00081149104A104B10429F7FF90EF90DF9027
:1008B000CF90BF90AF909F908F9008950895089526
:1008C000AF92BF92CF92DF92EF92FF920F931F935E
:1008D000CF93DF936C017B018B01040F151FEB019C
:1008E0005E01AE18BF08C017D10759F06991D60153
:1008F000ED91FC910190F081E02DC6010995892BC5
:1009000079F7C501DF91CF911F910F91FF90EF9083
:10091000DF90CF90BF90AF900895FC01538D448D30
:10092000252F30E0842F90E0821B930B541710F09A
:10093000CF96089501970895FC01918D828D9817A7
:1009400061F0A28DAE0FBF2FB11D5D968C91928D7F
:100950009F5F9F73928F90E008958FEF9FEF0895B0
:10096000FC01918D828D981731F0828DE80FF11D79
:10097000858D90E008958FEF9FEF0895FC01918D94
:10098000228D892F90E0805C9F4F821B91098F738D
:10099000992708958EEE92E00E94BE0421E0892BF3
:1009A00009F420E0822F089580E090E0892B29F05F
:1009B0000E94CA0481110C9400000895FC01A48DCA
:1009C000A80FB92FB11DA35ABF4F2C91848D90E071
:1009D00001968F739927848FA689B7892C93A08954
:1009E000B1898C91837080648C93938D848D9813DE
:1009F00006C00288F389E02D80818F7D8083089571
:100A0000EF92FF920F931F93CF93DF93EC0181E05E
:100A1000888F9B8D8C8D98131AC0E889F989808105
:100A200085FF15C09FB7F894EE89FF896083E88938
:100A3000F98980818370806480839FBF81E090E02A
:100A4000DF91CF911F910F91FF90EF900895F62EB7
:100A50000B8D10E00F5F1F4F0F731127E02E8C8D51
:100A60008E110CC00FB607FCFACFE889F989808196
:100A700085FFF5CFCE010E94DE04F1CFEB8DEC0FA8
:100A8000FD2FF11DE35AFF4FF0829FB7F8940B8FB3
:100A9000EA89FB8980818062CFCFCF93DF93EC011D
:100AA000888D8823B9F0AA89BB89E889F9898C9156
:100AB00085FD03C0808186FD0DC00FB607FCF7CF12
:100AC0008C9185FFF2CF808185FFEDCFCE010E9412
:100AD000DE04E9CFDF91CF9108952F923F924F929C
:100AE0005F926F927F928F929F92AF92BF92CF92BE
:100AF000DF92EF92FF920F931F93CF93DF93CDB7C7
:100B0000DEB76A970FB6F894DEBF0FBECDBF4C01BB
:100B1000D42EF886EF82662E712CDC011696ED91AC
:100B2000FC9117976E167F0608F040C118964D91FC
:100B30005C918D2D90E08417950708F037C1CC208B
:100B400009F434C1AA2009F431C1D301A20FB11DA7
:100B5000EA17FB0710F42E2F261B122FC21608F4DB
:100B60001C2D800F911D4817590710F4042F0D19E3
:100B7000A01608F40A2D8FEF8D0D080F902F969573
:100B800096959695F401EA59FF4F0190F081E02D7A
:100B9000EE0FFF1FE557FC4F20813181388B2F87E7
:100BA0008D2D869586958695282E312CA101440F92
:100BB000551F440F551F480D591D5A8F498F412C01
:100BC000692F70E07B8B6A8B802F90E09D8B8C8BE4
:100BD00007700E8BAC2DB0E0B88FAF8BF301E10F37
:100BE000F11DFA87E9872A893B89221533050CF420
:100BF000DDC02D2D2770422F50E05A8349838D2D63
:100C000090E00896841B950B6C897D89681779079D
:100C10000CF0A6C08E8947E050E0481B5109AFEFA9
:100C2000B0E002C0B595A7954A95E2F7022E01C043
:100C3000AA0F0A94EAF7A98B55245394521A580E16
:100C4000942D9770E92FF0E0FC83EB830FEF090FF1
:100C5000050D28E030E02E1B3F0B87E052161306EF
:100C60000CF4802F27E030E0281B31094FEF50E0D3
:100C700002C0559547952A95E2F701C0440F9A9511
:100C8000EAF74B87081B68E070E0601B71097E8300
:100C90006D838FEF90E00D8002C0959587950A9443
:100CA000E2F78E87E42CE694E694E694EC9C7001DF
:100CB00011248F89988D8E0D9F1D9D878C87AF8104
:100CC000B885EA0EFB1EB12CA12CA11608F04AC073
:100CD000F70161917F01FB856F23262F30E00B80A8
:100CE00002C0359527950A94E2F7622F0023A1F000
:100CF000EC85FD85EA0DFB1D4F815885E40FF51F3E
:100D000080815E858523682F70E00D8002C0660FAC
:100D1000771F0A94E2F7622B70E0098002C0660F29
:100D2000771F0A94E2F7D40116962D913C911797FC
:100D3000229EC001239E900D329E900D1124860D9F
:100D4000971D8A0D9B1D91962D913C914989820F8B
:100D5000931FEF85F8890995FFEFAF1ABF0AB5CF4A
:100D600087E059CFD50C450CA98DBA8D94968D91FD
:100D70009C9195976816790624F495967C926E92CC
:100D80009497E98DFA8D86A197A129853A858217D6
:100D9000930714F437A326A33FEF231A330A498D90
:100DA0005A8D4C5F5F4F5A8F498F1DCF6A960FB691
:100DB000F894DEBF0FBECDBFDF91CF911F910F9191
:100DC000FF90EF90DF90CF90BF90AF909F908F906B
:100DD0007F906F905F904F903F902F900895EF928B
:100DE0000F930150040F2150260FDC01ED91FC916F
:100DF0000680F781E02D09950F91EF9008952F92CD
:100E00003F924F925F926F927F928F929F92AF929A
:100E1000BF92CF92DF92EF92FF920F931F93CF93E7
:100E2000DF93CDB7DEB729970FB6F894DEBF0FBEBC
:100E3000CDBF4C01F42EFC018681978168171906FD
:100E400008F0A6C0041710F4F02E042FF4018085DA
:100E500091850817190610F00FEF080FAF2CA69414
:100E6000A694A694802F869586958695261718F4C5
:100E7000962F622F292FF401EA59FF4F0190F0813C
:100E8000E02DEE0FFF1FE557FC4F408151815A8343
:100E90004983B12C6501CC0CDD1CCC0CDD1CC80CCD
:100EA000D91CE82FF0E0FC83EB83402F50E05E83F9
:100EB0004D8307700F83862F90E099878887022FD4
:100EC00010E0EB81FC81EA15FB050CF461C0FF2DFD
:100ED000F7703F2E8F2D90E008968F1B91092D8182
:100EE0003E814F802817390714F087E0482E87E0AD
:100EF00090E0841991094FEF50E002C05595479555
:100F00008A95E2F7CA01032C01C0880F0A94EAF718
:100F1000282E582EE11001C0512C688479840615C2
:100F20001705CCF0F40126813781A29EC001A39E53
:100F3000900DB29E900D1124860D971D21A132A116
:100F4000422D652D820F931FE981FA810995FFEFEC
:100F50006F1A7F0AE4CF81E08319F80EF40CF601D2
:100F600084A195A1288539852817390714F435A35C
:100F700024A3F60186A197A18017910714F417A363
:100F800006A3FFEFAF1ABF0A24E0C20ED11C99CF0F
:100F900029960FB6F894DEBF0FBECDBFDF91CF917B
:100FA0001F910F91FF90EF90DF90CF90BF90AF9087
:100FB0009F908F907F906F905F904F903F902F9079
:100FC00008954F925F926F927F928F929F92AF920D
:100FD000BF92CF92DF92EF92FF920F931F93CF9326
:100FE000DF935C01FC01808591854817190608F0A4
:100FF00063C0261718F4862F622F282FF5018681EB
:1010000097812817190610F02FEF280FE42FE770AB
:10101000F0E0E95FFE4F5080F501EA59FF4F019083
:10102000F081E02DEE0FFF1FE557FC4F60807180CF
:10103000C62ED12C469546954695C42FD0E0C89F24
:10104000A001C99F500DD89F500D11244C0D5D1D5E
:10105000F50181A192A1840F951F452CE11001C0DB
:10106000412C46017C01EC18FD08022F10E0C7015D
:10107000880D991D0815190544F0452D642DF301BF
:101080000995FFEF8F1A9F0AF2CFCC0FDD1FCC0F0F
:10109000DD1FF501EC0FFD1F84A195A1C816D9062F
:1010A00014F4D5A2C4A2CA0DDB1D8EA19FA1801786
:1010B000910714F41FA30EA3DF91CF911F910F91FD
:1010C000FF90EF90DF90CF90BF90AF909F908F9068
:1010D0007F906F905F904F900895CF92DF92EF9244
:1010E000FF920F931F93CF93DF938C01E62EF12C89
:1010F000FC01A681B781EA16FB0608F049C080858D
:1011000091854817190608F043C0E42FE770F0E016
:10111000E95FFE4F3081F801EA59FF4F0190F081FD
:10112000E02DEE0FFF1FE557FC4FC080D18021114D
:10113000232F842F869586958695C82FD0E0CA9F49
:10114000C001CB9F900DDA9F900D11248E0D9F1D35
:10115000F801A1A1B2A1432F622F8A0F9B1FF601B4
:101160000995CC0FDD1FCC0FDD1FF801EC0FFD1F23
:1011700084A195A1E816F90614F4F5A2E4A2C00F23
:10118000D11F8EA19FA18E159F0514F4FFA2EEA280
:10119000DF91CF911F910F91FF90EF90DF90CF9053
:1011A0000895FC018081942F909598236827462309
:1011B000492B40830895FC01208191E0211190E0AA
:1011C00092274923422740830895FC01808191E0C2
:1011D000611190E098274923482740830895FC0136
:1011E000942F9095808198236423692B60830895C0
:1011F0000F93DC011696ED91FC9117976E171F0661
:1012000058F41896ED91FC9119974E171F0620F48B
:101210005C96ED91FC9109950F9108957F928F92C4
:101220009F92AF92BF92CF92DF92EF92FF920F9375
:101230001F93CF93DF936C01F62EB42EA02E11E0F6
:10124000121B922E9194990CC22F022F040F421B55
:10125000DC015096ED91FC91EA2C262F0995D0E007
:10126000DC170CF03FC017FD04C0C1509394939459
:10127000190DDF5F8D2F880F8F5F180F6F2D6D0F8A
:10128000D6015096ED91FC91EA2C7C2E7B0C072D1B
:10129000262F8B2C8C1A482DC60109956F2D6D1B9E
:1012A000D6015096ED91FC91262F482DC601099547
:1012B0007B2C7D0E8B2C8D1AD6015096ED91FC91D6
:1012C000072D6C2F6F0D262F482DC6010995D601CD
:1012D0005096ED91FC916F2D6C1B262F482DC60169
:1012E0000995BECFDF91CF911F910F91FF90EF90A5
:1012F000DF90CF90BF90AF909F908F907F90089598
:101300008F929F92AF92BF92CF92DF92EF92FF9215
:101310000F931F93CF93DF93EC01B62EC42E81E081
:10132000A82EA21A922E9194990C122F422F4C0D96
:10133000EA85FB85202FCE0109954C2D411BEA85BE
:10134000FB85202F6B2DCE010995612F6B0DEA8552
:10135000FB85202F4C2DCE0109956B2D611BEA8555
:10136000FB85202F4C2DCE010995F12CF1160CF0A8
:1013700054C0A7FC04C0115093949394A90CF39407
:101380008F2D880F8F5FA80E8B2C8F0CEA85FB8525
:10139000202FE12EEC0C4E2D682DCE010995DB2C73
:1013A000DF18EA85FB85202F4E2D6D2DCE01099586
:1013B000EA85FB85202FEC2CE11A4E2D682DCE01FD
:1013C0000995EA85FB85202F4E2D6D2DCE010995BF
:1013D000EC2CEF0CEA85FB85202F4E2DD12EDB0C5B
:1013E0006D2DCE010995EA85FB85202F4E2DEB2C26
:1013F000E11A6E2DCE0109958C2C8F18EA85FB859C
:10140000202F482D6D2DCE010995EA85FB85202FD3
:10141000482D6E2DCE010995A9CFDF91CF911F9157
:101420000F91FF90EF90DF90CF90BF90AF909F9083
:101430008F900895BF92CF92DF92EF92FF920F9319
:101440001F93CF93DF936C01F62ED42F2150122FD0
:10145000160F0150C02FC40FDC011E96ED91FC91B8
:10146000042F212F0995D6011E96ED91FC910C2F8A
:10147000212F4C2F6F2DC60109952C2F2D1B330BBF
:10148000233031059CF0DF5FD6015096ED91FC9141
:101490002F2D4D2F6F2DC6010995D6015096ED9138
:1014A000FC91212F4D2F612FC6010995DF91CF911E
:1014B0001F910F91FF90EF90DF90CF90BF90089514
:1014C0008F929F92AF92BF92CF92DF92EF92FF9254
:1014D0000F931F93CF93DF936C01B42EF22E261B34
:1014E000330BC90137FF03C0919581959109182FDE
:1014F000802F8B19990BEC0197FF03C0D195C195F3
:10150000D1099C2E111116C0C11145C0D6011A96E1
:10151000ED91FC912E2D4B2DC601DF91CF911F91A6
:101520000F91FF90EF90DF90CF90BF90AF909F9082
:101530008F900994A12E1C1740F0AC2EC12F802F44
:101540000F2DF82E8B2DB62E682F0B1530F08F2D0A
:10155000F62E682F802F0B2DB82EDC2FD6958824E1
:101560008394F61610F088248A94B016B0F0D60151
:101570001A96ED91FC912E2D402F6F2D191510F01C
:101580004F2D602FC6010995DA19D7FF02C0F80C5C
:10159000DC0F0F5FEACFA12CD8CFDF91CF911F9145
:1015A0000F91FF90EF90DF90CF90BF90AF909F9002
:1015B0008F900895FC01268D378D232B19F52091EE
:1015C000560221111AC025E02093500228E02093F2
:1015D0005102109252022FEF209353022BEF34E06E
:1015E000309355022093540225E031E030934F02AE
:1015F00020934E0221E0209356022EE432E0FC01BB
:10160000378F268F08958CEB91E008950895089503
:10161000089520912B02260F3327331F21323105E5
:10162000ECF42091C402FC0190E080E0243069F0E9
:1016300082E00895A0912B022191AC01455F5D4F9E
:10164000A40FB52FB11D2C930196861798F38091A6
:101650002B02680F60932B0280E0089581E00895CB
:101660001092C40281E08093C30210929E0261E056
:1016700082E10E94BB0361E083E10E94BB03E9EBCE
:10168000F0E080818E7F808380818D7F808388E4FD
:101690008093B80085E48093BC000895CF93DF93D6
:1016A00091E090930A028823B9F0C091B800D091DC
:1016B000BA008091BC008A7B8093BC0060E082E12C
:1016C0000E94BB0360E083E10E94BB030E94300BD9
:1016D000D093BA00C093B800DF91CF9108958F9254
:1016E0009F92AF92BF92CF92DF92EF92FF920F93B1
:1016F0001F93CF93DF93D091ED02D13208F0D7C082
:10170000182FC091EC020E9407046B017C018091AC
:10171000C40281116BC082E08093C4021093C302A3
:101720008FEF8093C2021092C102D093C002ACEC42
:10173000B2E0E0EAF2E080E0D81391C010929F029C
:1017400080919F02CC0FC82BC0939F0280919E0274
:10175000813009F088C010929E020E9407046B013C
:101760007C0180919F028093BB008091C602909182
:10177000C702A091C802B091C902892B8A2B8B2B7A
:10178000A1F00E9407040091C6021091C7022091A7
:10179000C8023091C9026C197D098E099F0906178C
:1017A00017072807390708F442C08091BC0083FD61
:1017B000D8CF85EC8093BC000E9407046B017C01AC
:1017C0008091C402823009F450C08091C2028F3FE0
:1017D00009F46FC08091C202803209F46CC080911C
:1017E000C202803309F469C084E026C08091C60239
:1017F0009091C702A091C802B091C902892B8A2B8F
:101800008B2B09F484CF0E9407048090C60290902D
:10181000C702A090C802B090C9026C197D098E0958
:101820009F0986169706A806B90608F070CF809122
:10183000C5020E944E0B85E01092CB021092ED0281
:101840001092CA02DF91CF911F910F91FF90EF90FC
:10185000DF90CF90BF90AF909F908F9008959D9113
:1018600091938F5F69CF85EEA5CF8091C60290914D
:10187000C702A091C802B091C902892B8A2B8B2B79
:1018800009F49ECF0E9407040091C6021091C7027E
:101890002091C8023091C9026C197D098E099F09F7
:1018A000061717072807390708F08ACFC0CF81E04D
:1018B000C3CF80E0C1CF82E0BFCF83E0BDCF7F92B6
:1018C0008F929F92AF92BF92CF92DF92EF92FF9250
:1018D0000F931F93CF93DF935C01962E842E790193
:1018E000C02FD12F772473942097A9F1F50180811F
:1018F00091817092CA029092EC021092CB021092E7
:10190000ED02DC01ED91FC910190F081E02D682D5C
:1019100009956E01C032D10518F08FE1C82ED12C87
:10192000F50180819181DC01ED91FC910280F381D0
:10193000E02DA601B7010995CC19DD09E80EF91EC5
:1019400081E0209709F080E00E946F0B882361F20C
:101950008FEF9FEF01C0C801DF91CF911F910F91D1
:10196000FF90EF90DF90CF90BF90AF909F908F90BF
:101970007F9008950F931F93CF93DF9300D0CDB73F
:10198000DEB769834A83FC01E659FF4F88599F4FB0
:1019900002E010E09E012F5F3F4F40E06081FC01BC
:1019A000808191810E945F0C0F900F90DF91CF9109
:1019B0001F910F9108951F93CF93DF93162FFC0172
:1019C000E859FF4FC081D18186599F4FDC012C918E
:1019D0008881998131E03093CA022093EC02109201
:1019E000CB021092ED02DC01ED91FC910190F081AF
:1019F000E02D60E0099588819981DC01ED91FC91F1
:101A00000190F081E02D612F099581E0DF91CF9168
:101A10001F910C946F0B2F923F924F925F926F9297
:101A20007F928F929F92AF92BF92CF92DF92EF926E
:101A3000FF920F931F93CF93DF9300D000D01F929C
:101A4000CDB7DEB77C0184969D838C83D12CC12CCD
:101A5000F701EC59FF4F5F018A5B9F4F9B838A839D
:101A6000170198E6290E311C90E8492E512C662466
:101A70006A94762CF70183A18C151D0409F00CF4EF
:101A80008DC0EC81FD818080918002811381F50100
:101A90009081992381F0EC81FD8120A131A128154D
:101AA00039050CF44901EC81FD8122A133A1021713
:101AB00013070CF48901F0E88F16910409F465C04E
:101AC00089826C2DC816F0F4F701868197818816FB
:101AD0001906C0F4606BC7010E94DB0CB40184E0FE
:101AE000759567958A95E1F76F7077276061F701C3
:101AF0008281680FC7010E94DB0C69816F70C7018A
:101B00000E94DB0C0F5FF9810F1B10E0F70186814B
:101B10009781C89E9001C99E300DD89E300D11242A
:101B2000820E931E21A132A1280D391D40E4EA81C5
:101B3000FB816081F101808191810E945F0CF50140
:101B40008081882331F0EC81FD8151A240A273A2F3
:101B500062A2EC81FD818081918120A131A1821757
:101B6000930714F491A380A3EC81FD81828193817A
:101B700022A133A12817390714F493A382A3EC817F
:101B8000FD815182408273826282FFEFCF1ADF0AA9
:101B90008C819D8104969D838C836CCFF50110828E
:101BA0000F900F900F900F900F90DF91CF911F919A
:101BB0000F91FF90EF90DF90CF90BF90AF909F90EC
:101BC0008F907F906F905F904F903F902F900895EF
:101BD0000895E091680280916702E81730F4F0E020
:101BE000E651FE4F808190E008958FEF9FEF0895BA
:101BF00090916802809167022FEF3FEF981748F4A9
:101C0000E92FF0E0E651FE4F208130E09F5F909396
:101C10006802C90108958091670290916802891B4A
:101C2000990B0895CF92DF92EF92FF920F931F933B
:101C3000CF93DF937C01CB018A012091CA0222233A
:101C400089F0EB016B01C40ED51ECC15DD0569F0E2
:101C50006991D701ED91FC910190F081E02DC701D0
:101C60000995F3CF642F0E94090BC801DF91CF9132
:101C70001F910F91FF90EF90DF90CF900895CF9339
:101C8000DF931F92CDB7DEB769832091CA0222236A
:101C9000F9F02091ED02203258F021E030E0FC0113
:101CA0003383228390E080E00F90DF91CF910895FD
:101CB0008091CB02E82FF0E0E453FD4F99819083AF
:101CC0008F5F8093CB028093ED0281E090E0ECCFB8
:101CD00061E0CE0101960E94090BF7CF6F927F92CF
:101CE0008F929F92AF92BF92CF92DF92EF92FF922C
:101CF0000F931F93CF93DF9300D0CDB7DEB77C0156
:101D0000162F3C0184E0680E711CF70182A193A19B
:101D1000892B19F4C3010E94DA0AF701A2A0B3A02B
:101D200090E080E0A114B10409F451C06701F9E02A
:101D3000CF1AFEEFDF0AF60140811A3099F11D300B
:101D4000D1F11A82198219834701FAE08F1AFEEF46
:101D50009F0AF701E850FE4F00819E012F5F3F4F21
:101D6000F4016081C3010E94F808F40180818F5F53
:101D7000F5019281890FF4018083F5019281F701C9
:101D800022853385291B310982171306A1F098F0AB
:101D9000F4011082F6018081F5019381890FF6012B
:101DA000808309C0F701EA50FE4F1082F50183815C
:101DB000480FF6014083F6012081F701848595855F
:101DC0002817190610F0F601108281E090E00F90BC
:101DD0000F90DF91CF911F910F91FF90EF90DF90C7
:101DE000CF90BF90AF909F908F907F906F9008950D
:101DF000089590E080E00895CF93DF93FC01019077
:101E00000020E9F73197AF01481B590BBC018EEE5A
:101E100092E00E946004EC0142E050E06DE571E068
:101E20008EEE92E00E9460048C0F9D1FDF91CF9197
:101E300008952F923F924F925F926F927F928F926E
:101E40009F92AF92BF92CF92DF92EF92FF920F9349
:101E50001F93CF93DF93CDB7DEB72F970FB6F894CC
:101E6000DEBF0FBECDBF7C01162F442E690109874E
:101E7000DC015E96ED91FC91309709F4C8C0211504
:101E8000310509F4C4C0D9010D900020E9F711977C
:101E90001D01221A330A09F4BAC0B381B695B6956A
:101EA000B695BF87B11102C021E02F875524539406
:101EB0003F85313009F0512C26813781628170E0F5
:101EC000C9010E944E1B7B876A878F85829FA00174
:101ED000839F500D11245C834B83A081B1812D9190
:101EE0003C91CF01F90109959E838D834601252DF3
:101EF00030E03D872C87D4018D914D01D7015E964E
:101F0000ED91FC91082E000C990B2481821B910904
:101F100025812817190609F008F46BC06A857B85AE
:101F20000E944E1B4281489F9001499F300D112411
:101F3000EB81FC816E9FC0016F9F900D7E9F900D85
:101F40001124A901480F591F58874F83042DB12C24
:101F5000A12C712E272D211BD7015E96ED91FC91AE
:101F60003281822F90E04C855D85430F511D84178F
:101F70009507BCF5BF85B13011F4321781F1268188
:101F80003781A29EF001A39EF00DB29EF00D1124A8
:101F90002F813885E20FF31FE80FF91F4D815E8115
:101FA000E40FF51F54915E8787E091E09A8389835F
:101FB000612CA981BA818D91BA83A983BE858B23B7
:101FC00051F0D7011A96ED91FC912985462D400FCD
:101FD000672DC70109956394B8E06B12EACF73943B
:101FE000B9CFEFEFAE1ABE0A085FFF85AF1608F44F
:101FF000B0CFD7015E96ED91FC918281850D180FCF
:10200000C4018C199D09821593050CF474CF2F9689
:102010000FB6F894DEBF0FBECDBFDF91CF911F91F9
:102020000F91FF90EF90DF90CF90BF90AF909F9077
:102030008F907F906F905F904F903F902F9008957A
:102040008F929F92AF92BF92DF92EF92FF920F9387
:102050001F93CF93DF93FC0121A132A1232B09F41D
:1020600060C0EC01D12C90E8892E912CAA24AA946E
:10207000BA2C8BA1D81608F050C06D2D70E08B01E2
:10208000000F111F000F111F7E01E00EF11EF7015E
:10209000EC5BFF4F80819181F70124A135A182176C
:1020A000930714F495A384A3FE01E00FF11FDF0151
:1020B000AA5BBF4F8D919C9126A137A128173907A4
:1020C00014F497A386A3F70124A135A12038310584
:1020D00011F10C0F1D1FF80146A157A1421B530B14
:1020E0004F5F5F4FEE81FF816E9FC0016F9F900D2C
:1020F0007E9F900D1124820F931F29A13AA170E0B9
:1021000060E0820F931F0E94CC1CF70195A284A26D
:10211000F801B7A2A6A2D394ACCFCC59DF4F81E08F
:102120008883DF91CF911F910F91FF90EF90DF9007
:10213000BF90AF909F908F90089585ED8093BC00E5
:102140008091C6029091C702A091C802B091C902C5
:102150000796A11DB11D23E0B695A7959795879584
:102160002A95D1F72091BC0024FD03C01092C4022F
:1021700008954091C6025091C7026091C8027091C3
:10218000C902452B462B472B69F30097A105B105E2
:1021900041F02AE22A95F1F700C00197A109B1099F
:1021A000E1CF8091C5020C944E0B2F923F924F923B
:1021B0005F926F927F928F929F92AF92BF92CF92D7
:1021C000DF92EF92FF920F931F93CF93DF93CDB7E0
:1021D000DEB7C058D1090FB6F894DEBF0FBECDBF31
:1021E0009C0120593F4F29F0DC0192963C932E939D
:1021F00091974C01BBE68B0E911C22E1F4012083E8
:102200005C01FCE6AF0EB11C21EFD5012C938C01D3
:1022100003591F4F20E4F80120832C01FFE64F0EE5
:10222000511CD2013C90311069C03C01B8E66B0EE4
:10223000711CF30120813181232B09F45FC06C01F3
:10224000FAE6CF0ED11CD6012C91222309F456C0F8
:10225000FC0141A152A1452B09F450C07C0122246C
:1022600023942092CA022093EC021092CB02109287
:10227000ED0281E00E946F0B811140C0D7015E9694
:102280008D919C91892B11F580915602811119C075
:1022900085E08093500288E08093510210925202B0
:1022A0008FEF809353028BEF94E0909355028093CD
:1022B000540285E091E090934F0280934E02209269
:1022C00056028EE492E0F701978F868FD701ED9149
:1022D000FC91119784E11A9601900D928A95E1F78D
:1022E000F7018285938588509B4019F56091A6057A
:1022F0007091A70580E691E00E94D31C832DC05801
:10230000DF4F0FB6F894DEBF0FBECDBFDF91CF9188
:102310001F910F91FF90EF90DF90CF90BF90AF9003
:102320009F908F907F906F905F904F903F902F90F5
:102330000895D7011E968D919C9187509B4029F45A
:10234000F7018485958597878687D70150968D916B
:102350009C9187509B4029F4F70184859585918B4A
:10236000808BD70154968D919C9187509B4029F486
:10237000F70182899389958B848BD70158968D912B
:102380009C9186509B4029F4F70186899789918F0B
:10239000808F6EEAC7010E94DB0C40E865EDC70143
:1023A0000E94BA0CD70118964C91415068EAC701B7
:1023B0000E94BA0C40E063EDC7010E94BA0C60E4D1
:1023C000C7010E94DB0C44E16DE8C7010E94BA0C12
:1023D00042E060E2C7010E94BA0C66EAC7010E94AF
:1023E000DB0C64EAC7010E94DB0C61EAC7010E94B2
:1023F000DB0C68ECC7010E94DB0CF40140816AED44
:10240000C7010E94BA0CF701E259FF4F408161E811
:10241000C7010E94BA0CD5014C9169EDC7010E9419
:10242000BA0CF80140816BEDC7010E94BA0C6EE254
:10243000C7010E94DB0C6FEAC7010E94DB0CD701C9
:1024400018962D913C91199783E0369527958A959A
:10245000E1F793962C93939791968D919C919297F7
:10246000009761F016966D917C91269FA001279FA1
:10247000500D112470E060E00E94CC1CF70123A1F4
:1024800030E0B49690E080E060E870E04FEF5FEFFE
:10249000821793075CF4718360835383428371A333
:1024A00060A353A342A301963496F2CFF701EC59EF
:1024B000FF4F1082CE0101965C0180E8D5011D928C
:1024C0008A95E9F7912CF70183A19816A0F48681EB
:1024D0009781892B81F0692D606BC7010E94DB0C0D
:1024E000D70112966C91605FC7010E94DB0C60E01F
:1024F000C7010E94DB0C00E810E0950140E4F60102
:102500006081D3018D919C910E945F0C9394B8E0FF
:102510009B12D9CF81E0F201808333243394EECE35
:102520001F920F920FB60F9211242F933F938F9308
:102530009F93AF93BF938091960290919702A09141
:102540009802B09199023091950223E0230F2D3724
:1025500058F50196A11DB11D209395028093960216
:1025600090939702A0939802B093990280919A0257
:1025700090919B02A0919C02B0919D020196A11D99
:10258000B11D80939A0290939B02A0939C02B093FA
:102590009D02BF91AF919F918F913F912F910F908D
:1025A0000FBE0F901F90189526E8230F0296A11DCD
:1025B000B11DD2CF1F920F920FB60F9211242F93FD
:1025C0003F934F935F936F937F938F939F93AF93BB
:1025D000BF93EF93FF9380915F0290916002A0916F
:1025E0006102B0916202892B8A2B8B2BC1F19091F1
:1025F0005E028091000089278093000080915F0235
:1026000090916002A0916102B091620218161906C1
:102610001A061B069CF480915F0290916002A091C3
:102620006102B09162020197A109B10980935F0232
:1026300090936002A0936102B0936202FF91EF91C8
:10264000BF91AF919F918F917F916F915F914F91CA
:102650003F912F910F900FBE0F901F901895809172
:102660000001E7EBF6E0E4919FEF90930001E13089
:1026700051F030F0E23069F060E00E94BB03DECF41
:1026800010926E00F9CF90916F009D7F90936F0034
:10269000F3CF909170009D7F9093700091E09093A4
:1026A000B0009091B100987F94609093B100109227
:1026B000B300E2CF1F920F920FB60F9211242F9307
:1026C0003F934F935F936F937F938F939F93AF93BA
:1026D000BF93EF93FF938EEE92E00E94DE04FF9192
:1026E000EF91BF91AF919F918F917F916F915F918A
:1026F0004F913F912F910F900FBE0F901F90189503
:102700001F920F920FB60F9211242F938F939F93C6
:10271000EF93FF93E091FE02F091FF028081E09140
:102720000403F091050382FD1BC090818091070393
:102730008F5F8F7320910803821741F0E0910703A8
:10274000F0E0E251FD4F958F80930703FF91EF91E9
:102750009F918F912F910F900FBE0F901F90189502
:102760008081F4CF1F920F920FB60F9211242F93F6
:102770003F934F935F936F937F938F939F93AF9309
:10278000BF93EF93FF938091B900887F803609F45F
:102790004AC0F0F5883209F4A7C018F5803109F471
:1027A0009BC0B8F4882309F4F9C0883009F494C0B8
:1027B000FF91EF91BF91AF919F918F917F916F9119
:1027C0005F914F913F912F910F900FBE0F901F90EF
:1027D0001895883109F488C0803251F78093C2027D
:1027E00014C0803409F49DC040F48033B9F38833B9
:1027F000F9F68093C20285ECB0C0803509F485C03B
:10280000883509F496C0883499F60E949D10D0CF7F
:10281000883909F48CC038F5883729F050F48836A7
:1028200011F0803729F683E08093C40210924D02A4
:1028300057C0883809F47BC0803919F0803809F016
:10284000B7CF80914D02803208F071C0E0914D0207
:1028500081E08E0F80934D028091BB00F0E0E35D3C
:10286000FD4F80833DC0803B39F0E0F4803A09F4AD
:1028700079C0883A09F09CCF84E08093C40210921A
:102880002C0210922B02E0916502F09166020995EC
:1028900080912B0281110FC081E080932B02109256
:1028A0000B0209C0803C09F4A6CF883C09F4A3CFF1
:1028B000883B09F07DCFE0912C0281E08E0F809360
:1028C0002C02F0E0E55FFD4F80818093BB0090918A
:1028D0002C0280912B0229C080919F028093BB0023
:1028E00085EC8093BC0064CF9091C1028091C002BE
:1028F000981758F5E091C10281E08E0F8093C102D4
:10290000F0E0E056FD4F8081E9CFE091C10281E027
:102910008E0F8093C1028091BB00F0E0E056FD4F26
:1029200080839091C1028091C0029817C8F285E817
:10293000D8CFE091C10281E08E0F8093C1028091D7
:10294000BB00F0E0E056FD4F80838091C30281110F
:102950005CCF81E080939E0284EA8093BC00109259
:10296000C40226CF85EC8093BC001092C4028091F3
:102970004D02803230F4E0914D02F0E0E35DFD4F16
:10298000108260914D0270E0E0916302F091640268
:102990008DE292E0099510924D020ACF1092C20288
:1029A00034CF1092F1021092F00288EE93E0A0E092
:1029B000B0E08093F2029093F302A093F402B093FC
:1029C000F50223E131E03093EF022093EE0225EC93
:1029D00030E03093FB022093FA0224EC30E0309395
:1029E000FD022093FC0220EC30E03093FF022093A4
:1029F000FE0221EC30E0309301032093000322EC2F
:102A000030E0309303032093020326EC30E0309350
:102A100005032093040310920703109208031092F9
:102A2000090310920A032FEE38E030938C032093B1
:102A30008B0325EE38E030938E0320938D032BED2E
:102A400038E03093900320938F0321ED38E03093EA
:102A50009203209391032FEA33E030939403209361
:102A6000930326EB33E03093960320939503109263
:102A70009A031092990380939B0390939C03A093D5
:102A80009D03B0939E0385E291E090939803809319
:102A9000970382E090E090939D0580939C058FEFD3
:102AA0009FEF90939F0580939E051092A105109231
:102AB000A005E6EFF6E02491E2EEF6E084918823AB
:102AC00099F090E0880F991FFC01EA52F94FA59107
:102AD000B491FC01E453F94F859194918FB7F89428
:102AE000EC91E22BEC938FBF1092A6031092A503FA
:102AF00082E090E09093AA038093A9031092AC0324
:102B00001092AB0380E490E09093AE038093AD030A
:102B100080E390E09093B0038093AF0387E391E06C
:102B20009093A8038093A7038DE38093C70310922B
:102B300098051092970585E591E09093A403809302
:102B4000A3030895CF93DF93CDB7DEB72E970FB6CB
:102B5000F894DEBF0FBECDBF789484B5826084BD8B
:102B600084B5816084BD85B5826085BD85B5816091
:102B700085BD80916E00816080936E00109281000F
:102B800080918100826080938100809181008160CA
:102B9000809381008091800081608093800080918B
:102BA000B10084608093B1008091B0008160809317
:102BB000B00080917A00846080937A0080917A00DE
:102BC000826080937A0080917A00816080937A009D
:102BD00080917A00806880937A001092C10064EF3F
:102BE00071E080E090E00E942C04E091FE02F09100
:102BF000FF0282E08083E091FA02F091FB021082F2
:102C0000E091FC02F091FD028FEC808310920603AC
:102C1000E0910203F091030386E08083E0910003DA
:102C2000F0910103808180618083E0910003F09145
:102C30000103808188608083E0910003F0910103AB
:102C4000808180688083E0910003F091010380819E
:102C50008F7D808364EF71E080E090E00E942C041F
:102C600011E047E9C42E43E0D42E5EE5A52E54E0E2
:102C7000B52E6FE5862E64E0962E77E9E72E75E097
:102C8000F72E8091AD039091AE03892B51F0809186
:102C9000AF039091B003892B21F010929905109207
:102CA0009A0510939B058091970590919805892B23
:102CB000B1F4D0929805C0929705109268021092D4
:102CC00067021092CB021092ED020E94300BB0927C
:102CD0006602A092650290926402809263028091E3
:102CE000C703F0921004E0920F048093110487EA66
:102CF00093E00E94D510882309F43EC18091C5035A
:102D00009091C603892B21F487EA93E00E94DA0AA6
:102D1000E091C503F091C603309719F08381809349
:102D20009A0501E02DEC31E040E060E087EA93E0B5
:102D30000E94F8082DEC31E04AE060E087EA93E079
:102D40000E94F8082DEC31E044E160E087EA93E06E
:102D50000E94F8082DEC31E04EE160E087EA93E054
:102D60000E94F8082DEC31E048E260E087EA93E049
:102D70000E94F80887EA93E00E940B0D64EF71E06F
:102D800080E090E00E942C0487EA93E00E942010EB
:102D900087EA93E00E940B0DCE0101965C018FEA59
:102DA000C82E81E0D82E99E6E92E92E0F92E2CEB80
:102DB000822E21E0922E30E0232E30E0332E87EA5F
:102DC00093E00E94201080E480937C0080917A0040
:102DD000806480937A0080917A0086FDFCCF6091B8
:102DE000780070917900072E000C880B990B0E94D7
:102DF0001E1A20E030EC4FE754E40E94D51B20E07F
:102E000030E040EA50E40E94591A2B013C0120E0D6
:102E100030E44CE156E40E94591A6B877C878D8719
:102E20009E87A301920160E070E080EA90E40E9436
:102E3000681B9B01AC016B857C858D859E850E94FE
:102E4000D51B20E030E543EC57E40E94D51B0E94DF
:102E50004F1C25E63FEC4BE859E30E94591A22E645
:102E60003BEE4BE55BE30E94691B9B01AC0160E01C
:102E700070E080E89FE30E94D51B23E333E948E834
:102E800053E40E94681B60939102709392028093B6
:102E900093029093940201E029EA31E040E060E07F
:102EA00087EA93E00E94F80826E636E646EE5FE3FE
:102EB000609191027091920280919302909194029C
:102EC0000E94591A20E030E040E052E40E94691B61
:102ED000850122E043E00E94C717BF92AF92DF92C4
:102EE000CF921F9298E29F93FF92EF920E94FA1C5A
:102EF00001E029E632E04AE060E087EA93E00E94E0
:102F0000F80889E692E00E94FC0E24EB31E049E1EA
:102F100060E087EA93E00E94F8081F9288EC8F93A4
:102F20009F928F921F9298E29F93FF92EF920E943E
:102F3000FA1C29E632E043E260E087EA93E00E946F
:102F4000F80887EA93E00E940B0D68EE73E080E0DA
:102F500090E00E942C040FB6F894DEBF0FBECDBFE8
:102F60002114310409F42BCF0E94CA04882309F4E8
:102F700026CF0E94000023CF81EC91E00E94FC0E3E
:102F800068EE73E080E090E00E942C047ACEEF922D
:102F90000F931F93CF93DF93E80134E047FD34E1B3
:102FA000042E000C550B57FF03C051954195510954
:102FB000E32E022F242FAE010E94E517CE01DF91F0
:102FC000CF911F910F91EF900895A9E0B0E0EBEE43
:102FD000F7E10C941D1B6A01F22EB02E102FFBE3BB
:102FE000AF2EA01608F41BE31F5F012F27E0AE01F0
:102FF0004F5F5F4F0E944419BC018981982F9970DF
:10300000913009F43FC09BE2E1FC04C09E2D917019
:10301000E0FC3AC05E2D5071E82FE87083FF46C097
:1030200084E0911101C083E0EF2DE81B8F1508F0BB
:10303000E0E0D6018E2F20E2552351F1992329F0AB
:10304000D6019C93C60101966C0196012D5F3F4FFE
:10305000E2FE24C08EE4D6018C9391E411969C93F9
:10306000119712968C93D9018E2F90E281111BC07B
:10307000E20FF32FF11D10828EEF9FEF2996ECE007
:103080000C94391B9DE2C6CF90E2C4CF2D938150A2
:103090008111FCCFCE0ED11CE0E0D0CF8EE6D60160
:1030A0008C9391E6DBCF9D938150E0CF482F447005
:1030B00082FF3DC084E0911101C083E08F1510F4C0
:1030C000EF2DE81BD6018E2F20E2552309F199231D
:1030D00029F0D6019C93C60101966C0196012D5FE3
:1030E0003F4FE2FE1BC089E4D6018C938EE411961B
:1030F0008C93119786E412968C93D9018E2F90E2CF
:10310000882309F4B5CF9D938150FACF2D93815038
:103110008111FCCFCE0ED11CE0E0D9CF89E6D601DB
:103120008C938EE611968C93119786E6E4CF9B01E3
:1031300077FF02C030E020E0A1E0B0E0911102C0D2
:10314000B0E0A0E0F9013196AE0FBF1F8B2C912C9F
:10315000BB2009F461C05401EFEFAE1ABE0AAA0DFC
:10316000BB1DFA161B0619F014F04F2D4A1B511106
:1031700088C0E3FC59C07601A42FB0E2A1114FC072
:10318000C40ED11C992309F45BC040E0D60111960E
:10319000F60190836D01552309F448C0012F060FF5
:1031A0009A81582F507184FF03C0913309F4015064
:1031B00010160CF047C0093008F008E0EEE2FE2ED1
:1031C0005B01A01AB10885019194819491082F3F69
:1031D000320729F4D601FC92F60131966F0162178D
:1031E000730794F1021713077CF5DB01A21BB30BE5
:1031F000AA24A394B12CAC0EBD1EAA0DBB1D119622
:103200008C9121503109D601119628153905F4F019
:10321000F60180836D01DBCFB12CA12CA0CFF7018B
:10322000B1937F01A150AACF9111B0CFD601942FB5
:1032300050E302C05D9391509111FCCFC40ED11C9C
:1032400040E0ACCF01E0BACF80E3DBCF6217730779
:1032500031F4963388F4953311F4552369F0F6016F
:103260008083FD01842F90E2811108C0A40FB11D5D
:103270001C9290E080E002CF81E3F1CF91938150E6
:10328000F3CF911183CF8ACF283008F027E033277E
:10329000DA01990F311D87FD916000966105710576
:1032A00039F432602E5F3D9330E32A95E1F70895BB
:1032B0009F3F30F080387105610509F03C5F3C5F4D
:1032C0003D93913008F08068911DDF93CF931F9359
:1032D0000F93FF92EF92192F987F9695E92F96956D
:1032E0009695E90FFF27E45EFE4F99273327EE24DA
:1032F000FF24A701E70105900894079428F4360FEE
:10330000E71EF81E491F511D660F771F881F991F62
:103310000694A1F70590079428F4E70EF81E491FBC
:10332000561FC11D770F881F991F661F0694A1F7AE
:103330000590079428F4F80E491F561FC71FD11D8A
:10334000880F991F661F771F0694A1F705900794B1
:1033500020F4490F561FC71FD81F990F661F771FEC
:10336000881F0694A9F784911095177041F0D6959F
:10337000C79557954795F794E7941A95C1F7E2ECEE
:10338000F0E06894159015913591659195910590AF
:103390007FE27395E118F10A430B560BC90BD00974
:1033A000C0F7E10CF11E431F561FC91FD01D7EF44C
:1033B000703311F48A95E6CFE894015030F0080F8D
:1033C0000AF40027021708F4202F2395022F7A33DE
:1033D00028F079E37D932A95E9F710C07D932A952B
:1033E00089F6069497956795379517951794E11880
:1033F000F10A430B560BC90BD00998F023957E9127
:1034000073957A3308F070E37C932013B8F77E91BC
:1034100070617D9330F0839571E37D9370E32A951D
:10342000E1F71124EF90FF900F911F91CF91DF9161
:10343000992787FD90950895E89409C097FB3EF47D
:1034400090958095709561957F4F8F4F9F4F9923F1
:10345000A9F0F92F96E9BB279395F695879577956F
:103460006795B795F111F8CFFAF4BB0F11F460FF2F
:103470001BC06F5F7F4F8F4F9F4F16C0882311F087
:1034800096E911C0772321F09EE8872F762F05C09B
:10349000662371F096E8862F70E060E02AF09A9536
:1034A000660F771F881FDAF7880F9695879597F92B
:1034B00008950E946C1A0C94DD1A0E94CF1A38F0FD
:1034C0000E94D61A20F0952311F00C94C61A0C9481
:1034D000CC1A11240C94111B0E94EE1A70F3959FC4
:1034E000C1F3950F50E0551F629FF001729FBB27FB
:1034F000F00DB11D639FAA27F00DB11DAA1F649F97
:103500006627B00DA11D661F829F2227B00DA11D49
:10351000621F739FB00DA11D621F839FA00D611DCF
:10352000221F749F3327A00D611D231F849F600DF0
:10353000211D822F762F6A2F11249F5750409AF019
:10354000F1F088234AF0EE0FFF1FBB1F661F771FA5
:10355000881F91505040A9F79E3F510580F00C9470
:10356000C61A0C94111B5F3FE4F3983ED4F3869582
:1035700077956795B795F795E7959F5FC1F7FE2B10
:10358000880F911D9695879597F9089597F99F67EC
:1035900080E870E060E008959FEF80EC08950024DB
:1035A0000A941616170618060906089500240A94A8
:1035B00012161306140605060895092E0394000C2E
:1035C00011F4882352F0BB0F40F4BF2B11F460FFBD
:1035D00004C06F5F7F4F8F4F9F4F089557FD9058E6
:1035E000440F551F59F05F3F71F04795880F97FBC7
:1035F000991F61F09F3F79F0879508951216130681
:103600001406551FF2CF4695F1DF08C016161706AF
:103610001806991FF1CF86957105610508940895E4
:10362000E894BB2766277727CB0197F908952F9257
:103630003F924F925F926F927F928F929F92AF9242
:10364000BF92CF92DF92EF92FF920F931F93CF938F
:10365000DF93CDB7DEB7CA1BDB0B0FB6F894DEBF26
:103660000FBECDBF09942A88398848885F846E844C
:103670007D848C849B84AA84B984C884DF80EE8096
:10368000FD800C811B81AA81B981CE0FD11D0FB69F
:10369000F894DEBF0FBECDBFED010895AA1BBB1B82
:1036A00051E107C0AA1FBB1FA617B70710F0A61B42
:1036B000B70B881F991F5A95A9F780959095BC0163
:1036C000CD010895EE0FFF1F0590F491E02D0994B0
:1036D0005058BB27AA270E94801B0C94DD1A0E9419
:1036E000CF1A38F00E94D61A20F039F49F3F19F40F
:1036F00026F40C94CC1A0EF4E095E7FB0C94C61A51
:10370000E92F0E94EE1A58F3BA176207730784076D
:10371000950720F079F4A6F50C94101B0EF4E095B3
:103720000B2EBA2FA02D0B01B90190010C01CA017B
:10373000A0011124FF27591B99F0593F50F4503E26
:1037400068F11A16F040A22F232F342F4427585F18
:10375000F3CF469537952795A795F0405395C9F730
:103760007EF41F16BA0B620B730B840BBAF09150E8
:10377000A1F0FF0FBB1F661F771F881FC2F70EC087
:10378000BA0F621F731F841F48F48795779567955A
:10379000B795F7959E3F08F0B0CF9395880F08F046
:1037A0009927EE0F9795879508950E94E91B0C9431
:1037B000DD1A0E94D61A58F00E94CF1A40F029F460
:1037C0005F3F29F00C94C61A51110C94111B0C94F4
:1037D000CC1A0E94EE1A68F39923B1F3552391F3A2
:1037E000951B550BBB27AA2762177307840738F070
:1037F0009F5F5F4F220F331F441FAA1FA9F335D0CD
:103800000E2E3AF0E0E832D091505040E695001C80
:10381000CAF72BD0FE2F29D0660F771F881FBB1F3A
:10382000261737074807AB07B0E809F0BB0B802D18
:10383000BF01FF2793585F4F3AF09E3F510578F044
:103840000C94C61A0C94111B5F3FE4F3983ED4F31A
:10385000869577956795B795F7959F5FC9F7880F18
:10386000911D9695879597F90895E1E0660F771F6A
:10387000881FBB1F621773078407BA0720F0621BFB
:10388000730B840BBA0BEE1F88F7E095089516F0C2
:103890000C94971C0C94CC1A68940C94C61A0E9431
:1038A000F61AA8F39923C1F3AEF3DF93CF931F93D6
:1038B0000F93FF92C92FDD2788232AF02197660FE7
:1038C000771F881FDAF720E030E040E85FEB9FE3E6
:1038D000883920F0803E38F021968F770E94691B4E
:1038E000E8E6F0E004C00E94691BE5E9F0E00E9410
:1038F000A51C8B01BE01EC01FB2E6F57710975955C
:10390000771F880B990B0E941E1A28E132E741E3CA
:103910005FE30E946C1AAF2D9801AE01FF900F91EA
:103920001F91CF91DF910E94801B0C94DD1A9F3F65
:1039300031F0915020F4879577956795B795880F6A
:10394000911D9695879597F90895DF93CF931F93CF
:103950000F93FF92EF92DF927B018C01689406C077
:10396000DA2EEF010E946C1AFE01E894A5912591D0
:10397000359145915591A6F3EF010E94801BFE0100
:103980009701A801DA9469F7DF90EF90FF900F910B
:103990001F91CF91DF910895DC0101C06D934150DB
:1039A0005040E0F70895EF92FF920F931F93CF934B
:1039B000DF93FB01238121FF19C0EB018C01F12C66
:1039C000E12CF80181918F01811106C0C701CDB7AB
:1039D000DEB7E6E00C943F1BE885F985BE0109954A
:1039E000892B79F3EE24EA94FE2CEBCFEE24EA94B3
:1039F000FE2CECCFAEE0B0E0E0E0FDE10C94251B46
:103A00000D891E898F89988D26E02C831A8309835E
:103A100097FF02C080E090E801979E838D83AE01FE
:103A2000455E5F4F698D7A8DCE0101960E942A1DF9
:103A30004D815E8157FD0AC02F813885421753079B
:103A40000CF49A01020F131FF80110822E96E4E085
:103A50000C94411BABE0B0E0E0E3FDE10C94171BDC
:103A60007C013B018A01FC0117821682838181FF60
:103A7000C8C1CE0101965C01F7019381F30193FD6A
:103A8000859193FF81913F01882309F453C18532C9
:103A900039F493FD859193FF81913F01853229F49B
:103AA000B70190E00E941A1FE7CF912C212C312CF6
:103AB000FFE1F31538F08B3211F190F4803209F107
:103AC000833229F137FC3CC020ED280F2A3050F515
:103AD00036FE20C08AE0989E200D1124922E06C04A
:103AE0008D3291F0803371F7689430F8F30193FDD3
:103AF000859193FF81913F018111DACF21C06894B4
:103B000031F8689432F8F2CF689433F8EFCF6894C4
:103B100034F8ECCFEAE02E9E200D1124222E68947A
:103B200035F8E4CF8E3229F436FC04C1689436F8B7
:103B3000DDCF8C3619F4689437F8D8CF8836B1F2D7
:103B4000982F9F7D95549330E0F08336A1F1833711
:103B5000C1F1833509F063C02801F2E04F0E511C1A
:103B6000F801C080D180692D70E036FC02C06FEF93
:103B70007FEFC6010E94041F4C01689437F8820150
:103B80000AC00C5F1F4FFFE3F98388248394912CB4
:103B90006501E89437F833FE2DC0522C811491044E
:103BA00071F5552009F468CFB70180E290E00E94DA
:103BB0001A1F5A94F6CFF801808189830E5F1F4F38
:103BC000E4CF2801F2E04F0E511CF801C080D180F3
:103BD000692D70E036FC02C06FEF7FEFC6010E94D6
:103BE0000F1F4C018201D5CFB70180E290E00E9407
:103BF0001A1F2A942814190409F0B0F7CECFF60141
:103C000037FC859137FE81916F01B70190E00E94EA
:103C10001A1F51105A94F1E08F1A9108BFCF8436C1
:103C200019F0893609F077C0F80137FE6BC0608162
:103C30007181828193810C5F1F4FF32DFF763F2EA0
:103C400097FF09C090958095709561957F4F8F4F34
:103C50009F4F689437F82AE030E0A5010E944A1F80
:103C6000C82ECA188C2C432C36FE0CC0E89440F8A1
:103C7000C91440F434FE05C032FC03C0F32DFE7EAF
:103C80004F2E892C44FE95C0FE01EC0DF11D808164
:103C9000803309F087C0242D297E422E842D887020
:103CA000582E43FC95C040FE8FC09C2C821418F403
:103CB0002C0C922C981844FE91C0B70180E390E040
:103CC0000E941A1F42FE09C088E790E041FE02C030
:103CD00088E590E0B7010E941A1FC91408F48AC051
:103CE000CA94D12C9FEFC91AD90ACA0CDB1CF60161
:103CF00082916F01B70190E00E941A1FAC14BD04BD
:103D0000B1F74FCF60817181072E000C880B990BA2
:103D10000E5F1F4F92CFD32CE894D4F82AE030E006
:103D2000853739F1232D297FD22E8F3601F148F4C2
:103D30008835A9F0F701868197812B96E2E10C94F2
:103D4000331B803749F08837A9F7D4FE02C0689446
:103D5000D2F820E130E00DC06894D4F8F6CF34FEFC
:103D600003C0822F8660D82E20E132E002C028E016
:103D700030E0F801D7FE0FC06081718182819381AC
:103D80000C5F1F4FA5010E944A1FC82ECA183D2C68
:103D9000E89437F867CF6081718190E080E00E5F32
:103DA0001F4FF0CF42FC02C0839478CF839483945A
:103DB00075CF842D867809F471CFF6CFB70180E2F4
:103DC00090E00E941A1F83948214C0F3512C73CF89
:103DD000522C5818821408F46ECFF8CF842D8678B0
:103DE00009F47BCF8BE241FE80E247FC8DE2B70114
:103DF00090E071CFB70180E390E00E941A1F9A947F
:103E00006CCF8FEF9FEF99CFFC0105906150704010
:103E10000110D8F7809590958E0F9F1F0895FC0193
:103E20006150704001900110D8F7809590958E0FE9
:103E30009F1F08950F931F93CF93DF93182F092F80
:103E4000EB018B8181FD09C01FEF0FEF812F902FB8
:103E5000DF91CF911F910F91089582FF14C02E81A1
:103E60003F818C819D81281739073CF4E881F981D5
:103E7000CF0101969983888310838E819F8101965B
:103E80009F838E83E3CFE885F985812F0995892B60
:103E9000A1F3DACFFA01AA27283051F1203181F1BC
:103EA000E8946F936E7F6E5F7F4F8F4F9F4FAF4F42
:103EB000B1E03ED0B4E03CD0670F781F891F9A1F55
:103EC000A11D680F791F8A1F911DA11D6A0F711D09
:103ED000811D911DA11D20D009F468943F912AE015
:103EE000269F11243019305D3193DEF6CF010895FD
:103EF000462F4770405D4193B3E00FD0C9F7F6CF2E
:103F0000462F4F70405D4A3318F0495D31FD4052F5
:103F1000419302D0A9F7EACFB4E0A695979587958B
:103F200077956795BA95C9F700976105710508956A
:103F30009B01AC010A2E0694579547953795279516
:103F4000BA95C9F7620F731F841F951FA01D0895AE
:043F5000F894FFCF13
:103F5400FF00000000030B01020408102040800051
:103F6400000000000560048D044D05BE049C04B0EF
:103F740004000000003F0E120EF90EE80D0B0EF8BF
:103F84000DE90D000000006D08600AE107FF061A44
:103F94000AEF0680090E096D05190FD5100B0D20C7
:103FA40010000000006E0E6004F90EF80E0D0A00F9
:103FB4005B4552524F525D5B51774772427566665C
:103FC40065724465766963655D2052656E646572E9
:103FD40020636C617373206D75737420696D706CEC
:103FE400656D656E7420647261775F706978656C65
:103FF400206D6574686F640A0054656D703A00251D
:10400400732046005461726765743A00256920463E
:10401400004F4C4544206661696C656400636C65BF
:104024006172696E6774686573637265656E0000BA
:00000001FF
