:100000000C948A030C94B2030C94B2030C94B203C4
:100010000C94B2030C94B2030C94B2030C94B2157A
:100020000C94B2030C94B2030C94B2030C94B2037C
:100030000C94B2030C94B2030C94B2030C94B2036C
:100040000C9468150C94B2030C9434160C940E1690
:100050000C94B2030C94B2030C94B2030C94B2034C
:100060000C9466160C94B20308000000BE9224495A
:10007000123EABAAAA2ABECDCCCC4C3E00000080DA
:10008000BEABAAAAAA3E00000000BF000000803F4D
:100090000000000000084178D3BB4387D1133D190D
:1000A0000E3CC3BD4282AD2B3E68EC8276BED98F3A
:1000B000E1A93E4C80EFFFBE01C4FF7F3F0000007E
:1000C000000000407A10F35A00A0724E1809001088
:1000D000A5D4E80000E87648170000E40B540200BD
:1000E00000CA9A3B000000E1F505000080969800E8
:1000F000000040420F000000A08601000000102711
:1001000000000000E80300000000640000000000A0
:100110000A00000000000100000000002C76D888D2
:10012000DC674F0823DFC1DFAE59E1B1B796E5E3E5
:10013000E453C63AE651997696E8E6C28426EB89FE
:100140008C9B62ED407C6FFCEFBC9C9F40F2BAA59B
:100150006FA5F490055A2AF75C936B6CF9676DC133
:100160001BFCE0E40D47FEF520E6B500D0ED902E37
:100170000300943577050080841E080000204E0A95
:10018000000000C80C333333330F986E12831141D3
:10019000EF8D2114893BE65516CFFEE6DB18D1849E
:1001A0004B381BF77C1D901DA4BBE42420328472C5
:1001B0005E228100C9F124ECA1E53D27000000008A
:1001C000003E5B4F5B3E3E6B4F6B3E1C3E7C3E1CDD
:1001D000183C7E3C181C577D571C1C5E7F5E1C0023
:1001E000183C1800FFE7C3E7FF0018241800FFE7DA
:1001F000DBE7FF30483A060E2629792926407F059D
:100200000507407F05253F5A3CE73C5A7F3E1C1CB2
:1002100008081C1C3E7F14227F22145F5F005F5F72
:1002200006097F017F006689956A6060606060945E
:10023000A2FFA29408047E040810207E2010080863
:100240002A1C08081C2A08081E101010100C1E0C6E
:100250001E0C30383E3830060E3E0E060000000000
:100260000000005F00000007000700147F147F14E7
:10027000242A7F2A1223130864623649562050002C
:1002800008070300001C2241000041221C002A1C18
:100290007F1C2A08083E0808008070300008080803
:1002A0000808000060600020100804023E51494523
:1002B0003E00427F400072494949462141494D3341
:1002C0001814127F1027454545393C4A49493141A8
:1002D000211109073649494936464949291E000076
:1002E00014000000403400000008142241141414CB
:1002F0001414004122140802015909063E415D59B7
:100300004E7C1211127C7F494949363E41414122BF
:100310007F4141413E7F494949417F090909013EE9
:10032000414151737F0808087F00417F4100204010
:10033000413F017F081422417F404040407F021C22
:10034000027F7F0408107F3E4141413E7F09090939
:10035000063E4151215E7F09192946264949493205
:1003600003017F01033F4040403F1F2040201F3FCB
:100370004038403F63140814630304780403615950
:10038000494D43007F414141020408102000414192
:10039000417F04020102044040404040000307083E
:1003A0000020545478407F2844443838444444283A
:1003B000384444287F385454541800087E090218E1
:1003C000A4A49C787F0804047800447D4000204069
:1003D000403D007F1028440000417F40007C0478AD
:1003E00004787C080404783844444438FC182424F5
:1003F0001818242418FC7C08040408485454542475
:1004000004043F44243C4040207C1C2040201C3CF1
:100410004030403C44281028444C9090907C4464E8
:10042000544C44000836410000007700000041367B
:10043000080002010204023C2623263C1EA1A16101
:10044000123A4040207A3854545559215555794133
:100450002154547841215554784020545579400C0A
:100460001E527212395555555939545454593955EB
:100470005454580000457C410002457D420001452E
:100480007C40F0292429F0F0282528F07C5455459B
:10049000002054547C547C0A097F4932494949322E
:1004A0003248484832324A4848303A4141217A3A43
:1004B00042402078009DA0A07D39444444393D400D
:1004C00040403D3C24FF2424487E4943662B2FFCBA
:1004D0002F2BFF0929F620C0887E09032054547968
:1004E000410000447D413048484A32384040227A39
:1004F000007A0A0A727D0D19317D2629292F2826B6
:100500002929292630484D402038080808080808BD
:100510000808382F10C8ACBA2F102834FA00007B16
:10052000000008142A142222142A1408AA005500D4
:10053000AAAA55AA55AA000000FF00101010FF003B
:10054000141414FF001010FF00FF1010F010F0142E
:100550001414FC001414F700FF0000FF00FF141433
:10056000F404FC141417101F10101F101F1414147F
:100570001F00101010F0000000001F101010101FBE
:1005800010101010F010000000FF101010101010CC
:10059000101010FF10000000FF140000FF00FF000B
:1005A000001F10170000FC04F41414171017141483
:1005B000F404F40000FF00F714141414141414F7D6
:1005C00000F7141414171410101F101F141414F42F
:1005D000141010F010F000001F101F0000001F1476
:1005E000000000FC140000F010F01010FF10FF14C9
:1005F0001414FF141010101F00000000F010FFFF73
:10060000FFFFFFF0F0F0F0F0FFFFFF000000000040
:10061000FFFF0F0F0F0F0F38444438447C2A2A3E47
:10062000147E02020606027E027E02635549416381
:100630003844443C04407E201E2006027E0202997B
:10064000A5E7A5991C2A492A1C4C7201724C304A14
:100650004D4D303048784830BC625A463D3E49499D
:1006600049007E0101017E2A2A2A2A2A44445F4445
:100670004440514A444040444A51400000FF010375
:10068000E080FF000008086B6B083612362436063F
:100690000F090F060000181800000010100030406D
:1006A000FF0101001F01011E00191D1712003C3C33
:1006B0003C3C000000000000000000240027002A4D
:1006C00000000000002300260029000000000800B0
:1006D0000201000003040700000000000000000108
:1006E00002040810204080010204081020010204C6
:1006F00008102000000000250028002B000404043E
:1007000004040404040202020202020303030303BA
:100710000302851711241FBECFEFD8E0DEBFCDBF87
:1007200026E0ACE0B2E001C01D92A034B207E1F7D0
:1007300012E0A0E0B1E0E2ECF2E502C005900D921B
:10074000AC30B107D9F713E0CAE8D3E004C0219771
:10075000FE010E94D924C938D107C9F70E94641844
:100760000C945F290C940000FC01942F909540811B
:10077000492340830895FC019081492B40830895CB
:10078000833081F028F4813099F08230A9F0089507
:100790008730A9F08830C9F08430B1F480918000AE
:1007A0008F7D03C0809180008F77809380000895B3
:1007B00084B58F7784BD089584B58F7DFBCF8091FC
:1007C000B0008F778093B00008958091B0008F7D46
:1007D000F9CFCF93DF93282F30E0F901E553F94F9C
:1007E0008491F901E152F94FD491F901E350F94FA5
:1007F000C491CC23A1F081110E94C003EC2FF0E042
:10080000EE0FFF1FEF53F94FA591B491EC91ED233B
:1008100081E090E009F480E0DF91CF91089580E0DD
:1008200090E0FACF1F93CF93DF93282F30E0F901A8
:10083000E553F94F8491F901E152F94FD491F9014F
:10084000E350F94FC491CC23A9F0162F81110E94D7
:10085000C003EC2FF0E0EE0FFF1FED50F94FA59114
:10086000B4918FB7F894EC91111108C0D095DE23A4
:10087000DC938FBFDF91CF911F910895DE2BF8CFCE
:10088000CF93DF9390E0FC01E152F94F2491835024
:10089000994FFC0184918823D1F090E0880F991F33
:1008A000FC01E954F94FA591B491FC01ED50F94FC9
:1008B000C591D491623071F49FB7F8943C91822F26
:1008C000809583238C93E8812E2B28839FBFDF9113
:1008D000CF9108958FB7F894EC912E2B2C938FBF66
:1008E000F6CFCF93DF93EC0161E089E00E944004F2
:1008F000209731F460E089E0DF91CF910C941204ED
:10090000CF3FD10511F461E0F6CFE4EDF6E0E491DC
:10091000E33029F140F4E130B1F0E230D9F0C038F1
:10092000D1058CF7E7CFE73021F1E83051F1E43021
:10093000B1F780918000806280938000D0938B001B
:10094000C0938A0004C084B5806884BDC7BDDF91B0
:10095000CF91089584B5806284BDC8BDF8CF8091E1
:100960008000806880938000D0938900C0938800C5
:10097000EECF8091B00080688093B000C093B30048
:10098000E6CF8091B00080628093B000C093B40045
:10099000DECF3FB7F8948091C6029091C702A09134
:1009A000C802B091C90226B5A89B05C02F3F19F017
:1009B0000196A11DB11D3FBFBA2FA92F982F8827DF
:1009C000BC01CD01620F711D811D911D42E0660FBA
:1009D000771F881F991F4A95D1F708958F929F928C
:1009E000AF92BF92CF92DF92EF92FF926B017C01A8
:1009F0000E94C9044B015C01C114D104E104F1045B
:100A0000B9F00E94C904681979098A099B09683EEE
:100A100073408105910580F321E0C21AD108E108F5
:100A2000F10888EE880E83E0981EA11CB11CE4CF6B
:100A3000FF90EF90DF90CF90BF90AF909F908F90FE
:100A400008952FB7F8946091C2027091C30280910B
:100A5000C4029091C5022FBF089508950895909102
:100A6000050189130BC0E1E1F7E0E4919FEF90935A
:100A70000501E13049F028F0E23061F060E00C94CB
:100A8000120410926E00FACF90916F009D7F9093A8
:100A90006F00F4CF909170009D7F9093700091E073
:100AA0009093B0009091B100987F94609093B100C2
:100AB0001092B300E3CF8F929F92AF92BF92CF92EA
:100AC000DF92EF92FF920F931F93CF936C018B01F4
:100AD0008091DB059091DC058F3F980719F061E06C
:100AE0000E9412048091D9059091DA0520910501A8
:100AF0002817C1F12F3F09F4ACC0B801012E000C3A
:100B0000880B990B0E94EE048091DB059091DC0527
:100B10008F3F980719F060E00E9412048091D90578
:100B20000E942F052091DD053091DE05029FC00156
:100B3000039F900D129F900D112464E670E00E94B7
:100B40008424072E000C880B990BCF911F910F91D5
:100B5000FF90EF90DF90CF90BF90AF909F908F90DD
:100B60000C94EE04E1E1F7E0C491C7FDC6CF61E06B
:100B70000E944004CC2319F0C23009F0E3C00D2CD0
:100B8000000CEE08FF0860E072E18AE790E0A70140
:100B900096010E94BA2449015A0168E478EE81E086
:100BA00090E0A70196010E94BA2421503109410921
:100BB0005109CC2309F42CC1C23009F027C184E0CB
:100BC0002F3F310541055105A9F1A4F164E274EF0D
:100BD00080E090E0A70196010E94BA2421503109DB
:100BE0004109510985E02F3F31054105510511F1BA
:100BF00008F162E17AE780E090E0A70196010E94A7
:100C0000BA24215031094109510986E02F3F3105AD
:100C10004105510579F074F09AE0B594A794979442
:100C200087949A95D1F7A501940121503109410982
:100C3000510987E09091B100987F892B8093B10092
:100C4000C13009F4ACC0C23009F4BEC0C11155CFE7
:100C5000FDC080930501E1E1F7E0C491CF3F09F4C5
:100C60004CCFC13039F148F0C23009F445C0C7FD5E
:100C700044CF61E00E9440047FCF14BC15BC24B572
:100C8000226024BD25B5216025BD9C013327F901D3
:100C9000E350F94FE491F0E0EE0FFF1FED50F94FF4
:100CA00045915491F901E152F94FE491E093CE025C
:100CB000C0E05DCF109280001092810020918100F1
:100CC0002860209381002091810021602093810081
:100CD0009C013327F901E350F94FE491F0E0EE0F66
:100CE000FF1FED50F94F45915491F901E152F94F31
:100CF000E491E093CD023BCF1092B0001092B1008E
:100D00002091B00022602093B0002091B1002160BA
:100D10002093B1009C013327F901E350F94FE4918E
:100D2000F0E0EE0FFF1FED50F94F459154915093B5
:100D3000CC024093CB02F901E152F94FE491E093E8
:100D4000CA0215CF0D2C000CEE08FF0860E072E11E
:100D50008AE790E0A70196010E94BA242150310948
:100D60004109510991E02115310581E048075105FC
:100D70006CF068E478EE81E090E0A70196010E94B3
:100D8000BA24215031094109510993E0C13009F0D9
:100D900057CF80918100887F892B80938100309389
:100DA0008900209388008FEF9FEFDC018093D302AE
:100DB0009093D402A093D502B093D60280916F0095
:100DC000826080936F0099CE2093B3008FEF9FEFE6
:100DD000DC018093CF029093D002A093D102B09314
:100DE000D2028091700082608093700086CE8AE08B
:100DF000B594A794979487948A95D1F7A501940107
:100E0000215031094109510995E01CC084E0EBCE25
:100E100093E02F3F310541055105A1F09CF062E1BF
:100E20007AE780E090E0A70196010E94BA24215061
:100E30003109410951092F3F31054105510509F09B
:100E4000B4F694E085B5887F892B85BD27BD8FEFEB
:100E50009FEFDC018093D7029093D802A093D90230
:100E6000B093DA0280916E00826080936E0045CE6E
:100E7000AF92BF92CF92DF92EF92FF920F931F93A8
:100E8000CF93DF936C017B018B01040F151FEB01E6
:100E90005E01AE18BF08C017D10759F06991D6019D
:100EA000ED91FC910190F081E02DC6010995892B0F
:100EB00079F7C501DF91CF911F910F91FF90EF90CE
:100EC000DF90CF90BF90AF900895FC01538D448D7B
:100ED000252F30E0842F90E0821B930B541710F0E5
:100EE000CF96089501970895FC01918D828D9817F2
:100EF00061F0A28DAE0FBF2FB11D5D968C91928DCA
:100F00009F5F9F73928F90E008958FEF9FEF0895FA
:100F1000FC01918D828D981731F0828DE80FF11DC3
:100F2000858D90E008958FEF9FEF0895FC01918DDE
:100F3000228D892F90E0805C9F4F821B91098F73D7
:100F4000992708958BE293E00E94960721E0892B70
:100F500009F420E0822F089580E090E0892B29F0A9
:100F60000E94A20781110C9400000895FC01A48D39
:100F7000A80FB92FB11DA35ABF4F2C91848D90E0BB
:100F800001968F739927848FA689B7892C93A0899E
:100F9000B1898C91837080648C93938D848D981328
:100FA00006C00288F389E02D80818F7D80830895BB
:100FB000EF92FF920F931F93CF93DF93EC0181E0A9
:100FC000888F9B8D8C8D98131AC0E889F989808150
:100FD00085FF15C09FB7F894EE89FF896083E88983
:100FE000F98980818370806480839FBF81E090E075
:100FF000DF91CF911F910F91FF90EF900895F62E02
:101000000B8D10E00F5F1F4F0F731127E02E8C8D9B
:101010008E110CC00FB607FCFACFE889F9898081E0
:1010200085FFF5CFCE010E94B607F1CFEB8DEC0F17
:10103000FD2FF11DE35AFF4FF0829FB7F8940B8FFD
:10104000EA89FB8980818062CFCFCF93DF93EC0167
:10105000888D8823B9F0AA89BB89E889F9898C91A0
:1010600085FD03C0808186FD0DC00FB607FCF7CF5C
:101070008C9185FFF2CF808185FFEDCFCE010E945C
:10108000B607E9CFDF91CF9108952F923F924F920B
:101090005F926F927F928F929F92AF92BF92CF9208
:1010A000DF92EF92FF920F931F93CF93DF93CDB711
:1010B000DEB76A970FB6F894DEBF0FBECDBF4C0106
:1010C000D42EF886EF82662E712CDC011696ED91F7
:1010D000FC9117976E167F0608F040C118964D9147
:1010E0005C918D2D90E08417950708F037C1CC20D6
:1010F00009F434C1AA2009F431C1D301A20FB11DF2
:10110000EA17FB0710F42E2F261B122FC21608F425
:101110001C2D800F911D4817590710F4042F0D192D
:10112000A01608F40A2D8FEF8D0D080F902F9695BD
:1011300096959695F401EA59FF4F0190F081E02DC4
:10114000EE0FFF1FE853FC4F20813181388B2F8732
:101150008D2D869586958695282E312CA101440FDC
:10116000551F440F551F480D591D5A8F498F412C4B
:10117000692F70E07B8B6A8B802F90E09D8B8C8B2E
:1011800007700E8BAC2DB0E0B88FAF8BF301E10F81
:10119000F11DFA87E9872A893B89221533050CF46A
:1011A000DDC02D2D2770422F50E05A8349838D2DAD
:1011B00090E00896841B950B6C897D8968177907E8
:1011C0000CF0A6C08E8947E050E0481B5109AFEFF4
:1011D000B0E002C0B595A7954A95E2F7022E01C08E
:1011E000AA0F0A94EAF7A98B55245394521A580E61
:1011F000942D9770E92FF0E0FC83EB830FEF090F3C
:10120000050D28E030E02E1B3F0B87E05216130639
:101210000CF4802F27E030E0281B31094FEF50E01D
:1012200002C0559547952A95E2F701C0440F9A955B
:10123000EAF74B87081B68E070E0601B71097E834A
:101240006D838FEF90E00D8002C0959587950A948D
:10125000E2F78E87E42CE694E694E694EC9C700129
:1012600011248F89988D8E0D9F1D9D878C87AF814E
:10127000B885EA0EFB1EB12CA12CA11608F04AC0BD
:10128000F70161917F01FB856F23262F30E00B80F2
:1012900002C0359527950A94E2F7622F0023A1F04A
:1012A000EC85FD85EA0DFB1D4F815885E40FF51F88
:1012B00080815E858523682F70E00D8002C0660FF7
:1012C000771F0A94E2F7622B70E0098002C0660F74
:1012D000771F0A94E2F7D40116962D913C91179747
:1012E000229EC001239E900D329E900D1124860DEA
:1012F000971D8A0D9B1D91962D913C914989820FD6
:10130000931FEF85F8890995FFEFAF1ABF0AB5CF94
:1013100087E059CFD50C450CA98DBA8D94968D9147
:101320009C9195976816790624F495967C926E9216
:101330009497E98DFA8D86A197A129853A85821720
:10134000930714F437A326A33FEF231A330A498DDA
:101350005A8D4C5F5F4F5A8F498F1DCF6A960FB6DB
:10136000F894DEBF0FBECDBFDF91CF911F910F91DB
:10137000FF90EF90DF90CF90BF90AF909F908F90B5
:101380007F906F905F904F903F902F900895EF92D5
:101390000F930150040F2150260FDC01ED91FC91B9
:1013A0000680F781E02D09950F91EF9008952F9217
:1013B0003F924F925F926F927F928F929F92AF92E5
:1013C000BF92CF92DF92EF92FF920F931F93CF9332
:1013D000DF93CDB7DEB729970FB6F894DEBF0FBE07
:1013E000CDBF4C01F42EFC01868197816817190648
:1013F00008F0A6C0041710F4F02E042FF401808525
:1014000091850817190610F00FEF080FAF2CA6945E
:10141000A694A694802F869586958695261718F40F
:10142000962F622F292FF401EA59FF4F0190F08186
:10143000E02DEE0FFF1FE853FC4F408151815A838E
:101440004983B12C6501CC0CDD1CCC0CDD1CC80C17
:10145000D91CE82FF0E0FC83EB83402F50E05E8343
:101460004D8307700F83862F90E099878887022F1E
:1014700010E0EB81FC81EA15FB050CF461C0FF2D47
:10148000F7703F2E8F2D90E008968F1B91092D81CC
:101490003E814F802817390714F087E0482E87E0F7
:1014A00090E0841991094FEF50E002C0559547959F
:1014B0008A95E2F7CA01032C01C0880F0A94EAF763
:1014C000282E582EE11001C0512C6884798406150D
:1014D0001705CCF0F40126813781A29EC001A39E9E
:1014E000900DB29E900D1124860D971D21A132A161
:1014F000422D652D820F931FE981FA810995FFEF37
:101500006F1A7F0AE4CF81E08319F80EF40CF6011C
:1015100084A195A1288539852817390714F435A3A6
:1015200024A3F60186A197A18017910714F417A3AD
:1015300006A3FFEFAF1ABF0A24E0C20ED11C99CF59
:1015400029960FB6F894DEBF0FBECDBFDF91CF91C5
:101550001F910F91FF90EF90DF90CF90BF90AF90D1
:101560009F908F907F906F905F904F903F902F90C3
:1015700008954F925F926F927F928F929F92AF9257
:10158000BF92CF92DF92EF92FF920F931F93CF9370
:10159000DF935C01FC01808591854817190608F0EE
:1015A00063C0261718F4862F622F282FF501868135
:1015B00097812817190610F02FEF280FE42FE770F6
:1015C000F0E0E45FFE4F5080F501EA59FF4F0190D3
:1015D000F081E02DEE0FFF1FE853FC4F608071801B
:1015E000C62ED12C469546954695C42FD0E0C89F6F
:1015F000A001C99F500DD89F500D11244C0D5D1DA9
:10160000F50181A192A1840F951F452CE11001C025
:10161000412C46017C01EC18FD08022F10E0C701A7
:10162000880D991D0815190544F0452D642DF30109
:101630000995FFEF8F1A9F0AF2CFCC0FDD1FCC0F59
:10164000DD1FF501EC0FFD1F84A195A1C816D90679
:1016500014F4D5A2C4A2CA0DDB1D8EA19FA18017D0
:10166000910714F41FA30EA3DF91CF911F910F9147
:10167000FF90EF90DF90CF90BF90AF909F908F90B2
:101680007F906F905F904F900895CF92DF92EF928E
:10169000FF920F931F93CF93DF938C01E62EF12CD3
:1016A000FC01A681B781EA16FB0608F049C08085D7
:1016B00091854817190608F043C0E42FE770F0E061
:1016C000E45FFE4F3081F801EA59FF4F0190F0814D
:1016D000E02DEE0FFF1FE853FC4FC080D180211199
:1016E000232F842F869586958695C82FD0E0CA9F94
:1016F000C001CB9F900DDA9F900D11248E0D9F1D80
:10170000F801A1A1B2A1432F622F8A0F9B1FF601FE
:101710000995CC0FDD1FCC0FDD1FF801EC0FFD1F6D
:1017200084A195A1E816F90614F4F5A2E4A2C00F6D
:10173000D11F8EA19FA18E159F0514F4FFA2EEA2CA
:10174000DF91CF911F910F91FF90EF90DF90CF909D
:101750000895FC018081942F909598236827462353
:10176000492B40830895FC01208191E0211190E0F4
:1017700092274923422740830895FC01808191E00C
:10178000611190E098274923482740830895FC0180
:10179000942F9095808198236423692B608308950A
:1017A0000F93DC011696ED91FC9117976E171F06AB
:1017B00058F41896ED91FC9119974E171F0620F4D6
:1017C0005C96ED91FC9109950F9108957F928F920F
:1017D0009F92AF92BF92CF92DF92EF92FF920F93C0
:1017E0001F93CF93DF936C01F62EB42EA02E11E041
:1017F000121B922E9194990CC22F022F040F421BA0
:10180000DC015096ED91FC91EA2C262F0995D0E051
:10181000DC170CF03FC017FD04C0C15093949394A3
:10182000190DDF5F8D2F880F8F5F180F6F2D6D0FD4
:10183000D6015096ED91FC91EA2C7C2E7B0C072D65
:10184000262F8B2C8C1A482DC60109956F2D6D1BE8
:10185000D6015096ED91FC91262F482DC601099591
:101860007B2C7D0E8B2C8D1AD6015096ED91FC9120
:10187000072D6C2F6F0D262F482DC6010995D60117
:101880005096ED91FC916F2D6C1B262F482DC601B3
:101890000995BECFDF91CF911F910F91FF90EF90EF
:1018A000DF90CF90BF90AF909F908F907F900895E2
:1018B0008F929F92AF92BF92CF92DF92EF92FF9260
:1018C0000F931F93CF93DF93EC01B62EC42E81E0CC
:1018D000A82EA21A922E9194990C122F422F4C0DE1
:1018E000EA85FB85202FCE0109954C2D411BEA8509
:1018F000FB85202F6B2DCE010995612F6B0DEA859D
:10190000FB85202F4C2DCE0109956B2D611BEA859F
:10191000FB85202F4C2DCE010995F12CF1160CF0F2
:1019200054C0A7FC04C0115093949394A90CF39451
:101930008F2D880F8F5FA80E8B2C8F0CEA85FB856F
:10194000202FE12EEC0C4E2D682DCE010995DB2CBD
:10195000DF18EA85FB85202F4E2D6D2DCE010995D0
:10196000EA85FB85202FEC2CE11A4E2D682DCE0147
:101970000995EA85FB85202F4E2D6D2DCE01099509
:10198000EC2CEF0CEA85FB85202F4E2DD12EDB0CA5
:101990006D2DCE010995EA85FB85202F4E2DEB2C70
:1019A000E11A6E2DCE0109958C2C8F18EA85FB85E6
:1019B000202F482D6D2DCE010995EA85FB85202F1E
:1019C000482D6E2DCE010995A9CFDF91CF911F91A2
:1019D0000F91FF90EF90DF90CF90BF90AF909F90CE
:1019E0008F900895BF92CF92DF92EF92FF920F9364
:1019F0001F93CF93DF936C01F62ED42F2150122F1B
:101A0000160F0150C02FC40FDC011E96ED91FC9102
:101A1000042F212F0995D6011E96ED91FC910C2FD4
:101A2000212F4C2F6F2DC60109952C2F2D1B330B09
:101A3000233031059CF0DF5FD6015096ED91FC918B
:101A40002F2D4D2F6F2DC6010995D6015096ED9182
:101A5000FC91212F4D2F612FC6010995DF91CF9168
:101A60001F910F91FF90EF90DF90CF90BF9008955E
:101A70008F929F92AF92BF92CF92DF92EF92FF929E
:101A80000F931F93CF93DF936C01B42EF22E261B7E
:101A9000330BC90137FF03C0919581959109182F28
:101AA000802F8B19990BEC0197FF03C0D195C1953D
:101AB000D1099C2E111116C0C11145C0D6011A962C
:101AC000ED91FC912E2D4B2DC601DF91CF911F91F1
:101AD0000F91FF90EF90DF90CF90BF90AF909F90CD
:101AE0008F900994A12E1C1740F0AC2EC12F802F8F
:101AF0000F2DF82E8B2DB62E682F0B1530F08F2D55
:101B0000F62E682F802F0B2DB82EDC2FD69588242B
:101B10008394F61610F088248A94B016B0F0D6019B
:101B20001A96ED91FC912E2D402F6F2D191510F066
:101B30004F2D602FC6010995DA19D7FF02C0F80CA6
:101B4000DC0F0F5FEACFA12CD8CFDF91CF911F918F
:101B50000F91FF90EF90DF90CF90BF90AF909F904C
:101B60008F900895FC01268D378D232B19F5209138
:101B7000780221111AC025E02093720228E02093F8
:101B80007302109274022FEF209375022BEF34E052
:101B900030937702209376022AE031E0309371028D
:101BA0002093700221E02093780220E732E0FC01CC
:101BB000378F268F08958CEB91E00895089508954E
:101BC000089520914D02260F3327331F213231050E
:101BD000ECF420910103FC0190E080E0243069F0F6
:101BE00082E00895A0914D022191AC01435D5D4FCB
:101BF000A40FB52FB11D2C930196861798F38091F1
:101C00004D02680F60934D0280E0089581E00895D1
:101C10001092010381E0809300031092DB0261E0E7
:101C200082E10E94120461E083E10E941204E9EB68
:101C3000F0E080818E7F808380818D7F808388E447
:101C40008093B80085E48093BC000895CF93DF9320
:101C500091E090932C028823B9F0C091B800D09104
:101C6000BA008091BC008A7B8093BC0060E082E176
:101C70000E94120460E083E10E9412040E94080E98
:101C8000D093BA00C093B800DF91CF9108958F929E
:101C90009F92AF92BF92CF92DF92EF92FF920F93FB
:101CA0001F93CF93DF93D0912A03D13208F0D7C08E
:101CB000182FC09129030E94C9046B017C018091F7
:101CC000010381116BC082E0809301031093000334
:101CD0008FEF8093FF021092FE02D093FD02A9E0E5
:101CE000B3E0EDEDF2E080E0D81391C01092DC0299
:101CF0008091DC02CC0FC82BC093DC028091DB0208
:101D0000813009F088C01092DB020E94C9046B0187
:101D10007C018091DC028093BB0080910303909151
:101D20000403A0910503B0910603892B8A2B8B2B0A
:101D3000A1F00E94C90400910303109104032091B3
:101D40000503309106036C197D098E099F0906175A
:101D500017072807390708F442C08091BC0083FDAB
:101D6000D8CF85EC8093BC000E94C9046B017C0134
:101D700080910103823009F450C08091FF028F3FAF
:101D800009F46FC08091FF02803209F46CC0809129
:101D9000FF02803309F469C084E026C08091030308
:101DA00090910403A0910503B0910603892B8A2B1F
:101DB0008B2B09F484CF0E94C90480900303909078
:101DC0000403A0900503B09006036C197D098E09E9
:101DD0009F0986169706A806B90608F070CF80916D
:101DE00002030E94260E85E01092080310922A0337
:101DF00010920703DF91CF911F910F91FF90EF9009
:101E0000DF90CF90BF90AF909F908F9008959D915D
:101E100091938F5F69CF85EEA5CF80910303909159
:101E20000403A0910503B0910603892B8A2B8B2B09
:101E300009F49ECF0E94C90400910303109104038A
:101E400020910503309106036C197D098E099F09C5
:101E5000061717072807390708F08ACFC0CF81E097
:101E6000C3CF80E0C1CF82E0BFCF83E0BDCF7F9200
:101E70008F929F92AF92BF92CF92DF92EF92FF929A
:101E80000F931F93CF93DF935C01962E842E7901DD
:101E9000C02FD12F772473942097A9F1F501808169
:101EA0009181709207039092290310920803109277
:101EB0002A03DC01ED91FC910190F081E02D682D69
:101EC00009956E01C032D10518F08FE1C82ED12CD2
:101ED000F50180819181DC01ED91FC910280F3811B
:101EE000E02DA601B7010995CC19DD09E80EF91E10
:101EF00081E0209709F080E00E94470E882361F27C
:101F00008FEF9FEF01C0C801DF91CF911F910F911B
:101F1000FF90EF90DF90CF90BF90AF909F908F9009
:101F20007F9008950F931F93CF93DF9300D0CDB789
:101F3000DEB769834A83FC01E659FF4F88599F4FFA
:101F400002E010E09E012F5F3F4F40E06081FC0106
:101F5000808191810E94370F0F900F90DF91CF9178
:101F60001F910F9108951F93CF93DF93162FFC01BC
:101F7000E859FF4FC081D18186599F4FDC012C91D8
:101F80008881998131E030930703209329031092CF
:101F9000080310922A03DC01ED91FC910190F0817D
:101FA000E02D60E0099588819981DC01ED91FC913B
:101FB0000190F081E02D612F099581E0DF91CF91B3
:101FC0001F910C94470E2F923F924F925F926F9207
:101FD0007F928F929F92AF92BF92CF92DF92EF92B9
:101FE000FF920F931F93CF93DF9300D000D01F92E7
:101FF000CDB7DEB77C0184969D838C83D12CC12C18
:10200000F701EC59FF4F5F018A5B9F4F9B838A83E7
:10201000170198E6290E311C90E8492E512C6624B0
:102020006A94762CF70183A18C151D0409F00CF439
:102030008DC0EC81FD818080918002811381F5014A
:102040009081992381F0EC81FD8120A131A1281597
:1020500039050CF44901EC81FD8122A133A102175D
:1020600013070CF48901F0E88F16910409F465C098
:1020700089826C2DC816F0F4F70186819781881645
:102080001906C0F4606BC7010E94B30FB40184E06D
:10209000759567958A95E1F76F7077276061F7010D
:1020A0008281680FC7010E94B30F69816F70C701F9
:1020B0000E94B30F0F5FF9810F1B10E0F7018681BB
:1020C0009781C89E9001C99E300DD89E300D112475
:1020D000820E931E21A132A1280D391D40E4EA8110
:1020E000FB816081F101808191810E94370FF501B0
:1020F0008081882331F0EC81FD8151A240A273A23E
:1021000062A2EC81FD818081918120A131A18217A1
:10211000930714F491A380A3EC81FD8182819381C4
:1021200022A133A12817390714F493A382A3EC81C9
:10213000FD815182408273826282FFEFCF1ADF0AF3
:102140008C819D8104969D838C836CCFF5011082D8
:102150000F900F900F900F900F90DF91CF911F91E4
:102160000F91FF90EF90DF90CF90BF90AF909F9036
:102170008F907F906F905F904F903F902F90089539
:102180000895E091850280918402E81730F4F0E030
:10219000E45FFD4F808190E008958FEF9FEF0895F9
:1021A00090918502809184022FEF3FEF981748F4B9
:1021B000E92FF0E0E45FFD4F208130E09F5F9093D6
:1021C0008502C90108958091840290918502891B3E
:1021D000990B0895CF92DF92EF92FF920F931F9386
:1021E000CF93DF937C01CB018A0120910703222347
:1021F00089F0EB016B01C40ED51ECC15DD0569F02D
:102200006991D701ED91FC910190F081E02DC7011A
:102210000995F3CF642F0E94E10DC801DF91CF91A2
:102220001F910F91FF90EF90DF90CF900895CF9383
:10223000DF931F92CDB7DEB7698320910703222376
:10224000F9F020912A03203258F021E030E0FC011F
:102250003383228390E080E00F90DF91CF91089547
:1022600080910803E82FF0E0E75FFC4F99819083AD
:102270008F5F8093080380932A0381E090E0ECCF86
:1022800061E0CE0101960E94E10DF7CF6F927F923F
:102290008F929F92AF92BF92CF92DF92EF92FF9276
:1022A0000F931F93CF93DF9300D0CDB7DEB77C01A0
:1022B000162F3C0184E0680E711CF70182A193A1E6
:1022C000892B19F4C3010E94B20DF701A2A0B3A09B
:1022D00090E080E0A114B10409F451C06701F9E075
:1022E000CF1AFEEFDF0AF60140811A3099F11D3056
:1022F000D1F11A82198219834701FAE08F1AFEEF91
:102300009F0AF701E850FE4F00819E012F5F3F4F6B
:10231000F4016081C3010E94D00BF40180818F5FC2
:10232000F5019281890FF4018083F5019281F70113
:1023300022853385291B310982171306A1F098F0F5
:10234000F4011082F6018081F5019381890FF60175
:10235000808309C0F701EA50FE4F1082F5018381A6
:10236000480FF6014083F6012081F70184859585A9
:102370002817190610F0F601108281E090E00F9006
:102380000F90DF91CF911F910F91FF90EF90DF9011
:10239000CF90BF90AF909F908F907F906F90089557
:1023A000089590E080E00895CF93DF93FC010190C1
:1023B0000020E9F73197AF01481B590BBC018BE2B4
:1023C00093E00E943807EC0142E050E062E671E0E1
:1023D0008BE293E00E9438078C0F9D1FDF91CF9115
:1023E00008952F923F924F925F926F927F928F92B9
:1023F0009F92AF92BF92CF92DF92EF92FF920F9394
:102400001F93CF93DF93CDB7DEB72F970FB6F89416
:10241000DEBF0FBECDBF7C01162F442E6901098798
:10242000DC015E96ED91FC91309709F4C8C021154E
:10243000310509F4C4C0D9010D900020E9F71197C6
:102440001D01221A330A09F4BAC0B381B695B695B4
:10245000B695BF87B11102C021E02F875524539450
:102460003F85313009F0512C26813781628170E03F
:10247000C9010E9470247B876A878F85829FA00193
:10248000839F500D11245C834B83A081B1812D91DA
:102490003C91CF01F90109959E838D834601252D3D
:1024A00030E03D872C87D4018D914D01D7015E9698
:1024B000ED91FC91082E000C990B2481821B91094F
:1024C00025812817190609F008F46BC06A857B85F9
:1024D0000E9470244281489F9001499F300D112431
:1024E000EB81FC816E9FC0016F9F900D7E9F900DD0
:1024F0001124A901480F591F58874F83042DB12C6F
:10250000A12C712E272D211BD7015E96ED91FC91F8
:102510003281822F90E04C855D85430F511D8417D9
:102520009507BCF5BF85B13011F4321781F12681D2
:102530003781A29EF001A39EF00DB29EF00D1124F2
:102540002F813885E20FF31FE80FF91F4D815E815F
:10255000E40FF51F54915E878CE091E09A838983A4
:10256000612CA981BA818D91BA83A983BE858B2301
:1025700051F0D7011A96ED91FC912985462D400F17
:10258000672DC70109956394B8E06B12EACF739485
:10259000B9CFEFEFAE1ABE0A085FFF85AF1608F499
:1025A000B0CFD7015E96ED91FC918281850D180F19
:1025B000C4018C199D09821593050CF474CF2F96D4
:1025C0000FB6F894DEBF0FBECDBFDF91CF911F9144
:1025D0000F91FF90EF90DF90CF90BF90AF909F90C2
:1025E0008F907F906F905F904F903F902F900895C5
:1025F0008F929F92AF92BF92DF92EF92FF920F93D2
:102600001F93CF93DF93FC0121A132A1232B09F467
:1026100060C0EC01D12C90E8892E912CAA24AA94B8
:10262000BA2C8BA1D81608F050C06D2D70E08B012C
:10263000000F111F000F111F7E01E00EF11EF701A8
:10264000EC5BFF4F80819181F70124A135A18217B6
:10265000930714F495A384A3FE01E00FF11FDF019B
:10266000AA5BBF4F8D919C9126A137A128173907EE
:1026700014F497A386A3F70124A135A120383105CE
:1026800011F10C0F1D1FF80146A157A1421B530B5E
:102690004F5F5F4FEE81FF816E9FC0016F9F900D76
:1026A0007E9F900D1124820F931F29A13AA170E003
:1026B00060E0820F931F0E948326F70195A284A2F7
:1026C000F801B7A2A6A2D394ACCFCC59DF4F81E0DA
:1026D0008883DF91CF911F910F91FF90EF90DF9052
:1026E000BF90AF909F908F90089585ED8093BC0030
:1026F0008091030390910403A0910503B091060318
:102700000796A11DB11D23E0B695A79597958795CE
:102710002A95D1F72091BC0024FD03C0109201033B
:102720000895409103035091040360910503709153
:102730000603452B462B472B69F30097A105B105EE
:1027400041F02AE22A95F1F700C00197A109B109E9
:10275000E1CF809102030C94260E2F923F924F926C
:102760005F926F927F928F929F92AF92BF92CF9221
:10277000DF92EF92FF920F931F93CF93DF93CDB72A
:10278000DEB7C058D1090FB6F894DEBF0FBECDBF7B
:102790009C0120593F4F29F0DC0192963C932E93E7
:1027A00091974C01BBE68B0E911C22E1F401208332
:1027B0005C01FCE6AF0EB11C21EFD5012C938C011E
:1027C00003591F4F20E4F80120832C01FFE64F0E30
:1027D000511CD2013C90311069C03C01B8E66B0E2F
:1027E000711CF30120813181232B09F45FC06C013E
:1027F000FAE6CF0ED11CD6012C91222309F456C043
:10280000FC0141A152A1452B09F450C07C012224B6
:102810002394209207032093290310920803109217
:102820002A0381E00E94470E811140C0D7015E96C5
:102830008D919C91892B11F580917802811119C09D
:1028400085E08093720288E0809373021092740294
:102850008FEF809375028BEF94E0909377028093D3
:1028600076028AE091E09093710280937002209248
:10287000780280E792E0F701978F868FD701ED917C
:10288000FC91119784E11A9601900D928A95E1F7D7
:10289000F70182859385805E9D4019F560913E0623
:1028A00070913F0685E691E00E948A26832DC058EC
:1028B000DF4F0FB6F894DEBF0FBECDBFDF91CF91D3
:1028C0001F910F91FF90EF90DF90CF90BF90AF904E
:1028D0009F908F907F906F905F904F903F902F9040
:1028E0000895D7011E968D919C918F5D9D4029F48E
:1028F000F7018485958597878687D70150968D91B6
:102900009C918F5D9D4029F4F70184859585918B7D
:10291000808BD70154968D919C918F5D9D4029F4B9
:10292000F70182899389958B848BD70158968D9175
:102930009C918E5D9D4029F4F70186899789918F3E
:10294000808F6EEAC7010E94B30F40E865EDC701B2
:102950000E94920FD70118964C91415068EAC70126
:102960000E94920F40E063EDC7010E94920F60E465
:10297000C7010E94B30F44E16DE8C7010E94920FA6
:1029800042E060E2C7010E94920F66EAC7010E941E
:10299000B30F64EAC7010E94B30F61EAC7010E9446
:1029A000B30F68ECC7010E94B30FF40140816AEDD8
:1029B000C7010E94920FF701E259FF4F408161E881
:1029C000C7010E94920FD5014C9169EDC7010E9489
:1029D000920FF80140816BEDC7010E94920F6EE2E9
:1029E000C7010E94B30F6FEAC7010E94B30FD7015E
:1029F00018962D913C91199783E0369527958A95E5
:102A0000E1F793962C93939791968D919C91929741
:102A1000009761F016966D917C91269FA001279FEB
:102A2000500D112470E060E00E948326F70123A17D
:102A300030E0B49690E080E060E870E04FEF5FEF48
:102A4000821793075CF4718360835383428371A37D
:102A500060A353A342A301963496F2CFF701EC5939
:102A6000FF4F1082CE0101965C0180E8D5011D92D6
:102A70008A95E9F7912CF70183A19816A0F4868135
:102A80009781892B81F0692D606BC7010E94B30F7C
:102A9000D70112966C91605FC7010E94B30F60E08E
:102AA000C7010E94B30F00E810E0950140E4F60171
:102AB0006081D3018D919C910E94370F9394B8E06F
:102AC0009B12D9CF81E0F201808333243394EECE80
:102AD0001F920F920FB60F9211242F933F938F9353
:102AE0009F93AF93BF938091C2029091C302A09134
:102AF000C402B091C5023091C10223E0230F2D37EB
:102B000058F50196A11DB11D2093C1028093C20208
:102B10009093C302A093C402B093C5028091C602F1
:102B20009091C702A091C802B091C9020196A11D5F
:102B3000B11D8093C6029093C702A093C802B093C0
:102B4000C902BF91AF919F918F913F912F910F90AB
:102B50000FBE0F901F90189526E8230F0296A11D17
:102B6000B11DD2CF1F920F920FB60F9211242F9347
:102B70003F934F935F936F937F938F939F93AF9305
:102B8000BF93EF93FF938091CF029091D002A091D9
:102B9000D102B091D202892B8A2B8B2BD1F190914B
:102BA000CA02E091CB02F091CC0280818927808318
:102BB0008091CF029091D002A091D102B091D20227
:102BC000181619061A061B069CF48091CF029091E4
:102BD000D002A091D102B091D2020197A109B1090E
:102BE0008093CF029093D002A093D102B093D202EF
:102BF000FF91EF91BF91AF919F918F917F916F91D5
:102C00005F914F913F912F910F900FBE0F901F90AA
:102C10001895809105010E942F05EACF1F920F920F
:102C20000FB60F9211242F933F934F935F936F939F
:102C30007F938F939F93AF93BF93EF93FF938BE219
:102C400093E00E94B607FF91EF91BF91AF919F91E2
:102C50008F917F916F915F914F913F912F910F9045
:102C60000FBE0F901F9018951F920F920FB60F92E4
:102C700011242F938F939F93EF93FF93E0913B0346
:102C8000F0913C038081E0914103F091420382FD89
:102C90001BC09081809144038F5F8F732091450307
:102CA000821741F0E0914403F0E0E55DFC4F958F21
:102CB00080934403FF91EF919F918F912F910F90FB
:102CC0000FBE0F901F9018958081F4CF1F920F9226
:102CD0000FB60F9211242F933F934F935F936F93EF
:102CE0007F938F939F93AF93BF93EF93FF938091C5
:102CF000B900887F803609F44AC0F0F5883209F4BB
:102D0000A7C018F5803109F49BC0B8F4882309F4F2
:102D1000F9C0883009F494C0FF91EF91BF91AF9151
:102D20009F918F917F916F915F914F913F912F91E3
:102D30000F900FBE0F901F901895883109F488C02E
:102D4000803251F78093FF0214C0803409F49DC093
:102D500040F48033B9F38833F9F68093FF0285ECB1
:102D6000B0C0803509F485C0883509F496C0883430
:102D700099F60E947513D0CF883909F48CC038F5C4
:102D8000883729F050F4883611F0803729F683E02F
:102D90008093010310926F0257C0883809F47BC0FA
:102DA000803919F0803809F0B7CF80916F028032F6
:102DB00008F071C0E0916F0281E08E0F80936F0286
:102DC0008091BB00F0E0E15BFD4F80833DC0803B24
:102DD00039F0E0F4803A09F479C0883A09F09CCFE0
:102DE00084E08093010310924E0210924D02E09114
:102DF0008202F0918302099580914D0281110FC0EA
:102E000081E080934D0210922D0209C0803C09F4AC
:102E1000A6CF883C09F4A3CF883B09F07DCFE09191
:102E20004E0281E08E0F80934E02F0E0E35DFD4F95
:102E300080818093BB0090914E0280914D0229C009
:102E40008091DC028093BB0085EC8093BC0064CF52
:102E50009091FE028091FD02981758F5E091FE02D4
:102E600081E08E0F8093FE02F0E0E352FD4F8081FF
:102E7000E9CFE091FE0281E08E0F8093FE02809107
:102E8000BB00F0E0E352FD4F80839091FE02809101
:102E9000FD029817C8F285E8D8CFE091FE0281E0E4
:102EA0008E0F8093FE028091BB00F0E0E352FD4F55
:102EB00080838091000381115CCF81E08093DB02ED
:102EC00084EA8093BC001092010326CF85EC8093A6
:102ED000BC001092010380916F02803230F4E091C7
:102EE0006F02F0E0E15BFD4F108260916F0270E0D5
:102EF000E0918002F09181028FE492E009951092B6
:102F00006F020ACF1092FF0234CF0F931F93CF931B
:102F1000DF93EBE2F3E01382128288EE93E0A0E00D
:102F2000B0E084839583A683B78328E131E03183C1
:102F3000208325EC30E03587248724EC30E0378788
:102F4000268720EC30E0318B208B21EC30E0338B76
:102F5000228B22EC30E0358B248B26EC30E0378B53
:102F6000268B118E128E138E148EE8ECF3E027EC74
:102F70003BE0318320832DEB3BE03383228323EB43
:102F80003BE03583248329EA3BE03783268324EB27
:102F900033E0318720872BEB33E033872287E4ED62
:102FA000F3E01382128284839583A683B7838AE237
:102FB00091E091838083CBEED5E01C821D821E823E
:102FC0001F82188619861A861B861C861D861E86F9
:102FD0001F861EA61FA618AA81E089AB1AAA83EE37
:102FE00095E09BA78AA787EE95E099A788A78FED24
:102FF00095E09DA78CA71BAE1CAE1DAE1EAE80E05B
:1030000090E0AFE7B3E480932A0690932B06A09359
:103010002C06B0932D0680EA96E8A1E0B0E08BABD9
:103020009CABADABBEAB188219821A821B821C8E80
:103030001D8E1E8E1F8E18A219A21AA21BA21CA2E0
:103040001DA21EA21FA20E94C9040BA91CA92DA982
:103050003EA9601B710B820B930B6FAB78AF89AFEE
:103060009AAFE9EDF5E0C2E0D0E0D183C0838FEF05
:103070009FEF938382831582148261E082E00E9435
:103080004004E0EEF3E013821282D783C6831186F8
:10309000108680E490E09387828780E390E09587B4
:1030A00084878CE391E0958384838DE384A31092DD
:1030B000D5051092D4058AE591E091838083DF9154
:1030C000CF911F910F910895CF93DF93CDB7DEB7C6
:1030D000A6970FB6F894DEBF0FBECDBF789484B527
:1030E000826084BD84B5816084BD85B5826085BD04
:1030F00085B5816085BD80916E00816080936E0092
:103100001092810080918100826080938100809183
:103110008100816080938100809180008160809334
:1031200080008091B10084608093B1008091B000F4
:1031300081608093B00080917A00846080937A00EF
:1031400080917A00826080937A0080917A00816019
:1031500080937A0080917A00806880937A00109240
:10316000C10064EF71E080E090E00E94EE04E09125
:103170003B03F0913C0382E08083E0913703F091C0
:1031800038031082E0913903F0913A038FEC808389
:1031900010924303E0913F03F091400386E0808367
:1031A000E0913D03F0913E03808180618083E09156
:1031B0003D03F0913E03808188608083E0913D0370
:1031C000F0913E03808180688083E0913D03F0911F
:1031D0003E0380818F7D808364EF71E080E090E02A
:1031E0000E94EE0462E083E00E94400462E086E018
:1031F0000E94400462E085E00E94400461E08AE0B1
:103200000E94400461E088E00E94400461E089E09F
:103210000E94400411E024EDC22E23E0D22E3DE2B4
:10322000A32E35E0B32E4EE2842E45E0942E54EDCD
:10323000E52E55E0F52E8091EA039091EB03892B62
:1032400051F08091EC039091ED03892B21F01092C5
:10325000D6051092D7051093D8058091D40590918A
:10326000D505892BB1F4D092D505C092D405109222
:103270008502109284021092080310922A030E9481
:10328000080EB0928302A0928202909281028092F4
:10329000800280910404F0924D04E0924C048093EB
:1032A0004E0484EE93E00E94AD13882309F44FC7C7
:1032B0008091020490910304892B21F484EE93E021
:1032C0000E94B20DE0910204F0910304309719F0CE
:1032D00083818093D70501E028EE31E040E060E093
:1032E00084EE93E00E94D00B28EE31E04AE060E0EB
:1032F00084EE93E00E94D00B28EE31E044E160E0E0
:1033000084EE93E00E94D00B28EE31E04EE160E0C5
:1033100084EE93E00E94D00B28EE31E048E260E0BA
:1033200084EE93E00E94D00B84EE93E00E94E30FC2
:1033300064EF71E080E090E00E94EE0484EE93E0A0
:103340000E94F81284EE93E00E94E30F2AEF31E02E
:1033500040E060E084EE93E00E94D00B2EEF31E07D
:103360004AE060E084EE93E00E94D00B25E032E07A
:103370004EE160E084EE93E00E94D00B84EE93E097
:103380000E94E30F6CED75E080E090E00E94EE0497
:103390008091BD029091BE02A091BF02B091C00287
:1033A0008093E7059093E805A093E905B093EA05BB
:1033B000C12CD12C88ECE82E82E4F82EC092EF05C7
:1033C000D092F005E092F105F092F20580E090E0F5
:1033D000A0E8BFE38093F3059093F405A093F5056F
:1033E000B093F6051092F7051092F8051092F905C2
:1033F0001092FA0560911E0670911F0680912006BA
:10340000909121060E941A2320E034E244E759E417
:103410000E944C259B01AC01C0920706D092080681
:10342000E0920906F0920A0620930B0630930C06F0
:1034300040930D0650930E0660E070E0CB010E94B1
:103440004C2560930F06709310068093110690939D
:1034500012068091190681115BC0E0911506F0916A
:1034600016069080A180B280C380892D9A2DAB2D45
:10347000BC2D8093EB059093EC05A093ED05B093E4
:10348000EE05E0911306F091140680819181A281EE
:10349000B3818093360690933706A0933806B09395
:1034A0003906D0902606E0902706F0902806109165
:1034B00029062D2D3E2D4F2D512F692D7A2D8B2D27
:1034C0009C2D0E94152387FD17C0D0902A06E090FE
:1034D0002B06F0902C0610912D062D2D3E2D4F2DF4
:1034E000512F692D7A2D8B2D9C2D0E94F4251816B5
:1034F0001CF0D92C75011C2D8D2D9E2DAF2DB12FBB
:103500008093EB059093EC05A093ED05B093EE0549
:1035100081E08093190680931D0610922606109272
:103520002706109228061092290680E090E0AFE767
:10353000B3E480932A0690932B06A0932C06B093B5
:103540002D06A0901506B0901606D501CD90DD9001
:10355000ED90FC9020E030E0A901C701B6010E9487
:10356000152387FD12C120E030E04FE753E4C70187
:10357000B6010E94F425181634F4C12CD12C9FE713
:10358000E92E93E4F92EF501C082D182E282F38222
:103590009090EB05A090EC05B090ED05C090EE0585
:1035A000D0902606E0902706F09028061091290674
:1035B0002D2D3E2D4F2D512F692D7A2D8B2D9C2D8C
:1035C0000E94152387FD17C0D0902A06E0902B0695
:1035D000F0902C0610912D062D2D3E2D4F2D512FA4
:1035E000692D7A2D8B2D9C2D0E94F42518161CF028
:1035F000D92C75011C2D8D2D9E2DAF2DB12F8093B3
:10360000EB059093EC05A093ED05B093EE059E01BC
:103610002F5F3F4F190130E430937C0080917A0096
:10362000806480937A0080917A0086FDFCCF60915F
:10363000780070917900072E000C880B990B0E947E
:103640001C2320E030EC4FE754E40E944C2520E09E
:1036500030E040EA50E40E947B236B017C0120E0D3
:1036600030E44CE156E40E947B234B015C01A7014E
:10367000960160E070E080EA90E40E94DF249B0104
:10368000AC01C501B4010E944C2520E030E543ECBB
:1036900057E40E944C250E94012625E63FEC4BE8AA
:1036A00059E30E947B2322E63BEE4BE55BE30E945D
:1036B000E0249B01AC0160E070E080E89FE30E94A1
:1036C0004C2523E333E948E853E40E94DF2426E64F
:1036D00036E646EE5FE30E947B2320E030E040E0E8
:1036E00052E40E94E0246B017C01C092BD02D092A2
:1036F000BE02E092BF02F092C002AC019B010E94A8
:103700004926811114C020E030E040E252ECC701AC
:10371000B6010E94152387FD0AC020E030E048EC86
:1037200053E4C701B6010E94F425181694F584EEFF
:1037300093E00E94F81201E02EEA31E049E160E0F6
:1037400084EE93E00E94D00B84EE93E00E94E30F9E
:1037500090E080E00E94710460E088E00E94120422
:1037600061E08AE00E94120464EF71E080E193E07E
:103770000E945B0560E08AE00E94120464E670E04B
:1037800080E090E00E94EE04EBCFC12CD12C7601BA
:10379000FACE20E030E040EF52E4C701B6010E94CB
:1037A000F42561E018165CF020E030E040EF52E4D0
:1037B000C701B6010E94152387FF04C060E08AE0BC
:1037C0000E9412048091BB029091BC020097B1F05C
:1037D000019709F471C062E370E080E090E00E941C
:1037E000EE0440E050E0452B09F415CF0E94A207FB
:1037F000882309F410CF0E9400000DCF1091BA0267
:103800001093040190E080E00E94710483E00E9424
:10381000E90321E0009709F420E02093BA02892B04
:1038200051F5112341F161E088E00E9412041092E9
:10383000040164E670E083E992E00E945B0564E6BF
:1038400070E08AEB92E00E945B0564E670E080E144
:1038500093E00E945B050E9421056093B60270937D
:10386000B7028093B8029093B90241E050E05093C0
:10387000BC024093BB0220E030E040EF52E4C701BD
:10388000B6010E94F425181694F484EE93E00E9489
:10389000F81201E025EB31E044E16AE084EE93E0C8
:1038A0000E94D00B84EE93E00E94E30F94CF84EE4D
:1038B00093E00E94F812F6CF8091BA02809304013F
:1038C0000E942105C090B202D090B302E090B402F1
:1038D000F090B5026C197D098E099F096B3F710547
:1038E0008105910508F493C084EE93E00E94F812DC
:1038F00001E020EC31E040E060E084EE93E00E94E3
:10390000D00B6091BD027091BE028091BF02909178
:10391000C002810122E043E00E94C0203F922F922A
:1039200086EC91E09F938F931F92B8E2BF93E6E8F5
:10393000F2E0FF93EF930E94B12601E026E832E027
:103940004AE060E084EE93E00E94D00B86E892E0CB
:103950000E94D4112BEC31E049E160E084EE93E069
:103960000E94D00B809103018F93809102018F936D
:1039700043ED51E05F934F931F9298E29F93A6E827
:10398000B2E0BF93AF930E94B12626E832E043E253
:1039900060E084EE93E00E94D00B6091AE027091E3
:1039A000AF028091B0029091B1020E941A2381016E
:1039B00020E043E00E94C0203F922F9228ED31E0AA
:1039C0003F932F931F9258E25F9386E892E09F9374
:1039D0008F930E94B12601E026E832E040E068E2E1
:1039E00084EE93E00E94D00B84EE93E00E94E30FFC
:1039F0000E9421056093B2027093B3028093B402D7
:103A00009093B5020FB6F894DEBF0FBECDBF6091A4
:103A1000020170910301072E000C880B990B0E9484
:103A20001C234B015C01C090BD02D090BE02E0900F
:103A3000BF02F090C002A70196010E94DF242B0173
:103A40003C0120E030E040EA50E40E94F4251816E2
:103A50000CF0DFC08FEF90E00E94710486E00E94BE
:103A6000E90311E0009709F410E0892BC9F4809173
:103A700001018823A9F080910201909103018C3209
:103A800031E093070CF44FC34CE251E05093030133
:103A90004093020164E670E082E690E00E945B05DC
:103AA0001093010185E00E94E90311E0009709F4F9
:103AB00010E0892BC1F4809100018823A1F080914E
:103AC000020190910301853691050CF036C384E61E
:103AD00090E0909303018093020164E670E082E637
:103AE00090E00E945B051093000183E00E94E903CF
:103AF00021E0009709F420E02093BA02892B41F5D8
:103B000080910401882321F160E088E00E94120482
:103B10001092040164E670E080E193E00E945B058E
:103B200064E670E08AEB92E00E945B0564E670E078
:103B300083E992E00E945B0584EE93E00E94F81214
:103B400084EE93E00E94E30F1092BC021092BB023D
:103B50000E942105C090B602D090B702E090B80252
:103B6000F090B9026C197D098E099F0960387E4E6C
:103B70008643910530F160E088E00E941204809154
:103B8000BA028093040164E670E080E193E00E9451
:103B90005B0564E670E08AEB92E00E945B0564E6F8
:103BA00070E083E992E00E945B0584EE93E00E945E
:103BB000F81284EE93E00E94E30F1092BC02109280
:103BC000BB02C090B602D090B702E090B802F0906D
:103BD000B9020E942105A0E8CA0EAEEEDA1EA6E3E5
:103BE000EA1EF11CA7019601261B370B480B590B47
:103BF000CA01B90120E63AEE40E050E00E94982464
:103C00002093AE023093AF024093B0025093B102C2
:103C1000E2CD20E030E040EA50E4C301B2010E946E
:103C2000152318160CF47CC28092DF059092E005F3
:103C3000A092E105B092E205C092E705D092E805B6
:103C4000E092E905F092EA0580911906882309F4CB
:103C500027C20E94C9046B8F7C8F8D8F9E8F8091AD
:103C600019068230F1F08091220690912306A091EE
:103C70002406B09125064B8D5C8D6D8D7E8D481B85
:103C8000590B6A0B7B0B80911E0690911F06A09129
:103C90002006B0912106481759076A077B0708F4E8
:103CA000FFC1E0911306F091140620813181428119
:103CB00053812B8B3C8B4D8B5E8B20913606309144
:103CC000370640913806509139066B897C898D8979
:103CD0009E890E94DF242B013C0110911A061130AD
:103CE00021F477FA709477F87094E0911706F091C8
:103CF00018062B893C894D895E896081718182819A
:103D000093810E94DF24113009F4D6C160932E06FE
:103D100070932F068093300690933106C0902E0644
:103D2000D0902F06E0903006F090310620913206B8
:103D3000309133064091340650913506C701B601E3
:103D40000E94DF246F8B788F898F9A8F809007066F
:103D500090900806A0900906B0900A06A50194016B
:103D6000C701B6010E947B236B877C878D879E8766
:103D700010911B06112309F4A1C1A3019201C501F1
:103D8000B4010E947B236F87788B898B9A8B1130CB
:103D900009F499C120E030E040E05FE36B857C8569
:103DA0008D859E850E947B236B877C878D879E8770
:103DB00020E030E040E05FE36F85788989899A8967
:103DC0000E947B236F87788B898B9A8B2F8538890C
:103DD00049895A896B857C858D859E850E94DF2463
:103DE0006F8F78A389A39AA36093FB057093FC055A
:103DF0008093FD059093FE0580900B0690900C0635
:103E0000A0900D06B0900E06A5019401C701B60161
:103E10000E947B236BA37CA38DA39EA36093FF05CD
:103E200070930006809301069093020620910F067E
:103E300030911006409111065091120680911C0697
:103E4000811146C16F89788D898D9A8D0E947B235F
:103E5000609303067093040680930506909306060C
:103E600010911D0611117BC02BA13CA14DA15EA19B
:103E7000C701B6010E94E024A50194010E947B23A2
:103E80002F8D38A149A15AA10E94E024F62EE72ED9
:103E9000D82EC92E40902A0650902B0660902C06F2
:103EA00070902D06A30192010E94F42518165CF46F
:103EB00020E030E0A9016F89788D898D9A8D0E946C
:103EC000F4251816DCF02091260630912706409143
:103ED0002806509129066F2D7E2D8D2D9C2D0E9438
:103EE000152387FF3CC020E030E0A9016F89788D61
:103EF000898D9A8D0E94152387FF31C020E030E024
:103F0000A901C501B4010E941523882341F1530181
:103F10004201B7FAB094B7F8B094A50194016F2D9F
:103F20007E2D8D2D9C2D0E94152387FD10C0A30191
:103F300092016F2D7E2D8D2D9C2D0E94F425530115
:103F40004201181624F08F2C9E2CAD2CBC2C809294
:103F5000FF0590920006A0920106B0920206209101
:103F6000FF053091000640910106509102066091D4
:103F7000EB057091EC058091ED059091EE050E94A6
:103F8000E0242F85388949895A890E94DF246B01F2
:103F90007C018090260690902706A0902806B0907D
:103FA0002906123009F09AC0C601D7018093EB05AB
:103FB0009093EC05A093ED05B093EE052091EB05F1
:103FC0003091EC054091ED055091EE056B857C85B7
:103FD0008D859E850E94E024209103063091040681
:103FE00040910506509106060E94E024D62EE72E49
:103FF000F82E192F262F372F482F592FB401C5011E
:104000000E94F42518160CF486C090902A06A09001
:104010002B06B0902C06C0902D06292D3A2D4B2D45
:104020005C2D6D2D7E2D8F2D912F0E94F42518165D
:104030001CF4D92C75011C2DE0911506F091160683
:104040008D2D9E2DAF2DB12F80839183A283B383BD
:1040500080912E0690912F06A0913006B0913106E6
:104060008093320690933306A0933406B0933506BE
:104070008B899C89AD89BE898093360690933706DB
:10408000A0933806B09339062B8D3C8D4D8D5E8DF7
:10409000209322063093230640932406509325064E
:1040A0006091E3057091E4058091E5059091E60546
:1040B0000E94BE25CB01D0CC905828CE1F86188AEE
:1040C000198A1A8A83CE1B861C861D861E867ECE82
:1040D000CA01B9019058A3019201B8CE9401A5017B
:1040E0000E94152387FD14C040902A0650902B068D
:1040F00060902C0670902D069201A301B601C701B5
:104100000E94F42518160CF04FCF620173014CCFBA
:104110006401750149CFD82CE92CFA2C1B2D8CCFCA
:1041200090E080E099CC0596909303018093020182
:1041300062E370E080E193E0B1CC059790930301D6
:104140008093020162E370E08BE092E0CACC61E010
:104150008AE00E9412048CED91E00E94D41164EF79
:1041600071E080E090E00E94EE0460E08AE00E944E
:10417000120464EF71E080E090E00E94EE045BC8FE
:10418000EF920F931F93CF93DF93E80134E047FD45
:1041900034E1042E000C550B57FF03C05195419597
:1041A0005109E32E022F242FAE010E94DE20CE0102
:1041B000DF91CF911F910F91EF900895A9E0B0E0AA
:1041C000E4EEF0E20C943F246A01F22EB02E102FA0
:1041D000FBE3AF2EA01608F41BE31F5F012F27E0BF
:1041E000AE014F5F5F4F0E943D22BC018981982F35
:1041F0009970913009F43FC09BE2E1FC04C09E2D10
:104200009170E0FC3AC05E2D5071E82FE87083FF9A
:1042100046C084E0911101C083E0EF2DE81B8F15AB
:1042200008F0E0E0D6018E2F20E2552351F19923CA
:1042300029F0D6019C93C60101966C0196012D5F71
:104240003F4FE2FE24C08EE4D6018C9391E4119698
:104250009C93119712968C93D9018E2F90E2811125
:104260001BC0E20FF32FF11D10828EEF9FEF2996F6
:10427000ECE00C945B249DE2C6CF90E2C4CF2D937A
:1042800081508111FCCFCE0ED11CE0E0D0CF8EE664
:10429000D6018C9391E6DBCF9D938150E0CF482FE0
:1042A000447082FF3DC084E0911101C083E08F150E
:1042B00010F4EF2DE81BD6018E2F20E2552309F1D3
:1042C000992329F0D6019C93C60101966C019601B1
:1042D0002D5F3F4FE2FE1BC089E4D6018C938EE434
:1042E00011968C93119786E412968C93D9018E2F98
:1042F00090E2882309F4B5CF9D938150FACF2D9396
:1043000081508111FCCFCE0ED11CE0E0D9CF89E6DF
:10431000D6018C938EE611968C93119786E6E4CFA6
:104320009B0177FF02C030E020E0A1E0B0E09111F6
:1043300002C0B0E0A0E0F9013196AE0FBF1F8B2C98
:10434000912CBB2009F461C05401EFEFAE1ABE0AF4
:10435000AA0DBB1DFA161B0619F014F04F2D4A1BAF
:10436000511188C0E3FC59C07601A42FB0E2A1111D
:104370004FC0C40ED11C992309F45BC040E0D601A4
:104380001196F60190836D01552309F448C0012F61
:10439000060F9A81582F507184FF03C0913309F49E
:1043A000015010160CF047C0093008F008E0EEE2AA
:1043B000FE2E5B01A01AB1088501919481949108A9
:1043C0002F3F320729F4D601FC92F60131966F0196
:1043D0006217730794F1021713077CF5DB01A21B28
:1043E000B30BAA24A394B12CAC0EBD1EAA0DBB1D09
:1043F00011968C9121503109D60111962815390555
:10440000F4F0F60180836D01DBCFB12CA12CA0CF9D
:10441000F701B1937F01A150AACF9111B0CFD6017E
:10442000942F50E302C05D9391509111FCCFC40EC4
:10443000D11C40E0ACCF01E0BACF80E3DBCF621704
:10444000730731F4963388F4953311F4552369F0EA
:10445000F6018083FD01842F90E2811108C0A40F32
:10446000B11D1C9290E080E002CF81E3F1CF9193E7
:104470008150F3CF911183CF8ACF283008F027E005
:104480003327DA01990F311D87FD91600096610590
:10449000710539F432602E5F3D9330E32A95E1F7E0
:1044A00008959F3F30F080387105610509F03C5F49
:1044B0003C5F3D93913008F08068911DDF93CF936E
:1044C0001F930F93FF92EF92192F987F9695E92FE4
:1044D00096959695E90FFF27E45EFE4F99273327BF
:1044E000EE24FF24A701E70105900894079428F41F
:1044F000360FE71EF81E491F511D660F771F881FD4
:10450000991F0694A1F70590079428F4E70EF81E6A
:10451000491F561FC11D770F881F991F661F0694DC
:10452000A1F70590079428F4F80E491F561FC71FDE
:10453000D11D880F991F661F771F0694A1F705905C
:10454000079420F4490F561FC71FD81F990F661FE5
:10455000771F881F0694A9F784911095177041F072
:10456000D695C79557954795F794E7941A95C1F74F
:10457000E2ECF0E068941590159135916591959174
:1045800005907FE27395E118F10A430B560BC90BB6
:10459000D009C0F7E10CF11E431F561FC91FD01DE3
:1045A0007EF4703311F48A95E6CFE894015030F030
:1045B000080F0AF40027021708F4202F2395022F72
:1045C0007A3328F079E37D932A95E9F710C07D933B
:1045D0002A9589F6069497956795379517951794B8
:1045E000E118F10A430B560BC90BD00998F023953B
:1045F0007E9173957A3308F070E37C932013B8F7BB
:104600007E9170617D9330F0839571E37D9370E3CB
:104610002A95E1F71124EF90FF900F911F91CF9110
:10462000DF91992787FD909508950E94572308F4FC
:1046300081E00895E89409C097FB3EF49095809539
:10464000709561957F4F8F4F9F4F9923A9F0F92F58
:1046500096E9BB279395F695879577956795B795D6
:10466000F111F8CFFAF4BB0F11F460FF1BC06F5FBC
:104670007F4F8F4F9F4F16C0882311F096E911C0CE
:10468000772321F09EE8872F762F05C0662371F0EF
:1046900096E8862F70E060E02AF09A95660F771F03
:1046A000881FDAF7880F9695879597F90895990FDF
:1046B0000008550FAA0BE0E8FEEF16161706E807EC
:1046C000F907C0F012161306E407F50798F0621B0D
:1046D000730B840B950B39F40A2661F0232B242BE2
:1046E000252B21F408950A2609F4A140A6958FEF01
:1046F000811D811D08950E948E230C94FF230E942A
:10470000F12338F00E94F82320F0952311F00C9447
:10471000E8230C94EE2311240C9433240E941024DB
:1047200070F3959FC1F3950F50E0551F629FF00104
:10473000729FBB27F00DB11D639FAA27F00DB11D1D
:10474000AA1F649F6627B00DA11D661F829F2227A6
:10475000B00DA11D621F739FB00DA11D621F839F2D
:10476000A00D611D221F749F3327A00D611D231F03
:10477000849F600D211D822F762F6A2F11249F5751
:1047800050409AF0F1F088234AF0EE0FFF1FBB1F54
:10479000661F771F881F91505040A9F79E3F510513
:1047A00080F00C94E8230C9433245F3FE4F3983EAC
:1047B000D4F3869577956795B795F795E7959F5FBD
:1047C000C1F7FE2B880F911D9695879597F908954F
:1047D00097F99F6780E870E060E008959FEF80ECB4
:1047E000089500240A941616170618060906089557
:1047F00000240A9412161306140605060895092EBD
:104800000394000C11F4882352F0BB0F40F4BF2B2B
:1048100011F460FF04C06F5F7F4F8F4F9F4F08956B
:1048200057FD9058440F551F59F05F3F71F0479561
:10483000880F97FB991F61F09F3F79F08795089546
:10484000121613061406551FF2CF4695F1DF08C065
:10485000161617061806991FF1CF86957105610582
:1048600008940895E894BB2766277727CB0197F92A
:1048700008952F923F924F925F926F927F928F9204
:104880009F92AF92BF92CF92DF92EF92FF920F93DF
:104890001F93CF93DF93CDB7DEB7CA1BDB0B0FB6E9
:1048A000F894DEBF0FBECDBF09942A8839884888A6
:1048B0005F846E847D848C849B84AA84B984C8843C
:1048C000DF80EE80FD800C811B81AA81B981CE0F33
:1048D000D11D0FB6F894DEBF0FBECDBFED01089518
:1048E000AA1BBB1B51E107C0AA1FBB1FA617B70716
:1048F00010F0A61BB70B881F991F5A95A9F7809532
:104900009095BC01CD01089597FB072E16F40094F5
:1049100007D077FD09D00E94702407FC05D03EF433
:10492000909581959F4F0895709561957F4F08955B
:10493000A1E21A2EAA1BBB1BFD010DC0AA1FBB1FA3
:10494000EE1FFF1FA217B307E407F50720F0A21B15
:10495000B30BE40BF50B661F771F881F991F1A9482
:1049600069F760957095809590959B01AC01BD01AC
:10497000CF010895052E97FB1EF400940E94D124C8
:1049800057FD07D00E94982407FC03D04EF40C94E6
:10499000D12450954095309521953F4F4F4F5F4F13
:1049A000089590958095709561957F4F8F4F9F4F9B
:1049B0000895EE0FFF1F0590F491E02D09945058D3
:1049C000BB27AA270E94F7240C94FF230E94F123FF
:1049D00038F00E94F82320F039F49F3F19F426F4B0
:1049E0000C94EE230EF4E095E7FB0C94E823E92FFA
:1049F0000E94102458F3BA176207730784079507BB
:104A000020F079F4A6F50C9432240EF4E0950B2EE8
:104A1000BA2FA02D0B01B90190010C01CA01A00110
:104A20001124FF27591B99F0593F50F4503E68F16B
:104A30001A16F040A22F232F342F4427585FF3CFAC
:104A4000469537952795A795F0405395C9F77EF47D
:104A50001F16BA0B620B730B840BBAF09150A1F0C6
:104A6000FF0FBB1F661F771F881FC2F70EC0BA0F4C
:104A7000621F731F841F48F4879577956795B795D4
:104A8000F7959E3F08F0B0CF9395880F08F09927CF
:104A9000EE0F9795879508950E9460250C94FF234B
:104AA0000E94F82358F00E94F12340F029F45F3F60
:104AB00029F00C94E82351110C9433240C94EE2328
:104AC0000E94102468F39923B1F3552391F3951BA9
:104AD000550BBB27AA2762177307840738F09F5F1F
:104AE0005F4F220F331F441FAA1FA9F335D00E2E8C
:104AF0003AF0E0E832D091505040E695001CCAF7F9
:104B00002BD0FE2F29D0660F771F881FBB1F2617BB
:104B100037074807AB07B0E809F0BB0B802DBF0192
:104B2000FF2793585F4F3AF09E3F510578F00C9461
:104B3000E8230C9433245F3FE4F3983ED4F3869546
:104B400077956795B795F7959F5FC9F7880F911D82
:104B50009695879597F90895E1E0660F771F881F6E
:104B6000BB1F621773078407BA0720F0621B730B21
:104B7000840BBA0BEE1F88F7E09508950E94C525B7
:104B80006894B1110C94332408950E94182488F07D
:104B90009F5798F0B92F9927B751B0F0E1F0660F01
:104BA000771F881F991F1AF0BA95C9F714C0B13042
:104BB00091F00E943224B1E008950C943224672FC2
:104BC000782F8827B85F39F0B93FCCF38695779571
:104BD0006795B395D9F73EF490958095709561955A
:104BE0007F4F8F4F9F4F08950E94572308F48FEFF8
:104BF000089516F00C944E260C94EE2368940C94B1
:104C0000E8230E941824A8F39923C1F3AEF3DF939D
:104C1000CF931F930F93FF92C92FDD2788232AF08C
:104C20002197660F771F881FDAF720E030E040E811
:104C30005FEB9FE3883920F0803E38F021968F7734
:104C40000E94E024E8E6F0E004C00E94E024E5E9E8
:104C5000F0E00E945C268B01BE01EC01FB2E6F5739
:104C600071097595771F880B990B0E941C2328E109
:104C700032E741E35FE30E948E23AF2D9801AE013E
:104C8000FF900F911F91CF91DF910E94F7240C9418
:104C9000FF230E945723880B990B08959F3F31F003
:104CA000915020F4879577956795B795880F911D5A
:104CB0009695879597F90895DF93CF931F930F9358
:104CC000FF92EF92DF927B018C01689406C0DA2E8E
:104CD000EF010E948E23FE01E894A5912591359164
:104CE00045915591A6F3EF010E94F724FE0197012B
:104CF000A801DA9469F7DF90EF90FF900F911F9170
:104D0000CF91DF910895DC0101C06D934150504077
:104D1000E0F70895EF92FF920F931F93CF93DF93E5
:104D2000FB01238121FF19C0EB018C01F12CE12C47
:104D3000F80181918F01811106C0C701CDB7DEB79F
:104D4000E6E00C946124E885F985BE010995892B7C
:104D500079F3EE24EA94FE2CEBCFEE24EA94FE2CB9
:104D6000ECCFAEE0B0E0E7EBF6E20C9447240D891F
:104D70001E898F89988D26E02C831A83098397FFDB
:104D800002C080E090E801979E838D83AE01455E6E
:104D90005F4F698D7A8DCE0101960E94E1264D818B
:104DA0005E8157FD0AC02F813885421753070CF4E6
:104DB0009A01020F131FF80110822E96E4E00C9462
:104DC0006324ABE0B0E0E7EEF6E20C9439247C011A
:104DD0003B018A01FC0117821682838181FFC8C1D1
:104DE000CE0101965C01F7019381F30193FD85915A
:104DF00093FF81913F01882309F453C1853239F42F
:104E000093FD859193FF81913F01853229F4B7018C
:104E100090E00E94D128E7CF912C212C312CFFE18A
:104E2000F31538F08B3211F190F4803209F18332AE
:104E300029F137FC3CC020ED280F2A3050F536FE12
:104E400020C08AE0989E200D1124922E06C08D323B
:104E500091F0803371F7689430F8F30193FD8591F8
:104E600093FF81913F018111DACF21C0689431F81D
:104E7000689432F8F2CF689433F8EFCF689434F83E
:104E8000ECCFEAE02E9E200D1124222E689435F8F6
:104E9000E4CF8E3229F436FC04C1689436F8DDCFB5
:104EA0008C3619F4689437F8D8CF8836B1F2982F39
:104EB0009F7D95549330E0F08336A1F18337C1F1A3
:104EC000833509F063C02801F2E04F0E511CF80150
:104ED000C080D180692D70E036FC02C06FEF7FEF9B
:104EE000C6010E94BB284C01689437F882010AC0B1
:104EF0000C5F1F4FFFE3F98388248394912C650195
:104F0000E89437F833FE2DC0522C8114910471F5CA
:104F1000552009F468CFB70180E290E00E94D128C3
:104F20005A94F6CFF801808189830E5F1F4FE4CF3A
:104F30002801F2E04F0E511CF801C080D180692D8C
:104F400070E036FC02C06FEF7FEFC6010E94C628FA
:104F50004C018201D5CFB70180E290E00E94D128B8
:104F60002A942814190409F0B0F7CECFF60137FCC3
:104F7000859137FE81916F01B70190E00E94D128A1
:104F800051105A94F1E08F1A9108BFCF843619F06E
:104F9000893609F077C0F80137FE6BC060817181F6
:104FA000828193810C5F1F4FF32DFF763F2E97FF79
:104FB00009C090958095709561957F4F8F4F9F4F59
:104FC000689437F82AE030E0A5010E940129C82E34
:104FD000CA188C2C432C36FE0CC0E89440F8C91437
:104FE00040F434FE05C032FC03C0F32DFE7E4F2E8C
:104FF000892C44FE95C0FE01EC0DF11D80818033AB
:1050000009F087C0242D297E422E842D8870582EC9
:1050100043FC95C040FE8FC09C2C821418F42C0CCD
:10502000922C981844FE91C0B70180E390E00E9452
:10503000D12842FE09C088E790E041FE02C088E521
:1050400090E0B7010E94D128C91408F48AC0CA941C
:10505000D12C9FEFC91AD90ACA0CDB1CF601829128
:105060006F01B70190E00E94D128AC14BD04B1F7E4
:105070004FCF60817181072E000C880B990B0E5F5A
:105080001F4F92CFD32CE894D4F82AE030E0853734
:1050900039F1232D297FD22E8F3601F148F488353E
:1050A000A9F0F701868197812B96E2E10C945524B3
:1050B000803749F08837A9F7D4FE02C06894D2F847
:1050C00020E130E00DC06894D4F8F6CF34FE03C080
:1050D000822F8660D82E20E132E002C028E030E046
:1050E000F801D7FE0FC060817181828193810C5FCE
:1050F0001F4FA5010E940129C82ECA183D2CE89413
:1051000037F867CF6081718190E080E00E5F1F4FBC
:10511000F0CF42FC02C0839478CF8394839475CF00
:10512000842D867809F471CFF6CFB70180E290E044
:105130000E94D12883948214C0F3512C73CF522C37
:105140005818821408F46ECFF8CF842D867809F4AD
:105150007BCF8BE241FE80E247FC8DE2B70190E01D
:1051600071CFB70180E390E00E94D1289A946CCF70
:105170008FEF9FEF99CFFC010590615070400110B7
:10518000D8F7809590958E0F9F1F0895FC01615070
:10519000704001900110D8F7809590958E0F9F1F59
:1051A00008950F931F93CF93DF93182F092FEB01CF
:1051B0008B8181FD09C01FEF0FEF812F902FDF91B1
:1051C000CF911F910F91089582FF14C02E813F81CE
:1051D0008C819D81281739073CF4E881F981CF0142
:1051E00001969983888310838E819F8101969F8386
:1051F0008E83E3CFE885F985812F0995892BA1F36B
:10520000DACFFA01AA27283051F1203181F1E89450
:105210006F936E7F6E5F7F4F8F4F9F4FAF4FB1E0A9
:105220003ED0B4E03CD0670F781F891F9A1FA11DA4
:10523000680F791F8A1F911DA11D6A0F711D811DA5
:10524000911DA11D20D009F468943F912AE0269F6A
:1052500011243019305D3193DEF6CF010895462FC9
:105260004770405D4193B3E00FD0C9F7F6CF462FAA
:105270004F70405D4A3318F0495D31FD4052419313
:1052800002D0A9F7EACFB4E0A695979587957795D0
:105290006795BA95C9F700976105710508959B0157
:1052A000AC010A2E06945795479537952795BA95E0
:1052B000C9F7620F731F841F951FA01D0895F894EE
:0252C000FFCF1E
:1052C2000101C80001FF00000000DB0D010204081B
:1052D2001020408000000000D80738076507250825
:1052E200960774078807000000001711EA10D11111
:1052F200C010E310D010C11000000000450B380DA3
:10530200B90AD709F20CC709580CE60B4508F11186
:10531200AD13E30FF8120000000046113807D11157
:10532200D0110D0A005B4552524F525D5B517747D7
:10533200724275666665724465766963655D205280
:10534200656E64657220636C617373206D7573742E
:1053520020696D706C656D656E7420647261775F33
:10536200706978656C206D6574686F640A004641E7
:10537200554C542100436F6F6C696E672E2E2E00C0
:1053820054656D703A00257320460054617267655A
:10539200743A00256920460025736D004F4C454440
:1053A200206661696C656400636C656172696E6731
:1053B20074686573637265656E004D756700576149
:0C53C200726D657200627920526F62000B
:00000001FF
