:100000000C948A030C94B2030C94B2030C94B203C4
:100010000C94B2030C94B2030C94B2030C94BB1472
:100020000C94B2030C94B2030C94B2030C94B2037C
:100030000C94B2030C94B2030C94B2030C94B2036C
:100040000C9471140C94B2030C943D150C94171578
:100050000C94B2030C94B2030C94B2030C94B2034C
:100060000C946F150C94B20308000000BE92244952
:10007000123EABAAAA2ABECDCCCC4C3E00000080DA
:10008000BEABAAAAAA3E00000000BF000000803F4D
:100090000000000000084178D3BB4387D1133D190D
:1000A0000E3CC3BD4282AD2B3E68EC8276BED98F3A
:1000B000E1A93E4C80EFFFBE01C4FF7F3F0000007E
:1000C000000000407A10F35A00A0724E1809001088
:1000D000A5D4E80000E87648170000E40B540200BD
:1000E00000CA9A3B000000E1F505000080969800E8
:1000F000000040420F000000A08601000000102711
:1001000000000000E80300000000640000000000A0
:100110000A00000000000100000000002C76D888D2
:10012000DC674F0823DFC1DFAE59E1B1B796E5E3E5
:10013000E453C63AE651997696E8E6C28426EB89FE
:100140008C9B62ED407C6FFCEFBC9C9F40F2BAA59B
:100150006FA5F490055A2AF75C936B6CF9676DC133
:100160001BFCE0E40D47FEF520E6B500D0ED902E37
:100170000300943577050080841E080000204E0A95
:10018000000000C80C333333330F986E12831141D3
:10019000EF8D2114893BE65516CFFEE6DB18D1849E
:1001A0004B381BF77C1D901DA4BBE42420328472C5
:1001B0005E228100C9F124ECA1E53D27000000008A
:1001C000003E5B4F5B3E3E6B4F6B3E1C3E7C3E1CDD
:1001D000183C7E3C181C577D571C1C5E7F5E1C0023
:1001E000183C1800FFE7C3E7FF0018241800FFE7DA
:1001F000DBE7FF30483A060E2629792926407F059D
:100200000507407F05253F5A3CE73C5A7F3E1C1CB2
:1002100008081C1C3E7F14227F22145F5F005F5F72
:1002200006097F017F006689956A6060606060945E
:10023000A2FFA29408047E040810207E2010080863
:100240002A1C08081C2A08081E101010100C1E0C6E
:100250001E0C30383E3830060E3E0E060000000000
:100260000000005F00000007000700147F147F14E7
:10027000242A7F2A1223130864623649562050002C
:1002800008070300001C2241000041221C002A1C18
:100290007F1C2A08083E0808008070300008080803
:1002A0000808000060600020100804023E51494523
:1002B0003E00427F400072494949462141494D3341
:1002C0001814127F1027454545393C4A49493141A8
:1002D000211109073649494936464949291E000076
:1002E00014000000403400000008142241141414CB
:1002F0001414004122140802015909063E415D59B7
:100300004E7C1211127C7F494949363E41414122BF
:100310007F4141413E7F494949417F090909013EE9
:10032000414151737F0808087F00417F4100204010
:10033000413F017F081422417F404040407F021C22
:10034000027F7F0408107F3E4141413E7F09090939
:10035000063E4151215E7F09192946264949493205
:1003600003017F01033F4040403F1F2040201F3FCB
:100370004038403F63140814630304780403615950
:10038000494D43007F414141020408102000414192
:10039000417F04020102044040404040000307083E
:1003A0000020545478407F2844443838444444283A
:1003B000384444287F385454541800087E090218E1
:1003C000A4A49C787F0804047800447D4000204069
:1003D000403D007F1028440000417F40007C0478AD
:1003E00004787C080404783844444438FC182424F5
:1003F0001818242418FC7C08040408485454542475
:1004000004043F44243C4040207C1C2040201C3CF1
:100410004030403C44281028444C9090907C4464E8
:10042000544C44000836410000007700000041367B
:10043000080002010204023C2623263C1EA1A16101
:10044000123A4040207A3854545559215555794133
:100450002154547841215554784020545579400C0A
:100460001E527212395555555939545454593955EB
:100470005454580000457C410002457D420001452E
:100480007C40F0292429F0F0282528F07C5455459B
:10049000002054547C547C0A097F4932494949322E
:1004A0003248484832324A4848303A4141217A3A43
:1004B00042402078009DA0A07D39444444393D400D
:1004C00040403D3C24FF2424487E4943662B2FFCBA
:1004D0002F2BFF0929F620C0887E09032054547968
:1004E000410000447D413048484A32384040227A39
:1004F000007A0A0A727D0D19317D2629292F2826B6
:100500002929292630484D402038080808080808BD
:100510000808382F10C8ACBA2F102834FA00007B16
:10052000000008142A142222142A1408AA005500D4
:10053000AAAA55AA55AA000000FF00101010FF003B
:10054000141414FF001010FF00FF1010F010F0142E
:100550001414FC001414F700FF0000FF00FF141433
:10056000F404FC141417101F10101F101F1414147F
:100570001F00101010F0000000001F101010101FBE
:1005800010101010F010000000FF101010101010CC
:10059000101010FF10000000FF140000FF00FF000B
:1005A000001F10170000FC04F41414171017141483
:1005B000F404F40000FF00F714141414141414F7D6
:1005C00000F7141414171410101F101F141414F42F
:1005D000141010F010F000001F101F0000001F1476
:1005E000000000FC140000F010F01010FF10FF14C9
:1005F0001414FF141010101F00000000F010FFFF73
:10060000FFFFFFF0F0F0F0F0FFFFFF000000000040
:10061000FFFF0F0F0F0F0F38444438447C2A2A3E47
:10062000147E02020606027E027E02635549416381
:100630003844443C04407E201E2006027E0202997B
:10064000A5E7A5991C2A492A1C4C7201724C304A14
:100650004D4D303048784830BC625A463D3E49499D
:1006600049007E0101017E2A2A2A2A2A44445F4445
:100670004440514A444040444A51400000FF010375
:10068000E080FF000008086B6B083612362436063F
:100690000F090F060000181800000010100030406D
:1006A000FF0101001F01011E00191D1712003C3C33
:1006B0003C3C000000000000000000240027002A4D
:1006C00000000000002300260029000000000800B0
:1006D0000201000003040700000000000000000108
:1006E00002040810204080010204081020010204C6
:1006F00008102000000000250028002B000404043E
:1007000004040404040202020202020303030303BA
:1007100003028E1611241FBECFEFD8E0DEBFCDBF7F
:1007200026E0A4EEB1E001C01D92AC30B207E1F7C3
:1007300011E0A0E0B1E0E8E9F8E402C005900D9214
:10074000A43EB107D9F713E0CAE8D3E004C021976B
:10075000FE010E94FF1FC938D107C9F70E946D171B
:100760000C944A240C940000FC01942F9095408135
:10077000492340830895FC019081492B40830895CB
:10078000833081F028F4813099F08230A9F0089507
:100790008730A9F08830C9F08430B1F480918000AE
:1007A0008F7D03C0809180008F77809380000895B3
:1007B00084B58F7784BD089584B58F7DFBCF8091FC
:1007C000B0008F778093B00008958091B0008F7D46
:1007D000F9CFCF93DF93282F30E0F901E553F94F9C
:1007E0008491F901E152F94FD491F901E350F94FA5
:1007F000C491CC23A1F081110E94C003EC2FF0E042
:10080000EE0FFF1FEF53F94FA591B491EC91ED233B
:1008100081E090E009F480E0DF91CF91089580E0DD
:1008200090E0FACF1F93CF93DF93282F30E0F901A8
:10083000E553F94F8491F901E152F94FD491F9014F
:10084000E350F94FC491CC23A9F0162F81110E94D7
:10085000C003EC2FF0E0EE0FFF1FED50F94FA59114
:10086000B4918FB7F894EC91111108C0D095DE23A4
:10087000DC938FBFDF91CF911F910895DE2BF8CFCE
:10088000CF93DF9390E0FC01E152F94F2491835024
:10089000994FFC0184918823D1F090E0880F991F33
:1008A000FC01E954F94FA591B491FC01ED50F94FC9
:1008B000C591D491623071F49FB7F8943C91822F26
:1008C000809583238C93E8812E2B28839FBFDF9113
:1008D000CF9108958FB7F894EC912E2B2C938FBF66
:1008E000F6CF3FB7F8948091920290919302A09135
:1008F0009402B091950226B5A89B05C02F3F19F030
:100900000196A11DB11D3FBFBA2FA92F982F88278F
:10091000BC01CD01620F711D811D911D42E0660F6A
:10092000771F881F991F4A95D1F708958F929F923C
:10093000AF92BF92CF92DF92EF92FF926B017C0158
:100940000E9471044B015C01C114D104E104F10463
:10095000B9F00E947104681979098A099B09683EF7
:1009600073408105910580F321E0C21AD108E108A6
:10097000F10888EE880E83E0981EA11CB11CE4CF1C
:10098000FF90EF90DF90CF90BF90AF909F908F90AF
:100990000895089508959091050189130BC0E1E130
:1009A000F7E0E4919FEF90930501E13049F028F0E2
:1009B000E23061F060E00C94120410926E00FACF05
:1009C00090916F009D7F90936F00F4CF9091700095
:1009D0009D7F9093700091E09093B0009091B10052
:1009E000987F94609093B1001092B300E3CFEF92A0
:1009F000FF920F931F93CF938C017B018091A705EA
:100A00009091A8058F3F980719F061E00E941204A9
:100A10008091A5059091A60520910501281791F1D7
:100A20002F3F09F46FC0B7010F2C000C880B990BF6
:100A30000E9496048091A7059091A8058F3F980782
:100A400019F060E00E9412048091A5050E94CB0479
:100A50002091A9053091AA05E29EC001E39E900D68
:100A6000F29E900D112464E670E00E94AA1F072EEA
:100A7000000C880B990BCF911F910F91FF90EF9075
:100A80000C949604E1E1F7E0C491C7FDCCCF61E09E
:100A90000E944004CC2319F0C23009F0ACC0980188
:100AA000110F440B550B68E478EE81E090E00E9452
:100AB000BE1FBA01A9014150510961097109CC2336
:100AC00009F4DAC08091B100887F84608093B1001E
:100AD000C13009F4A9C0C23009F4BBC0C111A3CF11
:100AE00047BD8FEF9FEFDC018093A3029093A40298
:100AF000A093A502B093A60280916E0082608093BD
:100B00006E0091CF80930501E1E1F7E0C491CF3F02
:100B100009F489CFC13039F148F0C23009F445C039
:100B2000C7FD81CF61E00E944004B6CF14BC15BC64
:100B300024B5226024BD25B5216025BD9C01332745
:100B4000F901E350F94FE491F0E0EE0FFF1FED5093
:100B5000F94F45915491F901E152F94FE491E09335
:100B60009A02C0E094CF10928000109281002091F0
:100B700081002860209381002091810021602093D2
:100B800081009C013327F901E350F94FE491F0E033
:100B9000EE0FFF1FED50F94F45915491F901E152CD
:100BA000F94FE491E093990272CF1092B000109245
:100BB000B1002091B00022602093B0002091B100DC
:100BC00021602093B1009C013327F901E350F94FD4
:100BD000E491F0E0EE0FFF1FED50F94F4591549175
:100BE0005093980240939702F901E152F94FE49132
:100BF000E09396024CCF9801110F440B550B60E027
:100C000072E18AE790E00E94BE1FBA01A90141503B
:100C1000510961097109C13009F05ACF80918100F1
:100C2000887F816080938100509389004093880081
:100C30008FEF9FEFDC0180939F029093A002A0931F
:100C4000A102B093A20280916F00826080936F0036
:100C5000EACE4093B3008FEF9FEFDC0180939B02BD
:100C600090939C02A0939D02B0939E02809170008D
:100C7000826080937000D7CE85B5887F836085BD04
:100C80002FCFAF92BF92CF92DF92EF92FF920F934E
:100C90001F93CF93DF936C017B018B01040F151F12
:100CA000EB015E01AE18BF08C017D10759F069917A
:100CB000D601ED91FC910190F081E02DC6010995DE
:100CC000892B79F7C501DF91CF911F910F91FF908B
:100CD000EF90DF90CF90BF90AF900895FC01538DBF
:100CE000448D252F30E0842F90E0821B930B541706
:100CF00010F0CF96089501970895FC01918D828D93
:100D0000981761F0A28DAE0FBF2FB11D5D968C912B
:100D1000928D9F5F9F73928F90E008958FEF9FEF6A
:100D20000895FC01918D828D981731F0828DE80F26
:100D3000F11D858D90E008958FEF9FEF0895FC01E0
:100D4000918D228D892F90E0805C9F4F821B9109AD
:100D50008F739927089587EF92E00E949F0621E004
:100D6000892B09F420E0822F089580E090E0892B00
:100D700029F00E94AB0681110C9400000895FC013B
:100D8000A48DA80FB92FB11DA35ABF4F2C91848DEC
:100D900090E001968F739927848FA689B7892C9349
:100DA000A089B1898C91837080648C93938D848D9C
:100DB000981306C00288F389E02D80818F7D80839F
:100DC0000895EF92FF920F931F93CF93DF93EC015F
:100DD00081E0888F9B8D8C8D98131AC0E889F989E2
:100DE000808185FF15C09FB7F894EE89FF896083E5
:100DF000E889F98980818370806480839FBF81E066
:100E000090E0DF91CF911F910F91FF90EF900895A7
:100E1000F62E0B8D10E00F5F1F4F0F731127E02E82
:100E20008C8D8E110CC00FB607FCFACFE889F989BA
:100E3000808185FFF5CFCE010E94BF06F1CFEB8DFB
:100E4000EC0FFD2FF11DE35AFF4FF0829FB7F8948E
:100E50000B8FEA89FB8980818062CFCFCF93DF93AC
:100E6000EC01888D8823B9F0AA89BB89E889F989C2
:100E70008C9185FD03C0808186FD0DC00FB607FCF7
:100E8000F7CF8C9185FFF2CF808185FFEDCFCE012A
:100E90000E94BF06E9CFDF91CF9108952F923F9234
:100EA0004F925F926F927F928F929F92AF92BF927A
:100EB000CF92DF92EF92FF920F931F93CF93DF9326
:100EC000CDB7DEB76A970FB6F894DEBF0FBECDBFC1
:100ED0004C01D42EF886EF82662E712CDC0116961A
:100EE000ED91FC9117976E167F0608F040C1189699
:100EF0004D915C918D2D90E08417950708F037C1D6
:100F0000CC2009F434C1AA2009F431C1D301A20FC5
:100F1000B11DEA17FB0710F42E2F261B122FC21645
:100F200008F41C2D800F911D4817590710F4042F49
:100F30000D19A01608F40A2D8FEF8D0D080F902FB4
:100F4000969596959695F401EA59FF4F0190F08198
:100F5000E02DEE0FFF1FEC56FC4F20813181388BC6
:100F60002F878D2D869586958695282E312CA1016B
:100F7000440F551F440F551F480D591D5A8F498F57
:100F8000412C692F70E07B8B6A8B802F90E09D8BCA
:100F90008C8B07700E8BAC2DB0E0B88FAF8BF3014C
:100FA000E10FF11DFA87E9872A893B89221533056C
:100FB0000CF4DDC02D2D2770422F50E05A83498359
:100FC0008D2D90E00896841B950B6C897D896817A0
:100FD00079070CF0A6C08E8947E050E0481B510904
:100FE000AFEFB0E002C0B595A7954A95E2F7022EA3
:100FF00001C0AA0F0A94EAF7A98B55245394521AF8
:10100000580E942D9770E92FF0E0FC83EB830FEFDF
:10101000090F050D28E030E02E1B3F0B87E052162C
:1010200013060CF4802F27E030E0281B31094FEF26
:1010300050E002C0559547952A95E2F701C0440F4C
:101040009A95EAF74B87081B68E070E0601B71090E
:101050007E836D838FEF90E00D8002C0959587951C
:101060000A94E2F78E87E42CE694E694E694EC9CEE
:10107000700111248F89988D8E0D9F1D9D878C87FF
:10108000AF81B885EA0EFB1EB12CA12CA11608F089
:101090004AC0F70161917F01FB856F23262F30E065
:1010A0000B8002C0359527950A94E2F7622F002342
:1010B000A1F0EC85FD85EA0DFB1D4F815885E40FFD
:1010C000F51F80815E858523682F70E00D8002C04A
:1010D000660F771F0A94E2F7622B70E0098002C066
:1010E000660F771F0A94E2F7D40116962D913C9172
:1010F0001797229EC001239E900D329E900D1124C1
:10110000860D971D8A0D9B1D91962D913C914989C5
:10111000820F931FEF85F8890995FFEFAF1ABF0A79
:10112000B5CF87E059CFD50C450CA98DBA8D9496D3
:101130008D919C9195976816790624F495967C92EA
:101140006E929497E98DFA8D86A197A129853A85AB
:101150008217930714F437A326A33FEF231A330A09
:10116000498D5A8D4C5F5F4F5A8F498F1DCF6A96BC
:101170000FB6F894DEBF0FBECDBFDF91CF911F91A8
:101180000F91FF90EF90DF90CF90BF90AF909F9026
:101190008F907F906F905F904F903F902F90089529
:1011A000EF920F930150040F2150260FDC01ED91B7
:1011B000FC910680F781E02D09950F91EF9008953D
:1011C0002F923F924F925F926F927F928F929F9257
:1011D000AF92BF92CF92DF92EF92FF920F931F9345
:1011E000CF93DF93CDB7DEB729970FB6F894DEBF64
:1011F0000FBECDBF4C01F42EFC018681978168178C
:10120000190608F0A6C0041710F4F02E042FF401FC
:10121000808591850817190610F00FEF080FAF2C85
:10122000A694A694A694802F8695869586952617D3
:1012300018F4962F622F292FF401EA59FF4F0190DD
:10124000F081E02DEE0FFF1FEC56FC4F40815181E5
:101250005A834983B12C6501CC0CDD1CCC0CDD1C00
:10126000C80CD91CE82FF0E0FC83EB83402F50E042
:101270005E834D8307700F83862F90E09987888760
:10128000022F10E0EB81FC81EA15FB050CF461C034
:10129000FF2DF7703F2E8F2D90E008968F1B910940
:1012A0002D813E814F802817390714F087E0482EA2
:1012B00087E090E0841991094FEF50E002C0559506
:1012C00047958A95E2F7CA01032C01C0880F0A945A
:1012D000EAF7282E582EE11001C0512C6884798439
:1012E00006151705CCF0F40126813781A29EC001B6
:1012F000A39E900DB29E900D1124860D971D21A1E5
:1013000032A1422D652D820F931FE981FA81099543
:10131000FFEF6F1A7F0AE4CF81E08319F80EF40C17
:10132000F60184A195A1288539852817390714F479
:1013300035A324A3F60186A197A18017910714F481
:1013400017A306A3FFEFAF1ABF0A24E0C20ED11CF9
:1013500099CF29960FB6F894DEBF0FBECDBFDF91AF
:10136000CF911F910F91FF90EF90DF90CF90BF90A2
:10137000AF909F908F907F906F905F904F903F9035
:101380002F9008954F925F926F927F928F929F92CB
:10139000AF92BF92CF92DF92EF92FF920F931F9383
:1013A000CF93DF935C01FC01808591854817190676
:1013B00008F063C0261718F4862F622F282FF50136
:1013C000868197812817190610F02FEF280FE42F38
:1013D000E770F0E0E45FFE4F5080F501EA59FF4FFF
:1013E0000190F081E02DEE0FFF1FEC56FC4F608066
:1013F0007180C62ED12C469546954695C42FD0E0D7
:10140000C89FA001C99F500DD89F500D11244C0DAD
:101410005D1DF50181A192A1840F951F452CE1105E
:1014200001C0412C46017C01EC18FD08022F10E0A0
:10143000C701880D991D0815190544F0452D642D27
:10144000F3010995FFEF8F1A9F0AF2CFCC0FDD1F32
:10145000CC0FDD1FF501EC0FFD1F84A195A1C8166F
:10146000D90614F4D5A2C4A2CA0DDB1D8EA19FA17A
:101470008017910714F41FA30EA3DF91CF911F9142
:101480000F91FF90EF90DF90CF90BF90AF909F9023
:101490008F907F906F905F904F900895CF92DF92E2
:1014A000EF92FF920F931F93CF93DF938C01E62E61
:1014B000F12CFC01A681B781EA16FB0608F049C0B1
:1014C000808591854817190608F043C0E42FE7701E
:1014D000F0E0E45FFE4F3081F801EA59FF4F0190E0
:1014E000F081E02DEE0FFF1FEC56FC4FC080D18045
:1014F0002111232F842F869586958695C82FD0E0BD
:10150000CA9FC001CB9F900DDA9F900D11248E0DC4
:101510009F1DF801A1A1B2A1432F622F8A0F9B1F2B
:10152000F6010995CC0FDD1FCC0FDD1FF801EC0F84
:10153000FD1F84A195A1E816F90614F4F5A2E4A212
:10154000C00FD11F8EA19FA18E159F0514F4FFA27D
:10155000EEA2DF91CF911F910F91FF90EF90DF905E
:10156000CF900895FC018081942F9095982368274F
:101570004623492B40830895FC01208191E02111ED
:1015800090E092274923422740830895FC018081FF
:1015900091E0611190E098274923482740830895FE
:1015A000FC01942F9095808198236423692B60839C
:1015B00008950F93DC011696ED91FC9117976E1725
:1015C0001F0658F41896ED91FC9119974E171F06B7
:1015D00020F45C96ED91FC9109950F9108957F920E
:1015E0008F929F92AF92BF92CF92DF92EF92FF9233
:1015F0000F931F93CF93DF936C01F62EB42EA02E82
:1016000011E0121B922E9194990CC22F022F040FFD
:10161000421BDC015096ED91FC91EA2C262F099596
:10162000D0E0DC170CF03FC017FD04C0C15093940C
:101630009394190DDF5F8D2F880F8F5F180F6F2D1B
:101640006D0FD6015096ED91FC91EA2C7C2E7B0C0F
:10165000072D262F8B2C8C1A482DC60109956F2D2E
:101660006D1BD6015096ED91FC91262F482DC60199
:1016700009957B2C7D0E8B2C8D1AD6015096ED9101
:10168000FC91072D6C2F6F0D262F482DC601099553
:10169000D6015096ED91FC916F2D6C1B262F482D95
:1016A000C6010995BECFDF91CF911F910F91FF9099
:1016B000EF90DF90CF90BF90AF909F908F907F90F2
:1016C00008958F929F92AF92BF92CF92DF92EF9246
:1016D000FF920F931F93CF93DF93EC01B62EC42E8E
:1016E00081E0A82EA21A922E9194990C122F422FCB
:1016F0004C0DEA85FB85202FCE0109954C2D411B11
:10170000EA85FB85202F6B2DCE010995612F6B0D8E
:10171000EA85FB85202F4C2DCE0109956B2D611B91
:10172000EA85FB85202F4C2DCE010995F12CF11671
:101730000CF054C0A7FC04C0115093949394A90CCE
:10174000F3948F2D880F8F5FA80E8B2C8F0CEA855A
:10175000FB85202FE12EEC0C4E2D682DCE01099536
:10176000DB2CDF18EA85FB85202F4E2D6D2DCE0159
:101770000995EA85FB85202FEC2CE11A4E2D682D6A
:10178000CE010995EA85FB85202F4E2D6D2DCE01CA
:101790000995EC2CEF0CEA85FB85202F4E2DD12EE0
:1017A000DB0C6D2DCE010995EA85FB85202F4E2D92
:1017B000EB2CE11A6E2DCE0109958C2C8F18EA8541
:1017C000FB85202F482D6D2DCE010995EA85FB85DF
:1017D000202F482D6E2DCE010995A9CFDF91CF91F5
:1017E0001F910F91FF90EF90DF90CF90BF90AF903F
:1017F0009F908F900895BF92CF92DF92EF92FF92C9
:101800000F931F93CF93DF936C01F62ED42F2150AB
:10181000122F160F0150C02FC40FDC011E96ED9140
:10182000FC91042F212F0995D6011E96ED91FC9174
:101830000C2F212F4C2F6F2DC60109952C2F2D1BFE
:10184000330B233031059CF0DF5FD6015096ED91CC
:10185000FC912F2D4D2F6F2DC6010995D601509665
:10186000ED91FC91212F4D2F612FC6010995DF913C
:10187000CF911F910F91FF90EF90DF90CF90BF908D
:1018800008958F929F92AF92BF92CF92DF92EF9284
:10189000FF920F931F93CF93DF936C01B42EF22E20
:1018A000261B330BC90137FF03C091958195910920
:1018B000182F802F8B19990BEC0197FF03C0D1953E
:1018C000C195D1099C2E111116C0C11145C0D60178
:1018D0001A96ED91FC912E2D4B2DC601DF91CF91E3
:1018E0001F910F91FF90EF90DF90CF90BF90AF903E
:1018F0009F908F900994A12E1C1740F0AC2EC12F01
:10190000802F0F2DF82E8B2DB62E682F0B1530F053
:101910008F2DF62E682F802F0B2DB82EDC2FD6950D
:1019200088248394F61610F088248A94B016B0F0B8
:10193000D6011A96ED91FC912E2D402F6F2D191581
:1019400010F04F2D602FC6010995DA19D7FF02C09C
:10195000F80CDC0F0F5FEACFA12CD8CFDF91CF912D
:101960001F910F91FF90EF90DF90CF90BF90AF90BD
:101970009F908F900895FC01268D378D232B19F5AC
:101980002091500221111AC025E020934A0228E03C
:1019900020934B0210924C022FEF20934D022BEF1D
:1019A00034E030934F0220934E022AE031E030932E
:1019B00049022093480221E02093500228E432E0BB
:1019C000FC01378F268F08958CEB91E008950895E0
:1019D0000895089520912502260F3327331F2132C1
:1019E0003105ECF42091CD02FC0190E080E0243040
:1019F00069F082E00895A09125022191AC014B5F2E
:101A00005D4FA40FB52FB11D2C930196861798F347
:101A100080912502680F6093250280E0089581E09F
:101A200008951092CD0281E08093CC021092A7021B
:101A300061E082E10E94120461E083E10E941204ED
:101A4000E9EBF0E080818E7F808380818D7F8083D1
:101A500088E48093B80085E48093BC000895CF9318
:101A6000DF9391E0909304028823B9F0C091B8000D
:101A7000D091BA008091BC008A7B8093BC0060E06A
:101A800082E10E94120460E083E10E9412040E943D
:101A9000110DD093BA00C093B800DF91CF91089593
:101AA0008F929F92AF92BF92CF92DF92EF92FF926E
:101AB0000F931F93CF93DF93D091F602D13208F0AA
:101AC000D7C0182FC091F5020E9471046B017C01F0
:101AD0008091CD0281116BC082E08093CD02109382
:101AE000CC028FEF8093CB021092CA02D093C9022E
:101AF000A5EDB2E0E9EAF2E080E0D81391C01092DF
:101B0000A8028091A802CC0FC82BC093A802809194
:101B1000A702813009F088C01092A7020E947104C8
:101B20006B017C018091A8028093BB008091CF0261
:101B30009091D002A091D102B091D202892B8A2B30
:101B40008B2BA1F00E9471040091CF021091D00262
:101B50002091D1023091D2026C197D098E099F0922
:101B6000061717072807390708F442C08091BC0000
:101B700083FDD8CF85EC8093BC000E9471046B017B
:101B80007C018091CD02823009F450C08091CB025B
:101B90008F3F09F46FC08091CB02803209F46CC092
:101BA0008091CB02803309F469C084E026C0809123
:101BB000CF029091D002A091D102B091D202892B94
:101BC0008A2B8B2B09F484CF0E9471048090CF0262
:101BD0009090D002A090D102B090D2026C197D09F1
:101BE0008E099F0986169706A806B90608F070CFD9
:101BF0008091CE020E942F0D85E01092D4021092A7
:101C0000F6021092D302DF91CF911F910F91FF90B6
:101C1000EF90DF90CF90BF90AF909F908F900895FE
:101C20009D9191938F5F69CF85EEA5CF8091CF0273
:101C30009091D002A091D102B091D202892B8A2B2F
:101C40008B2B09F49ECF0E9471040091CF0210915A
:101C5000D0022091D1023091D2026C197D098E09F7
:101C60009F09061717072807390708F08ACFC0CF42
:101C700081E0C3CF80E0C1CF82E0BFCF83E0BDCFA2
:101C80007F928F929F92AF92BF92CF92DF92EF920C
:101C9000FF920F931F93CF93DF935C01962E842EB8
:101CA0007901C02FD12F772473942097A9F1F501E2
:101CB000808191817092D3029092F5021092D402A9
:101CC0001092F602DC01ED91FC910190F081E02D83
:101CD000682D09956E01C032D10518F08FE1C82E2C
:101CE000D12CF50180819181DC01ED91FC91028084
:101CF000F381E02DA601B7010995CC19DD09E80EA5
:101D0000F91E81E0209709F080E00E94500D8823A1
:101D100061F28FEF9FEF01C0C801DF91CF911F915A
:101D20000F91FF90EF90DF90CF90BF90AF909F907A
:101D30008F907F9008950F931F93CF93DF9300D0E0
:101D4000CDB7DEB769834A83FC01E659FF4F885956
:101D50009F4F02E010E09E012F5F3F4F40E0608107
:101D6000FC01808191810E94400E0F900F90DF91C5
:101D7000CF911F910F9108951F93CF93DF93162F4B
:101D8000FC01E859FF4FC081D18186599F4FDC018A
:101D90002C918881998131E03093D3022093F50210
:101DA0001092D4021092F602DC01ED91FC910190A8
:101DB000F081E02D60E0099588819981DC01ED9149
:101DC000FC910190F081E02D612F099581E0DF9178
:101DD000CF911F910C94500D2F923F924F925F9292
:101DE0006F927F928F929F92AF92BF92CF92DF922B
:101DF000EF92FF920F931F93CF93DF9300D000D009
:101E00001F92CDB7DEB77C0184969D838C83D12C45
:101E1000C12CF701EC59FF4F5F018A5B9F4F9B83F9
:101E20008A83170198E6290E311C90E8492E512C1F
:101E300066246A94762CF70183A18C151D0409F0A1
:101E40000CF48DC0EC81FD81808091800281138132
:101E5000F5019081992381F0EC81FD8120A131A1D0
:101E6000281539050CF44901EC81FD8122A133A12B
:101E7000021713070CF48901F0E88F16910409F496
:101E800065C089826C2DC816F0F4F70186819781B0
:101E900088161906C0F4606BC7010E94BC0EB4011D
:101EA00084E0759567958A95E1F76F707727606193
:101EB000F7018281680FC7010E94BC0E69816F70B3
:101EC000C7010E94BC0E0F5FF9810F1B10E0F701E4
:101ED00086819781C89E9001C99E300DD89E300D95
:101EE0001124820E931E21A132A1280D391D40E438
:101EF000EA81FB816081F101808191810E94400E25
:101F0000F5018081882331F0EC81FD8151A240A24E
:101F100073A262A2EC81FD818081918120A131A117
:101F20008217930714F491A380A3EC81FD81828131
:101F3000938122A133A12817390714F493A382A314
:101F4000EC81FD815182408273826282FFEFCF1A61
:101F5000DF0A8C819D8104969D838C836CCFF50173
:101F600010820F900F900F900F900F90DF91CF91F4
:101F70001F910F91FF90EF90DF90CF90BF90AF90A7
:101F80009F908F907F906F905F904F903F902F9099
:101F900008950895E0915D0280915C02E81730F4A5
:101FA000F0E0EC51FE4F808190E008958FEF9FEFBD
:101FB000089590915D0280915C022FEF3FEF98179A
:101FC00048F4E92FF0E0EC51FE4F208130E09F5FB4
:101FD00090935D02C901089580915C0290915D0229
:101FE000891B990B0895CF92DF92EF92FF920F9386
:101FF0001F93CF93DF937C01CB018A012091D30201
:10200000222389F0EB016B01C40ED51ECC15DD0532
:1020100069F06991D701ED91FC910190F081E02D7B
:10202000C7010995F3CF642F0E94EA0CC801DF9124
:10203000CF911F910F91FF90EF90DF90CF90089577
:10204000CF93DF931F92CDB7DEB769832091D30280
:102050002223F9F02091F602203258F021E030E0FE
:10206000FC013383228390E080E00F90DF91CF91D9
:1020700008958091D402E82FF0E0EB52FD4F998152
:1020800090838F5F8093D4028093F60281E090E08A
:10209000ECCF61E0CE0101960E94EA0CF7CF6F927F
:1020A0007F928F929F92AF92BF92CF92DF92EF92E8
:1020B000FF920F931F93CF93DF9300D0CDB7DEB77E
:1020C0007C01162F3C0184E0680E711CF70182A18F
:1020D00093A1892B19F4C3010E94BB0CF701A2A0A4
:1020E000B3A090E080E0A114B10409F451C06701ED
:1020F000F9E0CF1AFEEFDF0AF60140811A3099F1BC
:102100001D30D1F11A82198219834701FAE08F1A22
:10211000FEEF9F0AF701E850FE4F00819E012F5FFE
:102120003F4FF4016081C3010E94D90AF40180810C
:102130008F5FF5019281890FF4018083F50192810F
:10214000F70122853385291B310982171306A1F077
:1021500098F0F4011082F6018081F5019381890FD6
:10216000F601808309C0F701EA50FE4F1082F501A5
:102170008381480FF6014083F6012081F7018485B1
:1021800095852817190610F0F601108281E090E07D
:102190000F900F90DF91CF911F910F91FF90EF90D3
:1021A000DF90CF90BF90AF909F908F907F906F9077
:1021B0000895089590E080E00895CF93DF93FC01A7
:1021C00001900020E9F73197AF01481B590BBC0182
:1021D00087EF92E00E944106EC0142E050E062E6A7
:1021E00071E087EF92E00E9441068C0F9D1FDF9106
:1021F000CF9108952F923F924F925F926F927F926C
:102200008F929F92AF92BF92CF92DF92EF92FF9206
:102210000F931F93CF93DF93CDB7DEB72F970FB6F2
:10222000F894DEBF0FBECDBF7C01162F442E69018E
:102230000987DC015E96ED91FC91309709F4C8C0E6
:102240002115310509F4C4C0D9010D900020E9F72A
:1022500011971D01221A330A09F4BAC0B381B69549
:10226000B695B695BF87B11102C021E02F875524DE
:1022700053943F85313009F0512C2681378162819A
:1022800070E0C9010E94961F7B876A878F85829FB5
:10229000A001839F500D11245C834B83A081B181E9
:1022A0002D913C91CF01F90109959E838D834601C3
:1022B000252D30E03D872C87D4018D914D01D7012C
:1022C0005E96ED91FC91082E000C990B2481821BE7
:1022D000910925812817190609F008F46BC06A8551
:1022E0007B850E94961F4281489F9001499F300D37
:1022F0001124EB81FC816E9FC0016F9F900D7E9F2A
:10230000900D1124A901480F591F58874F83042DA0
:10231000B12CA12C712E272D211BD7015E96ED919A
:10232000FC913281822F90E04C855D85430F511DD9
:1023300084179507BCF5BF85B13011F4321781F1D0
:1023400026813781A29EF001A39EF00DB29EF00D72
:1023500011242F813885E20FF31FE80FF91F4D81FB
:102360005E81E40FF51F54915E878CE091E09A83C3
:102370008983612CA981BA818D91BA83A983BE8595
:102380008B2351F0D7011A96ED91FC912985462DAA
:10239000400F672DC70109956394B8E06B12EACF2F
:1023A0007394B9CFEFEFAE1ABE0A085FFF85AF1680
:1023B00008F4B0CFD7015E96ED91FC918281850D36
:1023C000180FC4018C199D09821593050CF474CF64
:1023D0002F960FB6F894DEBF0FBECDBFDF91CF9121
:1023E0001F910F91FF90EF90DF90CF90BF90AF9033
:1023F0009F908F907F906F905F904F903F902F9025
:1024000008958F929F92AF92BF92DF92EF92FF92C8
:102410000F931F93CF93DF93FC0121A132A1232BB4
:1024200009F460C0EC01D12C90E8892E912CAA24EB
:10243000AA94BA2C8BA1D81608F050C06D2D70E06C
:102440008B01000F111F000F111F7E01E00EF11E06
:10245000F701EC5BFF4F80819181F70124A135A149
:102460008217930714F495A384A3FE01E00FF11FD4
:10247000DF01AA5BBF4F8D919C9126A137A1281740
:10248000390714F497A386A3F70124A135A12038B6
:10249000310511F10C0F1D1FF80146A157A1421B78
:1024A000530B4F5F5F4FEE81FF816E9FC0016F9FA7
:1024B000900D7E9F900D1124820F931F29A13AA1A8
:1024C00070E060E0820F931F0E946E21F70195A2D9
:1024D00084A2F801B7A2A6A2D394ACCFCC59DF4F07
:1024E00081E08883DF91CF911F910F91FF90EF9052
:1024F000DF90BF90AF909F908F90089585ED80936F
:10250000BC008091CF029091D002A091D102B091F5
:10251000D2020796A11DB11D23E0B695A795979508
:1025200087952A95D1F72091BC0024FD03C0109215
:10253000CD0208954091CF025091D0026091D10216
:102540007091D202452B462B472B69F30097A105CA
:10255000B10541F02AE22A95F1F700C00197A109DF
:10256000B109E1CF8091CE020C942F0D2F923F92B2
:102570004F925F926F927F928F929F92AF92BF9293
:10258000CF92DF92EF92FF920F931F93CF93DF933F
:10259000CDB7DEB7C058D1090FB6F894DEBF0FBE75
:1025A000CDBF9C0120593F4F29F0DC0192963C930E
:1025B0002E9391974C01BBE68B0E911C22E1F40106
:1025C00020835C01FCE6AF0EB11C21EFD5012C93FA
:1025D0008C0103591F4F20E4F80120832C01FFE6F2
:1025E0004F0E511CD2013C90311069C03C01B8E63D
:1025F0006B0E711CF30120813181232B09F45FC024
:102600006C01FAE6CF0ED11CD6012C91222309F4DD
:1026100056C0FC0141A152A1452B09F450C07C01D8
:10262000222423942092D3022093F5021092D40204
:102630001092F60281E00E94500D811140C0D70136
:102640005E968D919C91892B11F58091500281119C
:1026500019C085E080934A0288E080934B02109273
:102660004C028FEF80934D028BEF94E090934F02DA
:1026700080934E028AE091E0909349028093480251
:102680002092500288E492E0F701978F868FD7015D
:10269000ED91FC91119784E11A9601900D928A9523
:1026A000E1F7F70182859385895E9C4019F5609179
:1026B0000A0670910B0685E691E00E947521832D34
:1026C000C058DF4F0FB6F894DEBF0FBECDBFDF910D
:1026D000CF911F910F91FF90EF90DF90CF90BF901F
:1026E000AF909F908F907F906F905F904F903F90B2
:1026F0002F900895D7011E968D919C91885E9C40E5
:1027000029F4F7018485958597878687D7015096A8
:102710008D919C91885E9C4029F4F7018485958574
:10272000918B808BD70154968D919C91885E9C40B3
:1027300029F4F70182899389958B848BD701589668
:102740008D919C91875E9C4029F4F7018689978939
:10275000918F808F6EEAC7010E94BC0E40E865ED44
:10276000C7010E949B0ED70118964C91415068EA10
:10277000C7010E949B0E40E063EDC7010E949B0EC3
:1027800060E4C7010E94BC0E44E16DE8C7010E94ED
:102790009B0E42E060E2C7010E949B0E66EAC70101
:1027A0000E94BC0E64EAC7010E94BC0E61EAC70128
:1027B0000E94BC0E68ECC7010E94BC0EF40140816F
:1027C0006AEDC7010E949B0EF701E259FF4F40815D
:1027D00061E8C7010E949B0ED5014C9169EDC701CC
:1027E0000E949B0EF80140816BEDC7010E949B0E79
:1027F0006EE2C7010E94BC0E6FEAC7010E94BC0EC8
:10280000D70118962D913C91199783E0369527951D
:102810008A95E1F793962C93939791968D919C913D
:102820009297009761F016966D917C91269FA0017A
:10283000279F500D112470E060E00E946E21F70187
:1028400023A130E0B49690E080E060E870E04FEFC4
:102850005FEF821793075CF4718360835383428335
:1028600071A360A353A342A301963496F2CFF7015C
:10287000EC59FF4F1082CE0101965C0180E8D50132
:102880001D928A95E9F7912CF70183A19816A0F47F
:1028900086819781892B81F0692D606BC7010E9429
:1028A000BC0ED70112966C91605FC7010E94BC0EEE
:1028B00060E0C7010E94BC0E00E810E0950140E412
:1028C000F6016081D3018D919C910E94400E9394FA
:1028D000B8E09B12D9CF81E0F20180833324339496
:1028E000EECE1F920F920FB60F9211242F933F93AB
:1028F0008F939F93AF93BF9380918E0290918F029D
:10290000A0919002B091910230918D0223E0230FAB
:102910002D3758F50196A11DB11D20938D0280938E
:102920008E0290938F02A0939002B09391028091B7
:10293000920290919302A0919402B0919502019617
:10294000A11DB11D8093920290939302A0939402D3
:10295000B0939502BF91AF919F918F913F912F912D
:102960000F900FBE0F901F90189526E8230F029628
:10297000A11DB11DD2CF1F920F920FB60F9211243D
:102980002F933F934F935F936F937F938F939F9377
:10299000AF93BF93EF93FF9380919B0290919C0222
:1029A000A0919D02B0919E02892B8A2B8B2BD1F195
:1029B00090919602E0919702F09198028081892788
:1029C000808380919B0290919C02A0919D02B09186
:1029D0009E02181619061A061B069CF480919B028B
:1029E00090919C02A0919D02B0919E020197A10935
:1029F000B10980939B0290939C02A0939D02B09397
:102A00009E02FF91EF91BF91AF919F918F917F9126
:102A10006F915F914F913F912F910F900FBE0F904B
:102A20001F901895809105010E94CB04EACF1F9258
:102A30000F920FB60F9211242F933F934F935F93F2
:102A40006F937F938F939F93AF93BF93EF93FF9376
:102A500087EF92E00E94BF06FF91EF91BF91AF9187
:102A60009F918F917F916F915F914F913F912F91A6
:102A70000F900FBE0F901F9018951F920F920FB6D8
:102A80000F9211242F938F939F93EF93FF93E091D5
:102A90000703F09108038081E0910D03F0910E038C
:102AA00082FD1BC09081809110038F5F8F732091F6
:102AB0001103821741F0E0911003F0E0E950FD4F5F
:102AC000958F80931003FF91EF919F918F912F919C
:102AD0000F900FBE0F901F9018958081F4CF1F921A
:102AE0000F920FB60F9211242F933F934F935F9342
:102AF0006F937F938F939F93AF93BF93EF93FF93C6
:102B00008091B900887F803609F44AC0F0F5883298
:102B100009F4A7C018F5803109F49BC0B8F48823E4
:102B200009F4F9C0883009F494C0FF91EF91BF9186
:102B3000AF919F918F917F916F915F914F913F9155
:102B40002F910F900FBE0F901F901895883109F4A8
:102B500088C0803251F78093CB0214C0803409F4CE
:102B60009DC040F48033B9F38833F9F68093CB02EB
:102B700085ECB0C0803509F485C0883509F496C06D
:102B8000883499F60E947E12D0CF883909F48CC01F
:102B900038F5883729F050F4883611F0803729F657
:102BA00083E08093CD021092470257C0883809F421
:102BB0007BC0803919F0803809F0B7CF8091470287
:102BC000803208F071C0E091470281E08E0F80935F
:102BD00047028091BB00F0E0E95DFD4F80833DC07E
:102BE000803B39F0E0F4803A09F479C0883A09F082
:102BF0009CCF84E08093CD02109226021092250291
:102C0000E0915A02F0915B020995809125028111B1
:102C10000FC081E0809325021092050209C0803C1C
:102C200009F4A6CF883C09F4A3CF883B09F07DCFF7
:102C3000E091260281E08E0F80932602F0E0EB5FA8
:102C4000FD4F80818093BB009091260280912502E8
:102C500029C08091A8028093BB0085EC8093BC00C2
:102C600064CF9091CA028091C902981758F5E091FB
:102C7000CA0281E08E0F8093CA02F0E0E755FD4F53
:102C80008081E9CFE091CA0281E08E0F8093CA0271
:102C90008091BB00F0E0E755FD4F80839091CA0220
:102CA0008091C9029817C8F285E8D8CFE091CA028E
:102CB00081E08E0F8093CA028091BB00F0E0E7555F
:102CC000FD4F80838091CC0281115CCF81E08093A5
:102CD000A70284EA8093BC001092CD0226CF85EC37
:102CE0008093BC001092CD0280914702803230F474
:102CF000E0914702F0E0E95DFD4F108260914702EC
:102D000070E0E0915802F091590287E292E0099553
:102D1000109247020ACF1092CB0234CF0F931F9329
:102D2000CF93DF93E7EFF2E01382128288EE93E015
:102D3000A0E0B0E084839583A683B78328E131E0E7
:102D40003183208325EC30E03587248724EC30E084
:102D50003787268720EC30E0318B208B21EC30E068
:102D6000338B228B22EC30E0358B248B26EC30E049
:102D7000378B268B118E128E138E148EE4E9F3E0BE
:102D800020ED3AE03183208326EC3AE0338322833E
:102D90002CEB3AE03583248322EB3AE03783268319
:102DA00024EB33E0318720872BEB33E03387228716
:102DB000E0EAF3E01382128284839583A683B783CB
:102DC0008AE291E091838083C7EBD5E01C821D826B
:102DD0001E821F82188619861A861B861C861D86EF
:102DE0001E861F861EA61FA618AA81E089AB1AAAF6
:102DF0008FEA95E09BA78AA783EB95E099A788A720
:102E00008BEA95E09DA78CA71BAE1CAE1DAE1EAE37
:102E100080E090E0AFE7B3E48093F6059093F70588
:102E2000A093F805B093F90580EA96E8A1E0B0E038
:102E30008BAB9CABADABBEAB188219821A821B82E6
:102E40001C8E1D8E1E8E1F8E18A219A21AA21BA2E6
:102E50001CA21DA21EA21FA20E9471040BA91CA9E4
:102E60002DA93EA9601B710B820B930B6FAB78AF42
:102E700089AF9AAFE5EAF5E0C2E0D0E0D183C08344
:102E80008FEF9FEF938382831582148261E082E04B
:102E90000E944004ECEAF3E013821282D783C683D7
:102EA0001186108680E490E09387828780E390E02B
:102EB000958784878CE391E0958384838DE384A355
:102EC0001092A1051092A0058AE591E0918380837C
:102ED000DF91CF911F910F910895CF93DF93CDB7DD
:102EE000DEB72A970FB6F894DEBF0FBECDBF789439
:102EF00084B5826084BD84B5816084BD85B58260FF
:102F000085BD85B5816085BD80916E0081608093AF
:102F10006E00109281008091810082608093810018
:102F20008091810081608093810080918000816028
:102F3000809380008091B10084608093B100809183
:102F4000B00081608093B00080917A0084608093AB
:102F50007A0080917A00826080937A0080917A0072
:102F6000816080937A0080917A00806880937A00F3
:102F70001092C10064EF71E080E090E00E9496043E
:102F8000E0910703F091080382E08083E09103035E
:102F9000F09104031082E0910503F09106038FEC99
:102FA000808310920F03E0910B03F0910C0386E0F5
:102FB0008083E0910903F0910A038081806180831E
:102FC000E0910903F0910A03808188608083E09199
:102FD0000903F0910A03808180688083E0910903EE
:102FE000F0910A0380818F7D808364EF71E080E03F
:102FF00090E00E94960462E083E00E94400462E058
:1030000086E00E94400462E085E00E94400461E0A6
:103010008AE00E94400461E088E00E94400461E090
:1030200089E00E94400411E040EAC42E43E0D42E1F
:1030300059ECA52E54E0B52E6AEC862E64E0962E4F
:1030400070EAE72E75E0F72E8091B6039091B703F2
:10305000892B51F08091B8039091B903892B21F00D
:103060001092A2051092A3051093A4058091A005CB
:103070009091A105892BB1F4D092A105C092A00531
:1030800010925D0210925C021092D4021092F6022D
:103090000E94110DB0925B02A0925A0290925902C6
:1030A000809258028091D003F0921904E0921804A3
:1030B00080931A0480EB93E00E94B612882309F4EF
:1030C0007AC38091CE039091CF03892B21F480EBBA
:1030D00093E00E94BB0CE091CE03F091CF033097B8
:1030E00019F083818093A30501E022ED31E040E0F7
:1030F00060E080EB93E00E94D90A22ED31E04AE0E3
:1031000060E080EB93E00E94D90A22ED31E044E1D7
:1031100060E080EB93E00E94D90A22ED31E04EE1BD
:1031200060E080EB93E00E94D90A22ED31E048E2B2
:1031300060E080EB93E00E94D90A80EB93E00E946C
:10314000EC0E64EF71E080E090E00E94960480EB6A
:1031500093E00E94011280EB93E00E94EC0E8091BC
:10316000860290918702A0918802B0918902809393
:10317000B3059093B405A093B505B093B60510922E
:10318000B7051092B8051092B9051092BA05812CB6
:10319000912C80E2A82E81E4B82E8092BB059092FB
:1031A000BC05A092BD05B092BE051092BF0510925D
:1031B000C0051092C1051092C2051092C30510926D
:1031C000C4051092C5051092C6056091EA0570917C
:1031D000EB058091EC059091ED050E94401E20E0EA
:1031E00034E244E759E40E9472206B017C01809232
:1031F000D3059092D405A092D505B092D60520E0D3
:1032000030E0A9010E94A11E6093D7057093D805F4
:103210008093D9059093DA05A701960160E070E0EC
:10322000CB010E9472206093DB057093DC058093D4
:10323000DD059093DE058091E50581114EC0E0919A
:10324000E105F091E205A080B180C280D380C50184
:10325000D6018093B7059093B805A093B905B093B4
:10326000BA05E091DF05F091E00580819181A281AE
:10327000B3818093020690930306A0930406B09353
:103280000506E090F205F090F3050091F405109129
:10329000F5059701A801B501C6010E943B1E87FDF7
:1032A00012C0E090F605F090F7050091F805109136
:1032B000F9059701A801B501C6010E94E42018167E
:1032C00014F075018601C701D8018093B70590936A
:1032D000B805A093B905B093BA0581E08093E505E0
:1032E0001092F2051092F3051092F4051092F50574
:1032F00080E090E0AFE7B3E48093F6059093F705A4
:10330000A093F805B093F9050091E1051091E2054D
:10331000F801C080D180E280F38020E030E0A90194
:10332000C701B6010E943B1E87FDDDC020E030E0F2
:103330004FE753E4C701B6010E94E42018160CF4CD
:10334000D6C0F801C082D182E282F382A090B70594
:10335000B090B805C090B905D090BA05E090F205DC
:10336000F090F3050091F4051091F5059701A8017F
:10337000B501C6010E943B1E87FD12C0E090F60514
:10338000F090F7050091F8051091F9059701A80153
:10339000B501C6010E94E420181614F075018601DB
:1033A000C701D8018093B7059093B805A093B905DC
:1033B000B093BA05CE0101966C019EE5E92E92E02C
:1033C000F92E21EC222E21E0322E90E490937C0005
:1033D00080917A00806480937A0080917A0086FDE3
:1033E000FCCF6091780070917900072E000C880B5B
:1033F000990B0E94421E20E030EC4FE754E40E94FB
:10340000722020E030E040EA50E40E94A11E2B012F
:103410003C0120E030E44CE156E40E94A11E4B0147
:103420005C01A301920160E070E080EA90E40E94F8
:1034300005209B01AC01C501B4010E94722020E06F
:1034400030E543EC57E40E9472200E94F12025E60B
:103450003FEC4BE859E30E94A11E22E63BEE4BE510
:103460005BE30E9406209B01AC0160E070E080E815
:103470009FE30E94722023E333E948E853E40E946B
:10348000052026E636E646EE5FE30E94A11E20E018
:1034900030E040E052E40E9406202B013C014092C3
:1034A000860250928702609288027092890280910F
:1034B0008B0290918C02009709F1019709F475C075
:1034C00062E370E080E090E00E949604E0E0F0E0CB
:1034D000EF2B09F47ACF0E94AB06882309F475CF4D
:1034E0000E94000072CFC12CD12C76012ACFC12CB2
:1034F000D12C3FE7E32E33E4F32E23CF10918A0241
:103500001093040120E030E040EF52E4C301B20127
:103510000E94E42061E018165CF020E030E040EF0B
:1035200052E4C301B2010E943B1E87FF04C060E069
:103530008AE00E94120461E089E00E94400460E099
:1035400089E00E94120483E00E94E90321E00097D1
:1035500009F420E020938A02892B09F0B1CF1123CE
:1035600009F4AECF61E08AE00E94120461E088E0D5
:103570000E9412041092040164E670E083E992E074
:103580000E94F70464E670E08AEB92E00E94F70480
:1035900064E670E080E193E00E94F704E1E0F0E08F
:1035A000F0938C02E0938B028BCF80918A02809300
:1035B000040180EB93E00E94011201E02EEA31E069
:1035C00040E060E080EB93E00E94D90A60918602BF
:1035D000709187028091880290918902860122E091
:1035E00043E00E94E61BDF92CF9284EB91E09F9331
:1035F0008F931F92F8E2FF93FF92EF920E949C211B
:1036000001E02EE532E04AE060E080EB93E00E94CA
:10361000D90A8EE592E00E94DD1029EB31E049E104
:1036200060E080EB93E00E94D90A809103018F93C0
:10363000809102018F933F922F921F9228E22F9345
:10364000FF92EF920E949C212EE532E043E260E07F
:1036500080EB93E00E94D90A80EB93E00E94EC0E8D
:103660000091020110910301B801012E000C880B9A
:10367000990B0E94421E2B013C0180908602909083
:103680008702A0908802B09089020FB6F894DEBF3E
:103690000FBECDBFA50194010E94E42018160CF0C6
:1036A0007CC061E089E00E94400461E089E00E9402
:1036B000120486E00E94E90377247394009709F4CA
:1036C000712C892B81F480910101882361F00B5FBB
:1036D0001F4F109303010093020162E370E080E149
:1036E00093E00E94F7047092010185E00E94E903D3
:1036F00011E0009709F410E0892B99F48091000102
:10370000882379F0809102019091030105979093AD
:1037100003018093020162E370E08BE092E00E947B
:10372000F7041093000183E00E94E90321E0009771
:1037300009F420E020938A02892B09F0C1CE809100
:103740000401882309F4BCCE60E08AE00E941204E0
:1037500060E088E00E9412041092040164E670E0C8
:1037600080E193E00E94F70464E670E08AEB92E067
:103770000E94F70464E670E083E992E00E94F70497
:1037800080EB93E00E94011280EB93E00E94EC0E2C
:1037900010928C0210928B0293CEA5019401C3016A
:1037A000B2010E943B1E87FF84CF61E089E00E9446
:1037B000400460E07BCF86EC91E00E94DD1068EE73
:1037C00073E080E090E00E9496043ECCEF920F936D
:1037D0001F93CF93DF93E80134E047FD34E1042EDB
:1037E000000C550B57FF03C0519541955109E32E2D
:1037F000022F242FAE010E94041CCE01DF91CF9135
:103800001F910F91EF900895A9E0B0E0EAE0FCE18C
:103810000C94651F6A01F22EB02E102FFBE3AF2E21
:10382000A01608F41BE31F5F012F27E0AE014F5FD6
:103830005F4F0E94631DBC018981982F9970913060
:1038400009F43FC09BE2E1FC04C09E2D9170E0FCB6
:103850003AC05E2D5071E82FE87083FF46C084E0C7
:10386000911101C083E0EF2DE81B8F1508F0E0E017
:10387000D6018E2F20E2552351F1992329F0D6014C
:103880009C93C60101966C0196012D5F3F4FE2FEAD
:1038900024C08EE4D6018C9391E411969C931197E9
:1038A00012968C93D9018E2F90E281111BC0E20FEA
:1038B000F32FF11D10828EEF9FEF2996ECE00C9410
:1038C000811F9DE2C6CF90E2C4CF2D93815081111C
:1038D000FCCFCE0ED11CE0E0D0CF8EE6D6018C938B
:1038E00091E6DBCF9D938150E0CF482F447082FF5B
:1038F0003DC084E0911101C083E08F1510F4EF2DDD
:10390000E81BD6018E2F20E2552309F1992329F0D7
:10391000D6019C93C60101966C0196012D5F3F4F25
:10392000E2FE1BC089E4D6018C938EE411968C9341
:10393000119786E412968C93D9018E2F90E28823FA
:1039400009F4B5CF9D938150FACF2D938150811109
:10395000FCCFCE0ED11CE0E0D9CF89E6D6018C9306
:103960008EE611968C93119786E6E4CF9B0177FF44
:1039700002C030E020E0A1E0B0E0911102C0B0E070
:10398000A0E0F9013196AE0FBF1F8B2C912CBB200C
:1039900009F461C05401EFEFAE1ABE0AAA0DBB1DB7
:1039A000FA161B0619F014F04F2D4A1B511188C04E
:1039B000E3FC59C07601A42FB0E2A1114FC0C40EA0
:1039C000D11C992309F45BC040E0D6011196F601A1
:1039D00090836D01552309F448C0012F060F9A8189
:1039E000582F507184FF03C0913309F40150101611
:1039F0000CF047C0093008F008E0EEE2FE2E5B0153
:103A0000A01AB10885019194819491082F3F320743
:103A100029F4D601FC92F60131966F016217730703
:103A200094F1021713077CF5DB01A21BB30BAA2448
:103A3000A394B12CAC0EBD1EAA0DBB1D11968C918A
:103A400021503109D601119628153905F4F0F601F7
:103A500080836D01DBCFB12CA12CA0CFF701B193F6
:103A60007F01A150AACF9111B0CFD601942F50E37E
:103A700002C05D9391509111FCCFC40ED11C40E067
:103A8000ACCF01E0BACF80E3DBCF6217730731F42C
:103A9000963388F4953311F4552369F0F601808349
:103AA000FD01842F90E2811108C0A40FB11D1C926A
:103AB00090E080E002CF81E3F1CF91938150F3CF8A
:103AC000911183CF8ACF283008F027E03327DA011D
:103AD000990F311D87FD916000966105710539F4DC
:103AE00032602E5F3D9330E32A95E1F708959F3FC2
:103AF00030F080387105610509F03C5F3C5F3D9313
:103B0000913008F08068911DDF93CF931F930F933E
:103B1000FF92EF92192F987F9695E92F969596959B
:103B2000E90FFF27E45EFE4F99273327EE24FF2499
:103B3000A701E70105900894079428F4360FE71EC3
:103B4000F81E491F511D660F771F881F991F069485
:103B5000A1F70590079428F4E70EF81E491F561F99
:103B6000C11D770F881F991F661F0694A1F7059046
:103B7000079428F4F80E491F561FC71FD11D880F40
:103B8000991F661F771F0694A1F70590079420F4EC
:103B9000490F561FC71FD81F990F661F771F881F11
:103BA0000694A9F784911095177041F0D695C795A2
:103BB00057954795F794E7941A95C1F7E2ECF0E032
:103BC00068941590159135916591959105907FE2D6
:103BD0007395E118F10A430B560BC90BD009C0F7D6
:103BE000E10CF11E431F561FC91FD01D7EF4703318
:103BF00011F48A95E6CFE894015030F0080F0AF4EA
:103C00000027021708F4202F2395022F7A3328F07B
:103C100079E37D932A95E9F710C07D932A9589F67B
:103C2000069497956795379517951794E118F10ABB
:103C3000430B560BC90BD00998F023957E917395D1
:103C40007A3308F070E37C932013B8F77E917061AB
:103C50007D9330F0839571E37D9370E32A95E1F7CE
:103C60001124EF90FF900F911F91CF91DF91992731
:103C700087FD909508950E947D1E08F481E00895C7
:103C8000E89409C097FB3EF49095809570956195F6
:103C90007F4F8F4F9F4F9923A9F0F92F96E9BB27AC
:103CA0009395F695879577956795B795F111F8CF28
:103CB000FAF4BB0F11F460FF1BC06F5F7F4F8F4F93
:103CC0009F4F16C0882311F096E911C0772321F089
:103CD0009EE8872F762F05C0662371F096E8862F21
:103CE00070E060E02AF09A95660F771F881FDAF778
:103CF000880F9695879597F90895990F0008550FA5
:103D0000AA0BE0E8FEEF16161706E807F907C0F061
:103D100012161306E407F50798F0621B730B840B69
:103D2000950B39F40A2661F0232B242B252B21F443
:103D300008950A2609F4A140A6958FEF811D811DE3
:103D400008950E94B41E0C94251F0E94171F38F07E
:103D50000E941E1F20F0952311F00C940E1F0C944E
:103D6000141F11240C94591F0E94361F70F3959F45
:103D7000C1F3950F50E0551F629FF001729FBB2762
:103D8000F00DB11D639FAA27F00DB11DAA1F649FFE
:103D90006627B00DA11D661F829F2227B00DA11DB1
:103DA000621F739FB00DA11D621F839FA00D611D37
:103DB000221F749F3327A00D611D231F849F600D58
:103DC000211D822F762F6A2F11249F5750409AF081
:103DD000F1F088234AF0EE0FFF1FBB1F661F771F0D
:103DE000881F91505040A9F79E3F510580F00C94D8
:103DF0000E1F0C94591F5F3FE4F3983ED4F3869551
:103E000077956795B795F795E7959F5FC1F7FE2B77
:103E1000880F911D9695879597F9089597F99F6753
:103E200080E870E060E008959FEF80EC0895002442
:103E30000A941616170618060906089500240A940F
:103E400012161306140605060895092E0394000C95
:103E500011F4882352F0BB0F40F4BF2B11F460FF24
:103E600004C06F5F7F4F8F4F9F4F089557FD90584D
:103E7000440F551F59F05F3F71F04795880F97FB2E
:103E8000991F61F09F3F79F08795089512161306E8
:103E90001406551FF2CF4695F1DF08C01616170617
:103EA0001806991FF1CF869571056105089408954C
:103EB000E894BB2766277727CB0197F908952F92BF
:103EC0003F924F925F926F927F928F929F92AF92AA
:103ED000BF92CF92DF92EF92FF920F931F93CF93F7
:103EE000DF93CDB7DEB7CA1BDB0B0FB6F894DEBF8E
:103EF0000FBECDBF09942A88398848885F846E84B4
:103F00007D848C849B84AA84B984C884DF80EE80FD
:103F1000FD800C811B81AA81B981CE0FD11D0FB606
:103F2000F894DEBF0FBECDBFED010895AA1BBB1BE9
:103F300051E107C0AA1FBB1FA617B70710F0A61BA9
:103F4000B70B881F991F5A95A9F780959095BC01CA
:103F5000CD01089597FB072E16F4009407D077FD46
:103F600009D00E94961F07FC05D03EF490958195DC
:103F70009F4F0895709561957F4F0895052E97FB8B
:103F80001EF400940E94D51F57FD07D00E94DD1F2C
:103F900007FC03D04EF40C94D51F509540953095F6
:103FA00021953F4F4F4F5F4F0895909580957095A5
:103FB00061957F4F8F4F9F4F0895A1E21A2EAA1B44
:103FC000BB1BFD010DC0AA1FBB1FEE1FFF1FA217C9
:103FD000B307E407F50720F0A21BB30BE40BF50BC6
:103FE000661F771F881F991F1A9469F7609570954F
:103FF000809590959B01AC01BD01CF010895EE0F16
:10400000FF1F0590F491E02D09945058BB27AA2773
:104010000E941D200C94251F0E94171F38F00E943B
:104020001E1F20F039F49F3F19F426F40C94141F3E
:104030000EF4E095E7FB0C940E1FE92F0E94361F4B
:1040400058F3BA17620773078407950720F079F4CD
:10405000A6F50C94581F0EF4E0950B2EBA2FA02D48
:104060000B01B90190010C01CA01A0011124FF2725
:10407000591B99F0593F50F4503E68F11A16F04020
:10408000A22F232F342F4427585FF3CF469537951F
:104090002795A795F0405395C9F77EF41F16BA0BE4
:1040A000620B730B840BBAF09150A1F0FF0FBB1F92
:1040B000661F771F881FC2F70EC0BA0F621F731FDB
:1040C000841F48F4879577956795B795F7959E3F38
:1040D00008F0B0CF9395880F08F09927EE0F9795C9
:1040E000879508950E9486200C94251F0E941E1F0C
:1040F00058F00E94171F40F029F45F3F29F00C94FC
:104100000E1F51110C94591F0C94141F0E94361F3E
:1041100068F39923B1F3552391F3951B550BBB27F6
:10412000AA2762177307840738F09F5F5F4F220F3B
:10413000331F441FAA1FA9F335D00E2E3AF0E0E832
:1041400032D091505040E695001CCAF72BD0FE2F7C
:1041500029D0660F771F881FBB1F26173707480710
:10416000AB07B0E809F0BB0B802DBF01FF279358C8
:104170005F4F3AF09E3F510578F00C940E1F0C945F
:10418000591F5F3FE4F3983ED4F386957795679582
:10419000B795F7959F5FC9F7880F911D96958795FD
:1041A00097F90895E1E0660F771F881FBB1F62171C
:1041B00073078407BA0720F0621B730B840BBA0BDA
:1041C000EE1F88F7E09508950E947D1E08F48FEF9A
:1041D000089516F00C9439210C94141F68940C94D3
:1041E0000E1F0E943E1FA8F39923C1F3AEF3DF9385
:1041F000CF931F930F93FF92C92FDD2788232AF0B7
:104200002197660F771F881FDAF720E030E040E83B
:104210005FEB9FE3883920F0803E38F021968F775E
:104220000E940620E8E6F0E004C00E940620E5E9CE
:10423000F0E00E9447218B01BE01EC01FB2E6F577D
:1042400071097595771F880B990B0E94421E28E112
:1042500032E741E35FE30E94B41EAF2D9801AE0147
:10426000FF900F911F91CF91DF910E941D200C9420
:10427000251F9F3F31F0915020F4879577956795E2
:10428000B795880F911D9695879597F90895DF93B7
:10429000CF931F930F93FF92EF92DF927B018C01DC
:1042A000689406C0DA2EEF010E94B41EFE01E89465
:1042B000A5912591359145915591A6F3EF010E9465
:1042C0001D20FE019701A801DA9469F7DF90EF90B5
:1042D000FF900F911F91CF91DF910895DC0101C0F4
:1042E0006D9341505040E0F70895EF92FF920F9385
:1042F0001F93CF93DF93FB01238121FF19C0EB01B3
:104300008C01F12CE12CF80181918F01811106C003
:10431000C701CDB7DEB7E6E00C94871FE885F985C5
:10432000BE010995892B79F3EE24EA94FE2CEBCF9C
:10433000EE24EA94FE2CECCFAEE0B0E0E2EAF1E24B
:104340000C946D1F0D891E898F89988D26E02C8312
:104350001A83098397FF02C080E090E801979E834B
:104360008D83AE01455E5F4F698D7A8DCE010196DA
:104370000E94CC214D815E8157FD0AC02F81388576
:10438000421753070CF49A01020F131FF801108211
:104390002E96E4E00C94891FABE0B0E0E2EDF1E290
:1043A0000C945F1F7C013B018A01FC01178216827D
:1043B000838181FFC8C1CE0101965C01F701938121
:1043C000F30193FD859193FF81913F01882309F4C7
:1043D00053C1853239F493FD859193FF81913F015B
:1043E000853229F4B70190E00E94BC23E7CF912CDD
:1043F000212C312CFFE1F31538F08B3211F190F4C0
:10440000803209F1833229F137FC3CC020ED280FBE
:104410002A3050F536FE20C08AE0989E200D1124E7
:10442000922E06C08D3291F0803371F7689430F887
:10443000F30193FD859193FF81913F018111DACFC3
:1044400021C0689431F8689432F8F2CF689433F858
:10445000EFCF689434F8ECCFEAE02E9E200D1124C3
:10446000222E689435F8E4CF8E3229F436FC04C14C
:10447000689436F8DDCF8C3619F4689437F8D8CFC5
:104480008836B1F2982F9F7D95549330E0F08336B3
:10449000A1F18337C1F1833509F063C02801F2E04F
:1044A0004F0E511CF801C080D180692D70E036FCA0
:1044B00002C06FEF7FEFC6010E94A6234C016894F3
:1044C00037F882010AC00C5F1F4FFFE3F98388248D
:1044D0008394912C6501E89437F833FE2DC0522C5B
:1044E0008114910471F5552009F468CFB70180E279
:1044F00090E00E94BC235A94F6CFF8018081898312
:104500000E5F1F4FE4CF2801F2E04F0E511CF8015F
:10451000C080D180692D70E036FC02C06FEF7FEF64
:10452000C6010E94B1234C018201D5CFB70180E2C0
:1045300090E00E94BC232A942814190409F0B0F7D3
:10454000CECFF60137FC859137FE81916F01B7011F
:1045500090E00E94BC2351105A94F1E08F1A910808
:10456000BFCF843619F0893609F077C0F80137FEDD
:104570006BC060817181828193810C5F1F4FF32D2D
:10458000FF763F2E97FF09C09095809570956195B5
:104590007F4F8F4F9F4F689437F82AE030E0A50196
:1045A0000E94EC23C82ECA188C2C432C36FE0CC05B
:1045B000E89440F8C91440F434FE05C032FC03C04E
:1045C000F32DFE7E4F2E892C44FE95C0FE01EC0D8E
:1045D000F11D8081803309F087C0242D297E422E71
:1045E000842D8870582E43FC95C040FE8FC09C2CB3
:1045F000821418F42C0C922C981844FE91C0B70128
:1046000080E390E00E94BC2342FE09C088E790E06E
:1046100041FE02C088E590E0B7010E94BC23C914A6
:1046200008F48AC0CA94D12C9FEFC91AD90ACA0CBF
:10463000DB1CF60182916F01B70190E00E94BC2360
:10464000AC14BD04B1F74FCF60817181072E000C0F
:10465000880B990B0E5F1F4F92CFD32CE894D4F8A0
:104660002AE030E0853739F1232D297FD22E8F368D
:1046700001F148F48835A9F0F701868197812B96DE
:10468000E2E10C947B1F803749F08837A9F7D4FE0C
:1046900002C06894D2F820E130E00DC06894D4F8EC
:1046A000F6CF34FE03C0822F8660D82E20E132E0A0
:1046B00002C028E030E0F801D7FE0FC060817181B0
:1046C000828193810C5F1F4FA5010E94EC23C82EAD
:1046D000CA183D2CE89437F867CF6081718190E06B
:1046E00080E00E5F1F4FF0CF42FC02C0839478CF72
:1046F0008394839475CF842D867809F471CFF6CF97
:10470000B70180E290E00E94BC2383948214C0F33E
:10471000512C73CF522C5818821408F46ECFF8CF56
:10472000842D867809F47BCF8BE241FE80E247FC42
:104730008DE2B70190E071CFB70180E390E00E9475
:10474000BC239A946CCF8FEF9FEF99CFFC0105901B
:10475000615070400110D8F7809590958E0F9F1F83
:104760000895FC016150704001900110D8F78095C8
:1047700090958E0F9F1F08950F931F93CF93DF93F4
:10478000182F092FEB018B8181FD09C01FEF0FEF5F
:10479000812F902FDF91CF911F910F91089582FF6C
:1047A00014C02E813F818C819D81281739073CF4EC
:1047B000E881F981CF0101969983888310838E81E6
:1047C0009F8101969F838E83E3CFE885F985812FB2
:1047D0000995892BA1F3DACFFA01AA27283051F1E4
:1047E000203181F1E8946F936E7F6E5F7F4F8F4F22
:1047F0009F4FAF4FB1E03ED0B4E03CD0670F781F81
:10480000891F9A1FA11D680F791F8A1F911DA11D65
:104810006A0F711D811D911DA11D20D009F468949E
:104820003F912AE0269F11243019305D3193DEF646
:10483000CF010895462F4770405D4193B3E00FD0FC
:10484000C9F7F6CF462F4F70405D4A3318F0495DE7
:1048500031FD4052419302D0A9F7EACFB4E0A695CA
:104860009795879577956795BA95C9F700976105EC
:10487000710508959B01AC010A2E06945795479542
:1048800037952795BA95C9F7620F731F841F951F37
:08489000A01D0895F894FFCF6C
:104898000101C80001FF00000000E40C0102040847
:1048A8001020408000000000E10641066E062E0739
:1048B8009F067D069106000000002010F30FDA1015
:1048C800C90FEC0FD90FCA0F000000004E0A410CA7
:1048D800C209E008FB0BD008610BEF0A4E07FA107B
:1048E800B612EC0E0112000000004F104106DA105B
:1048F800D9100D0A005B4552524F525D5B51774704
:10490800724275666665724465766963655D2052B4
:10491800656E64657220636C617373206D75737462
:1049280020696D706C656D656E7420647261775F67
:10493800706978656C206D6574686F640A005465E9
:104948006D703A0025732046005461726765743AA9
:104958000025692046004F4C4544206661696C6516
:104968006400636C656172696E677468657363720D
:0449780065656E0003
:00000001FF
