:100000000C9499060C94C1060C94C1060C94C1067C
:100010000C94C1060C94C1060C94C1060C94CE1825
:100020000C94C1060C94C1060C94C1060C94C10634
:100030000C94C1060C94C1060C94C1060C94C10624
:100040000C9484180C94C1060C9450190C942A1921
:100050000C94C1060C94C1060C94C1060C94C10604
:100060000C9482190C94C10608000000BE92244929
:10007000123EABAAAA2ABECDCCCC4C3E00000080DA
:10008000BEABAAAAAA3E00000000BF000000803F4D
:100090000000000000084178D3BB4387D1133D190D
:1000A0000E3CC3BD4282AD2B3E68EC8276BED98F3A
:1000B000E1A93E4C80EFFFBE01C4FF7F3F0000007E
:1000C000000005A84CCDB2D44EB93836A9020C5068
:1000D000B9918688083CA6AAAA2ABE000000803FE3
:1000E00000407A10F35A00A0724E18090010A5D4EF
:1000F000E80000E87648170000E40B54020000CA4C
:100100009A3B000000E1F505000080969800000091
:1001100040420F000000A0860100000010270000F0
:100120000000E803000000006400000000000A0076
:10013000000000000100000000002C76D888DC6779
:100140004F0823DFC1DFAE59E1B1B796E5E3E453D1
:10015000C63AE651997696E8E6C28426EB898C9BEE
:1001600062ED407C6FFCEFBC9C9F40F2BAA56FA58E
:10017000F490055A2AF75C936B6CF9676DC11BFC10
:10018000E0E40D47FEF520E6B500D0ED902E03002B
:10019000943577050080841E080000204E0A000078
:1001A00000C80C333333330F986E12831141EF8D37
:1001B0002114893BE65516CFFEE6DB18D1844B3877
:1001C0001BF77C1D901DA4BBE424203284725E22A8
:1001D0008100C9F124ECA1E53D2700000000003EAC
:1001E0005B4F5B3E3E6B4F6B3E1C3E7C3E1C183CA7
:1001F0007E3C181C577D571C1C5E7F5E1C00183C03
:100200001800FFE7C3E7FF0018241800FFE7DBE74B
:10021000FF30483A060E2629792926407F05050732
:10022000407F05253F5A3CE73C5A7F3E1C1C08088E
:100230001C1C3E7F14227F22145F5F005F5F060953
:100240007F017F006689956A606060606094A2FFAC
:10025000A29408047E040810207E201008082A1C9E
:1002600008081C2A08081E101010100C1E0C1E0C6A
:1002700030383E3830060E3E0E060000000000000A
:10028000005F00000007000700147F147F14242A79
:100290007F2A12231308646236495620500008074B
:1002A0000300001C2241000041221C002A1C7F1C6C
:1002B0002A08083E0808008070300008080808086E
:1002C000000060600020100804023E5149453E00D5
:1002D000427F400072494949462141494D33181433
:1002E000127F1027454545393C4A49493141211182
:1002F00009073649494936464949291E0000140074
:100300000000403400000008142241141414141496
:10031000004122140802015909063E415D594E7CF4
:100320001211127C7F494949363E414141227F41A9
:1003300041413E7F494949417F090909013E414107
:1003400051737F0808087F00417F41002040413FF2
:10035000017F081422417F404040407F021C027F01
:100360007F0408107F3E4141413E7F090909063E56
:100370004151215E7F091929462649494932030125
:100380007F01033F4040403F1F2040201F3F403837
:10039000403F631408146303047804036159494D12
:1003A00043007F4141410204081020004141417F48
:1003B00004020102044040404040000307080020BE
:1003C000545478407F2844443838444444283844BE
:1003D00044287F385454541800087E090218A4A4F5
:1003E0009C787F0804047800447D40002040403D14
:1003F000007F1028440000417F40007C047804788E
:100400007C080404783844444438FC182424181820
:10041000242418FC7C08040408485454542404047C
:100420003F44243C4040207C1C2040201C3C403069
:10043000403C44281028444C9090907C4464544C98
:1004400044000836410000007700000041360800F3
:1004500002010204023C2623263C1EA1A161123A9D
:100460004040207A385454555921555579412154EA
:10047000547841215554784020545579400C1E52EF
:100480007212395555555939545454593955545493
:10049000580000457C410002457D420001457C40FA
:1004A000F0292429F0F0282528F07C545545002017
:1004B00054547C547C0A097F4932494949323248B4
:1004C000484832324A4848303A4141217A3A42401B
:1004D0002078009DA0A07D39444444393D404040EF
:1004E0003D3C24FF2424487E4943662B2FFC2F2BC0
:1004F000FF0929F620C0887E090320545479410061
:1005000000447D413048484A32384040227A007ADF
:100510000A0A727D0D19317D2629292F28262929BD
:10052000292630484D4020380808080808080808DF
:10053000382F10C8ACBA2F102834FA00007B000006
:1005400008142A142222142A1408AA005500AAAA60
:1005500055AA55AA000000FF00101010FF00141447
:1005600014FF001010FF00FF1010F010F01414140E
:10057000FC001414F700FF0000FF00FF1414F40443
:10058000FC141417101F10101F101F1414141F0038
:10059000101010F0000000001F101010101F10109D
:1005A0001010F010000000FF1010101010101010AC
:1005B00010FF10000000FF140000FF00FF00001FEC
:1005C00010170000FC04F414141710171414F4048A
:1005D000F40000FF00F714141414141414F700F7B7
:1005E000141414171410101F101F141414F41410E2
:1005F00010F010F000001F101F0000001F1400007A
:1006000000FC140000F010F01010FF10FF14141480
:10061000FF141010101F00000000F010FFFFFFFF7C
:10062000FFF0F0F0F0F0FFFFFF0000000000FFFF20
:100630000F0F0F0F0F38444438447C2A2A3E147E93
:1006400002020606027E027E026355494163384477
:10065000443C04407E201E2006027E020299A5E74B
:10066000A5991C2A492A1C4C7201724C304A4D4DE6
:10067000303048784830BC625A463D3E49494900CE
:100680007E0101017E2A2A2A2A2A44445F444440EA
:10069000514A444040444A51400000FF0103E08079
:1006A000FF000008086B6B083612362436060F0967
:1006B0000F06000018180000001010003040FF0165
:1006C00001001F01011E00191D1712003C3C3C3C9B
:1006D000000000000000000000000000000000001A
:1006E000FE0000000000000E000E00000000D0BE62
:1006F00090D0BE9000001C62FFC28000000C1292DD
:100700004CB0880600807C62B21CC0000000000E65
:100710000E0000000000E0180402020000000202C7
:100720000418E000000024187E1824000080808057
:10073000F080808000000000000000000000808049
:100740008080000000000000000000000000008029
:100750006018060000F804C2320CF800000004041F
:10076000FE0000000000028242221C000000022263
:100770002222DC0000C0A09884FE808000001E12AF
:100780001222C20000F844222222C000000002020D
:10079000C2320A0600008C5222528C00003C4242B7
:1007A0004226F80000000030300000000000003059
:1007B0003000000000808040402020100040404079
:1007C0004040400000102020404080800000028215
:1007D00042221C0000000000000000000000000099
:1007E00005000000000000000000000000000700FD
:1007F00000070000000004040F04030000040201CD
:1008000003040403000304040405030400000000BF
:100810000000000000000306081010000000101087
:1008200008060300000000000000000000000000B7
:1008300007000000000000160E000000000000008D
:100840000000000000000006060000000004020195
:100850000000000000010304040201000000040481
:10086000070404000000070404040400000004045A
:10087000040403000000000000070000000004045E
:100880000404030000010204040403000000000744
:10089000000000000000030404040300000004043E
:1008A000040201000000000606000000000000161F
:1008B0000E0000000000000101020204000101011D
:1008C0000101010000040202010100000000000516
:1008D0000000000000F804728AFA84780000C03832
:1008E0000638C0000000FE222222DC0000F80402CC
:1008F0000202020000FE02020204F8000000FE22D2
:10090000222222000000FE222222220000F80402FD
:100910000222E20000FE20202020FE000000020251
:10092000FE020200000000000202FE0000FE40B0D5
:10093000080402000000FE000000000000FE0C7031
:1009400080700CFE00FE0C30C000FE0000F80402B7
:100950000204F80000FE424242221C0000F8040299
:100960000204F8000000FE4242A21C0000001C220B
:100970004242800000020202FE02020200FE00006B
:100980000000FE00000638C000C03806003EC0F07F
:100990000EF0C03E000006986098060000000618A1
:1009A000E0180600000202C2320A0600000000FE43
:1009B000020202020000061860800000000202022B
:1009C00002FE00000040300C0C304000000000002F
:1009D0000000000000010204040400000006010100
:1009E00001010106000007040404030000010204E1
:1009F00004040400000704040402010000000704CA
:100A000004040400000007000000000000010204CC
:100A100004040700000700000000070000000404B1
:100A2000070404000000040404040300000700009D
:100A30000102040000000704040404000007000091
:100A40000100000700070000000307000001020486
:100A50000402010000070000000000000001020481
:100A60000C12111000000700000106000000040431
:100A70000404030000000000070000000003040459
:100A8000040403000000000106010000000007004C
:100A90000000070000000601000106000000000041
:100AA0000700000000060504040404000000001F05
:100AB00010101010000000000001020400101010BF
:100AC000101F0000000000000000000000080808DF
:100AD0000808080000000002040000000000E01008
:100AE0001010F0000000FE201010E0000000E010E8
:100AF000101010000000E0101010FE000000E09048
:100B00009090E000000020FC222222020000E01071
:100B10001010F0000000FE201010E000001010F295
:100B2000000000000000101010F200000000FE8025
:100B30004020100000000202FE00000000F0201023
:100B4000F02010F00000F0201010E0000000E01095
:100B50001010E0000000F0201010E0000000E01095
:100B60001010F0000000F0201010700000006090E5
:100B70009090200000002020FC2020200000F000A9
:100B80000000F000000070800080700000F000C0E5
:100B900030C000F0000030C0C0300000000030C0A5
:100BA0000080700000001010905030000000808025
:100BB0007E02020000000000FE00000000000202B1
:100BC0007E80800000008080000000800000000027
:100BD000000000000000000000000000000003040E
:100BE00004020700000007040404030000000304DB
:100BF00004040400000003040402070000000304CE
:100C0000040404000000000700000000000033247A
:100C100024221F000000070000000700000000075A
:100C20000404000000202020201F00000000070016
:100C30000102040000000000070404000007000097
:100C40000700000700000700000007000000030481
:100C50000404030000003F04040403000000030434
:100C600004023F0000000700000000000000020432
:100C70000404030000000000030404040000030453
:100C80000402070000000003040300000001060145
:100C900000010601000006010106000000202031CD
:100CA0000E0300000000060504040400000000001C
:100CB0001F101000000000000700000000001010CE
:100CC0001F00000000010000010101000000000001
:100CD000000000000000000000240027002A00009F
:100CE0000000002300260029000000000800020187
:100CF00000000304070000000000000000010204DF
:100D0000081020408001020408102001020408108D
:100D10002000000000250028002B00040404040427
:100D20000404040202020202020303030303030297
:100D3000A11A11241FBECFEFD8E0DEBFCDBF26E041
:100D4000ACE0B2E001C01D92AE35B207E1F712E0AF
:100D5000A0E0B1E0E4EEFCE502C005900D92AC30FD
:100D6000B107D9F716E0C9E9D6E004C02197FE0122
:100D70000E948F29C839D107C9F70E94801B0C94A3
:100D8000702E0C940000FC01942F90954081492313
:100D900040830895FC019081492B40830895EF9290
:100DA0000F93022F84130FC0E0911204F0911304EB
:100DB000EE24E394282F462F682F82E094E00995D3
:100DC0000F91EF900895E0910E04F0910F04EE243E
:100DD000E394621307C0E0911004F0911104EE2433
:100DE000E394062F242FE7CF833081F028F481305D
:100DF00099F08230A9F008958730A9F08830C9F0C1
:100E00008430B1F4809180008F7D03C08091800098
:100E10008F7780938000089584B58F7784BD08957F
:100E200084B58F7DFBCF8091B0008F778093B00029
:100E300008958091B0008F7DF9CFCF93DF93282F55
:100E400030E0F901E751F34F8491F901E350F34F9A
:100E5000D491F901E55EF24FC491CC23A1F0811148
:100E60000E94F406EC2FF0E0EE0FFF1FE152F34F6B
:100E7000A591B491EC91ED2381E090E009F480E03C
:100E8000DF91CF91089580E090E0FACF1F93CF9348
:100E9000DF93282F30E0F901E751F34F8491F901F6
:100EA000E350F34FD491F901E55EF24FC491CC23A6
:100EB000A9F0162F81110E94F406EC2FF0E0EE0F3E
:100EC000FF1FEF5EF24FA591B4918FB7F894EC91AC
:100ED000111108C0D095DE23DC938FBFDF91CF9135
:100EE0001F910895DE2BF8CFCF93DF9390E0FC01A4
:100EF000E350F34F2491855E924FFC018491882347
:100F0000D1F090E0880F991FFC01EB52F34FA591AF
:100F1000B491FC01EF5EF24FC591D491623071F44F
:100F20009FB7F8943C91822F809583238C93E8811E
:100F30002E2B28839FBFDF91CF9108958FB7F89410
:100F4000EC912E2B2C938FBFF6CFCF93DF93EC0138
:100F500061E089E00E947407209731F460E089E045
:100F6000DF91CF910C944607CF3FD10511F461E09A
:100F7000F6CFE2EFFCE0E491E33029F140F4E13018
:100F8000B1F0E230D9F0C038D1058CF7E7CFE730C7
:100F900021F1E83051F1E430B1F7809180008062B6
:100FA00080938000D0938B00C0938A0004C084B5E6
:100FB000806884BDC7BDDF91CF91089584B58062FC
:100FC00084BDC8BDF8CF8091800080688093800088
:100FD000D0938900C0938800EECF8091B0008068E4
:100FE0008093B000C093B300E6CF8091B0008062E0
:100FF0008093B000C093B400DECF3FB7F8948091E7
:10100000E4029091E502A091E602B091E70226B5D4
:10101000A89B05C02F3F19F00196A11DB11D3FBF30
:10102000BA2FA92F982F8827BC01CD01620F711DFF
:10103000811D911D42E0660F771F881F991F4A95F9
:10104000D1F708958F929F92AF92BF92CF92DF9285
:10105000EF92FF926B017C010E94FD074B015C0146
:10106000C114D104E104F104B9F00E94FD0768192C
:1010700079098A099B09683E73408105910580F3CF
:1010800021E0C21AD108E108F10888EE880E83E059
:10109000981EA11CB11CE4CFFF90EF90DF90CF9081
:1010A000BF90AF909F908F9008952FB7F894609164
:1010B000E0027091E1028091E2029091E3022FBF81
:1010C0000895089508959091050189130BC0EFE2EA
:1010D000FDE0E4919FEF90930501E13049F028F0A5
:1010E000E23061F060E00C94460710926E00FACF97
:1010F00090916F009D7F90936F00F4CF909170005E
:101100009D7F9093700091E09093B0009091B1001A
:10111000987F94609093B1001092B300E3CF8F92C8
:101120009F92AF92BF92CF92DF92EF92FF920F9376
:101130001F93CF936C018B018091F9059091FA0573
:101140008F3F980719F061E00E9446078091F705EC
:101150009091F805209105012817C1F12F3F09F45E
:10116000ACC0B801012E000C880B990B0E9422081C
:101170008091F9059091FA058F3F980719F060E08A
:101180000E9446078091F7050E9463082091FB05A5
:101190003091FC05029FC001039F900D129F900D9E
:1011A000112464E670E00E943A29072E000C880B97
:1011B000990BCF911F910F91FF90EF90DF90CF90FF
:1011C000BF90AF909F908F900C942208EFE2FDE0CB
:1011D000C491C7FDC6CF61E00E947407CC2319F00B
:1011E000C23009F0E3C00D2C000CEE08FF0860E0EF
:1011F00072E18AE790E0A70196010E9470294901F7
:101200005A0168E478EE81E090E0A70196010E941F
:1012100070292150310941095109CC2309F42CC10D
:10122000C23009F027C184E02F3F31054105510547
:10123000A9F1A4F164E274EF80E090E0A7019601C7
:101240000E947029215031094109510985E02F3F41
:1012500031054105510511F108F162E17AE780E0BD
:1012600090E0A70196010E9470292150310941099F
:10127000510986E02F3F31054105510579F074F0A1
:101280009AE0B594A794979487949A95D1F7A5017D
:101290009401215031094109510987E09091B10031
:1012A000987F892B8093B100C13009F4ACC0C23063
:1012B00009F4BEC0C11155CFFDC080930501EFE216
:1012C000FDE0C491CF3F09F44CCFC13039F148F073
:1012D000C23009F445C0C7FD44CF61E00E947407E5
:1012E0007FCF14BC15BC24B5226024BD25B5216078
:1012F00025BD9C013327F901E55EF24FE491F0E052
:10130000EE0FFF1FEF5EF24F45915491F901E3504C
:10131000F34FE491E093EC02C0E05DCF10928000C7
:1013200010928100209181002860209381002091FB
:1013300081002160209381009C013327F901E55E43
:10134000F24FE491F0E0EE0FFF1FEF5EF24F459198
:101350005491F901E350F34FE491E093EB023BCF5A
:101360001092B0001092B1002091B0002260209342
:10137000B0002091B10021602093B1009C0133277F
:10138000F901E55EF24FE491F0E0EE0FFF1FEF5E32
:10139000F24F459154915093EA024093E902F901CA
:1013A000E350F34FE491E093E80215CF0D2C000CCD
:1013B000EE08FF0860E072E18AE790E0A70196017D
:1013C0000E947029215031094109510991E02115EC
:1013D000310581E0480751056CF068E478EE81E062
:1013E00090E0A70196010E9470292150310941091E
:1013F000510993E0C13009F057CF80918100887F77
:10140000892B8093810030938900209388008FEF8F
:101410009FEFDC018093F1029093F202A093F3021C
:10142000B093F40280916F00826080936F0099CE38
:101430002093B3008FEF9FEFDC018093ED02909338
:10144000EE02A093EF02B093F002809170008260F0
:101450008093700086CE8AE0B594A7949794879481
:101460008A95D1F7A501940121503109410951090B
:1014700095E01CC084E0EBCE93E02F3F31054105A1
:101480005105A1F09CF062E17AE780E090E0A701CD
:1014900096010E94702921503109410951092F3FBD
:1014A00031054105510509F0B4F694E085B5887F12
:1014B000892B85BD27BD8FEF9FEFDC018093F5025F
:1014C0009093F602A093F702B093F80280916E0019
:1014D000826080936E0045CEAF92BF92CF92DF9232
:1014E000EF92FF920F931F93CF93DF936C017B01D9
:1014F0008B01040F151FEB015E01AE18BF08C0176A
:10150000D10759F06991D601ED91FC910190F081DC
:10151000E02DC6010995892B79F7C501DF91CF919F
:101520001F910F91FF90EF90DF90CF90BF90AF9001
:101530000895FC01538D448D252F30E0842F90E0D9
:10154000821B930B541710F0CF96089501970895BE
:10155000FC01918D828D981761F0A28DAE0FBF2F87
:10156000B11D5D968C91928D9F5F9F73928F90E0DD
:1015700008958FEF9FEF0895FC01918D828D98174C
:1015800031F0828DE80FF11D858D90E008958FEF89
:101590009FEF0895FC01918D228D892F90E0805C52
:1015A0009F4F821B91098F739927089589E493E0D7
:1015B0000E94CA0A21E0892B09F420E0822F0895B5
:1015C00080E090E0892B29F00E94D60A81110C94CA
:1015D00000000895FC01A48DA80FB92FB11DA35AD6
:1015E000BF4F2C91848D90E001968F739927848F43
:1015F000A689B7892C93A089B1898C918370806466
:101600008C93938D848D981306C00288F389E02D06
:1016100080818F7D80830895EF92FF920F931F93B7
:10162000CF93DF93EC0181E0888F9B8D8C8D981395
:101630001AC0E889F989808185FF15C09FB7F894A1
:10164000EE89FF896083E889F989808183708064ED
:1016500080839FBF81E090E0DF91CF911F910F9138
:10166000FF90EF900895F62E0B8D10E00F5F1F4F47
:101670000F731127E02E8C8D8E110CC00FB607FC56
:10168000FACFE889F989808185FFF5CFCE010E94E4
:10169000EA0AF1CFEB8DEC0FFD2FF11DE35AFF4F5E
:1016A000F0829FB7F8940B8FEA89FB898081806272
:1016B000CFCFCF93DF93EC01888D8823B9F0AA892F
:1016C000BB89E889F9898C9185FD03C0808186FDFD
:1016D0000DC00FB607FCF7CF8C9185FFF2CF80814C
:1016E00085FFEDCFCE010E94EA0AE9CFDF91CF91CD
:1016F00008952F923F924F925F926F927F928F92B6
:101700009F92AF92BF92CF92DF92EF92FF920F9390
:101710001F93CF93DF93CDB7DEB76A970FB6F894D8
:10172000DEBF0FBECDBF4C01D42EF886EF82662EF1
:10173000712CDC011696ED91FC9117976E167F06C1
:1017400008F040C118964D915C918D2D90E0841762
:10175000950708F037C1CC2009F434C1AA2009F458
:1017600031C1D301A20FB11DEA17FB0710F42E2FD0
:10177000261B122FC21608F41C2D800F911D48172E
:10178000590710F4042F0D19A01608F40A2D8FEF35
:101790008D0D080F902F969596959695F401EA5920
:1017A000FF4F0190F081E02DEE0FFF1FEA51FC4F3B
:1017B00020813181388B2F878D2D86958695869552
:1017C000282E312CA101440F551F440F551F480DE1
:1017D000591D5A8F498F412C692F70E07B8B6A8B82
:1017E000802F90E09D8B8C8B07700E8BAC2DB0E022
:1017F000B88FAF8BF301E10FF11DFA87E9872A89D2
:101800003B89221533050CF4DDC02D2D2770422FA6
:1018100050E05A8349838D2D90E00896841B950BE8
:101820006C897D89681779070CF0A6C08E8947E01E
:1018300050E0481B5109AFEFB0E002C0B595A79545
:101840004A95E2F7022E01C0AA0F0A94EAF7A98B83
:1018500055245394521A580E942D9770E92FF0E0A6
:10186000FC83EB830FEF090F050D28E030E02E1B02
:101870003F0B87E0521613060CF4802F27E030E070
:10188000281B31094FEF50E002C0559547952A9526
:10189000E2F701C0440F9A95EAF74B87081B68E00E
:1018A00070E0601B71097E836D838FEF90E00D8087
:1018B00002C0959587950A94E2F78E87E42CE6940A
:1018C000E694E694EC9C700111248F89988D8E0D1E
:1018D0009F1D9D878C87AF81B885EA0EFB1EB12CBA
:1018E000A12CA11608F04AC0F70161917F01FB8588
:1018F0006F23262F30E00B8002C0359527950A9480
:10190000E2F7622F0023A1F0EC85FD85EA0DFB1DB7
:101910004F815885E40FF51F80815E858523682FF0
:1019200070E00D8002C0660F771F0A94E2F7622B09
:1019300070E0098002C0660F771F0A94E2F7D401B5
:1019400016962D913C911797229EC001239E900DD3
:10195000329E900D1124860D971D8A0D9B1D919628
:101960002D913C914989820F931FEF85F889099544
:10197000FFEFAF1ABF0AB5CF87E059CFD50C450CA2
:10198000A98DBA8D94968D919C919597681679063C
:1019900024F495967C926E929497E98DFA8D86A1A7
:1019A00097A129853A858217930714F437A326A3B4
:1019B0003FEF231A330A498D5A8D4C5F5F4F5A8F80
:1019C000498F1DCF6A960FB6F894DEBF0FBECDBF0C
:1019D000DF91CF911F910F91FF90EF90DF90CF900B
:1019E000BF90AF909F908F907F906F905F904F903F
:1019F0003F902F900895EF920F930150040F2150C4
:101A0000260FDC01ED91FC910680F781E02D099510
:101A10000F91EF9008952F923F924F925F926F92A5
:101A20007F928F929F92AF92BF92CF92DF92EF926E
:101A3000FF920F931F93CF93DF93CDB7DEB7299714
:101A40000FB6F894DEBF0FBECDBF4C01F42EFC01E3
:101A5000868197816817190608F0A6C0041710F44C
:101A6000F02E042FF401808591850817190610F0D7
:101A70000FEF080FAF2CA694A694A694802F8695FE
:101A800086958695261718F4962F622F292FF40134
:101A9000EA59FF4F0190F081E02DEE0FFF1FEA5150
:101AA000FC4F408151815A834983B12C6501CC0C94
:101AB000DD1CCC0CDD1CC80CD91CE82FF0E0FC832D
:101AC000EB83402F50E05E834D8307700F83862F9A
:101AD00090E099878887022F10E0EB81FC81EA155E
:101AE000FB050CF461C0FF2DF7703F2E8F2D90E0A9
:101AF00008968F1B91092D813E814F802817390749
:101B000014F087E0482E87E090E0841991094FEFA8
:101B100050E002C0559547958A95E2F7CA01032C1B
:101B200001C0880F0A94EAF7282E582EE11001C050
:101B3000512C6884798406151705CCF0F4012681B0
:101B40003781A29EC001A39E900DB29E900D1124DC
:101B5000860D971D21A132A1422D652D820F931F65
:101B6000E981FA810995FFEF6F1A7F0AE4CF81E0DE
:101B70008319F80EF40CF60184A195A12885398506
:101B80002817390714F435A324A3F60186A197A1D9
:101B90008017910714F417A306A3FFEFAF1ABF0A2B
:101BA00024E0C20ED11C99CF29960FB6F894DEBF5F
:101BB0000FBECDBFDF91CF911F910F91FF90EF909E
:101BC000DF90CF90BF90AF909F908F907F906F905D
:101BD0005F904F903F902F9008954F925F926F9239
:101BE0007F928F929F92AF92BF92CF92DF92EF92AD
:101BF000FF920F931F93CF93DF935C01FC018085CD
:101C000091854817190608F063C0261718F4862F27
:101C1000622F282FF501868197812817190610F069
:101C20002FEF280FE42FE770F0E0EE5EFE4F5080BC
:101C3000F501EA59FF4F0190F081E02DEE0FFF1FF3
:101C4000EA51FC4F60807180C62ED12C4695469596
:101C50004695C42FD0E0C89FA001C99F500DD89FC2
:101C6000500D11244C0D5D1DF50181A192A1840F31
:101C7000951F452CE11001C0412C46017C01EC1858
:101C8000FD08022F10E0C701880D991D08151905E0
:101C900044F0452D642DF3010995FFEF8F1A9F0A3B
:101CA000F2CFCC0FDD1FCC0FDD1FF501EC0FFD1FB8
:101CB00084A195A1C816D90614F4D5A2C4A2CA0D50
:101CC000DB1D8EA19FA18017910714F41FA30EA303
:101CD000DF91CF911F910F91FF90EF90DF90CF9008
:101CE000BF90AF909F908F907F906F905F904F903C
:101CF0000895CF92DF92EF92FF920F931F93CF93AD
:101D0000DF938C01E62EF12CFC01A681B781EA1647
:101D1000FB0608F049C0808591854817190608F030
:101D200043C0E42FE770F0E0EE5EFE4F3081F80133
:101D3000EA59FF4F0190F081E02DEE0FFF1FEA51AD
:101D4000FC4FC080D1802111232F842F869586954A
:101D50008695C82FD0E0CA9FC001CB9F900DDA9F17
:101D6000900D11248E0D9F1DF801A1A1B2A1432F4A
:101D7000622F8A0F9B1FF6010995CC0FDD1FCC0F38
:101D8000DD1FF801EC0FFD1F84A195A1E816F906EF
:101D900014F4F5A2E4A2C00FD11F8EA19FA18E154D
:101DA0009F0514F4FFA2EEA2DF91CF911F910F9136
:101DB000FF90EF90DF90CF900895FC018081942FE9
:101DC0009095982368274623492B40830895FC016A
:101DD000208191E0211190E09227492342274083FE
:101DE0000895FC01808191E0611190E098274923DA
:101DF000482740830895FC01942F90958081982373
:101E00006423692B608308950F93DC011696ED918E
:101E1000FC9117976E171F0658F41896ED91FC91D8
:101E200019974E171F0620F45C96ED91FC910995C9
:101E30000F9108957F928F929F92AF92BF92CF920F
:101E4000DF92EF92FF920F931F93CF93DF936C017A
:101E5000F62EB42EA02E11E0121B922E9194990C06
:101E6000C22F022F040F421BDC015096ED91FC9112
:101E7000EA2C262F0995D0E0DC170CF03FC017FDA7
:101E800004C0C15093949394190DDF5F8D2F880F78
:101E90008F5F180F6F2D6D0FD6015096ED91FC914D
:101EA000EA2C7C2E7B0C072D262F8B2C8C1A482D90
:101EB000C60109956F2D6D1BD6015096ED91FC91D1
:101EC000262F482DC60109957B2C7D0E8B2C8D1A53
:101ED000D6015096ED91FC91072D6C2F6F0D262F9A
:101EE000482DC6010995D6015096ED91FC916F2DB4
:101EF0006C1B262F482DC6010995BECFDF91CF91CF
:101F00001F910F91FF90EF90DF90CF90BF90AF9017
:101F10009F908F907F9008958F929F92AF92BF92E3
:101F2000CF92DF92EF92FF920F931F93CF93DF93A5
:101F3000EC01B62EC42E81E0A82EA21A922E919406
:101F4000990C122F422F4C0DEA85FB85202FCE01D4
:101F500009954C2D411BEA85FB85202F6B2DCE0169
:101F60000995612F6B0DEA85FB85202F4C2DCE0145
:101F700009956B2D611BEA85FB85202F4C2DCE0129
:101F80000995F12CF1160CF054C0A7FC04C01150B7
:101F900093949394A90CF3948F2D880F8F5FA80EC0
:101FA0008B2C8F0CEA85FB85202FE12EEC0C4E2D1F
:101FB000682DCE010995DB2CDF18EA85FB85202FE3
:101FC0004E2D6D2DCE010995EA85FB85202FEC2C39
:101FD000E11A4E2D682DCE010995EA85FB85202F4B
:101FE0004E2D6D2DCE010995EC2CEF0CEA85FB856D
:101FF000202F4E2DD12EDB0C6D2DCE010995EA85BB
:10200000FB85202F4E2DEB2CE11A6E2DCE0109956C
:102010008C2C8F18EA85FB85202F482D6D2DCE0145
:102020000995EA85FB85202F482D6E2DCE01099557
:10203000A9CFDF91CF911F910F91FF90EF90DF908B
:10204000CF90BF90AF909F908F900895BF92CF9206
:10205000DF92EF92FF920F931F93CF93DF936C0168
:10206000F62ED42F2150122F160F0150C02FC40F5F
:10207000DC011E96ED91FC91042F212F0995D601CC
:102080001E96ED91FC910C2F212F4C2F6F2DC60128
:1020900009952C2F2D1B330B233031059CF0DF5F6E
:1020A000D6015096ED91FC912F2D4D2F6F2DC6012D
:1020B0000995D6015096ED91FC91212F4D2F612F5E
:1020C000C6010995DF91CF911F910F91FF90EF907D
:1020D000DF90CF90BF9008958F929F92AF92BF9262
:1020E000CF92DF92EF92FF920F931F93CF93DF93E4
:1020F0006C01B42EF22E261B330BC90137FF03C02F
:10210000919581959109182F802F8B19990BEC01CE
:1021100097FF03C0D195C195D1099C2E111116C00E
:10212000C11145C0D6011A96ED91FC912E2D4B2D73
:10213000C601DF91CF911F910F91FF90EF90DF903B
:10214000CF90BF90AF909F908F900994A12E1C17B5
:1021500040F0AC2EC12F802F0F2DF82E8B2DB62ED8
:10216000682F0B1530F08F2DF62E682F802F0B2D3A
:10217000B82EDC2FD69588248394F61610F0882488
:102180008A94B016B0F0D6011A96ED91FC912E2DDE
:10219000402F6F2D191510F04F2D602FC601099596
:1021A000DA19D7FF02C0F80CDC0F0F5FEACFA12CC1
:1021B000D8CFDF91CF911F910F91FF90EF90DF90DB
:1021C000CF90BF90AF909F908F90089508950895FD
:1021D000089520916D02260F3327331F21323105D8
:1021E000ECF420911F03FC0190E080E0243069F0C2
:1021F00082E00895A0916D022191AC01435B5D4F97
:10220000A40FB52FB11D2C930196861798F38091DA
:102210006D02680F60936D0280E0089581E008957B
:1022200010921F0381E080931E031092F90261E077
:1022300082E10E94460761E083E10E944607E9EBE4
:10224000F0E080818E7F808380818D7F808388E431
:102250008093B80085E48093BC000895CF93DF930A
:1022600091E090934C028823B9F0C091B800D091CE
:10227000BA008091BC008A7B8093BC0060E082E160
:102280000E94460760E083E10E9446070E94101109
:10229000D093BA00C093B800DF91CF9108958F9288
:1022A0009F92AF92BF92CF92DF92EF92FF920F93E5
:1022B0001F93CF93DF93D0914803D13208F0D7C05A
:1022C000182FC09147030E94FD076B017C0180918C
:1022D0001F0381116BC082E080931F0310931E03C4
:1022E0008FEF80931D0310921C03D0931B03A7E272
:1022F000B3E0EBEFF2E080E0D81391C01092FA0265
:102300008091FA02CC0FC82BC093FA028091F90297
:10231000813009F088C01092F9020E94FD076B011C
:102320007C018091FA028093BB00809121039091FF
:102330002203A0912303B0912403892B8A2B8B2B9A
:10234000A1F00E94FD07009121031091220320912A
:102350002303309124036C197D098E099F09061708
:1023600017072807390708F442C08091BC0083FD95
:10237000D8CF85EC8093BC000E94FD076B017C01E7
:1023800080911F03823009F450C080911D038F3F5C
:1023900009F46FC080911D03803209F46CC08091F4
:1023A0001D03803309F469C084E026C080912103B5
:1023B00090912203A0912303B0912403892B8A2BAF
:1023C0008B2B09F484CF0E94FD078090210390900D
:1023D0002203A0902303B09024036C197D098E0979
:1023E0009F0986169706A806B90608F070CF809157
:1023F00020030E942E1185E01092260310924803BC
:1024000010922503DF91CF911F910F91FF90EF90D4
:10241000DF90CF90BF90AF909F908F9008959D9147
:1024200091938F5F69CF85EEA5CF80912103909125
:102430002203A0912303B0912403892B8A2B8B2B99
:1024400009F49ECF0E94FD07009121031091220301
:1024500020912303309124036C197D098E099F0973
:10246000061717072807390708F08ACFC0CF81E081
:10247000C3CF80E0C1CF82E0BFCF83E0BDCF7F92EA
:102480008F929F92AF92BF92CF92DF92EF92FF9284
:102490000F931F93CF93DF935C01962E842E7901C7
:1024A000C02FD12F772473942097A9F1F501808153
:1024B0009181709225039092470310922603109207
:1024C0004803DC01ED91FC910190F081E02D682D35
:1024D00009956E01C032D10518F08FE1C82ED12CBC
:1024E000F50180819181DC01ED91FC910280F38105
:1024F000E02DA601B7010995CC19DD09E80EF91EFA
:1025000081E0209709F080E00E944F11882361F25A
:102510008FEF9FEF01C0C801DF91CF911F910F9105
:10252000FF90EF90DF90CF90BF90AF909F908F90F3
:102530007F9008950F931F93CF93DF9300D0CDB773
:10254000DEB769834A83FC01E659FF4F88599F4FE4
:1025500002E010E09E012F5F3F4F40E06081FC01F0
:10256000808191810E943F120F900F90DF91CF9157
:102570001F910F9108951F93CF93DF93162FFC01A6
:10258000E859FF4FC081D18186599F4FDC012C91C2
:102590008881998131E0309325032093470310927D
:1025A000260310924803DC01ED91FC910190F0812B
:1025B000E02D60E0099588819981DC01ED91FC9125
:1025C0000190F081E02D612F099581E0DF91CF919D
:1025D0001F910C944F112F923F924F925F926F92E6
:1025E0007F928F929F92AF92BF92CF92DF92EF92A3
:1025F000FF920F931F93CF93DF9300D000D01F92D1
:10260000CDB7DEB77C0184969D838C83D12CC12C01
:10261000F701EC59FF4F5F018A5B9F4F9B838A83D1
:10262000170198E6290E311C90E8492E512C66249A
:102630006A94762CF70183A18C151D0409F00CF423
:102640008DC0EC81FD818080918002811381F50134
:102650009081992381F0EC81FD8120A131A1281581
:1026600039050CF44901EC81FD8122A133A1021747
:1026700013070CF48901F0E88F16910409F465C082
:1026800089826C2DC816F0F4F7018681978188162F
:102690001906C0F4606BC7010E94BB12B40184E04C
:1026A000759567958A95E1F76F7077276061F701F7
:1026B0008281680FC7010E94BB1269816F70C701D8
:1026C0000E94BB120F5FF9810F1B10E0F70186819A
:1026D0009781C89E9001C99E300DD89E300D11245F
:1026E000820E931E21A132A1280D391D40E4EA81FA
:1026F000FB816081F101808191810E943F12F5018F
:102700008081882331F0EC81FD8151A240A273A227
:1027100062A2EC81FD818081918120A131A182178B
:10272000930714F491A380A3EC81FD8182819381AE
:1027300022A133A12817390714F493A382A3EC81B3
:10274000FD815182408273826282FFEFCF1ADF0ADD
:102750008C819D8104969D838C836CCFF5011082C2
:102760000F900F900F900F900F90DF91CF911F91CE
:102770000F91FF90EF90DF90CF90BF90AF909F9020
:102780008F907F906F905F904F903F902F90089523
:102790000895E091950280919402E81730F4F0E0FA
:1027A000E45DFD4F808190E008958FEF9FEF0895E5
:1027B00090919502809194022FEF3FEF981748F483
:1027C000E92FF0E0E45DFD4F208130E09F5F9093C2
:1027D0009502C90108958091940290919502891BF8
:1027E000990B0895CF92DF92EF92FF920F931F9370
:1027F000CF93DF937C01CB018A0120912503222313
:1028000089F0EB016B01C40ED51ECC15DD0569F016
:102810006991D701ED91FC910190F081E02DC70104
:102820000995F3CF642F0E94E910C801DF91CF9181
:102830001F910F91FF90EF90DF90CF900895CF936D
:10284000DF931F92CDB7DEB7698320912503222342
:10285000F9F020914803203258F021E030E0FC01EB
:102860003383228390E080E00F90DF91CF91089531
:1028700080912603E82FF0E0E95DFC4F9981908379
:102880008F5F809326038093480381E090E0ECCF34
:1028900061E0CE0101960E94E910F7CF80912402F9
:1028A00081111AC085E080931E0288E080931F0288
:1028B000109220028FEF809321028BEF94E090938F
:1028C00023028093220280E191E090931D02809385
:1028D0001C0281E0809324028CE192E008958F92A3
:1028E0009F92AF92BF92CF92DF92EF92FF920F939F
:1028F0001F93CF93DF9300D0CDB7DEB77C01162FA7
:10290000FC0182A193A1892B29F40E944E14F701A6
:1029100093A382A3F701A2A0B3A090E080E0A1144A
:10292000B10409F452C06701F9E0CF1AFEEFDF0AE3
:10293000F60140811A30A1F11D30D9F11A821982B5
:1029400019834701FAE08F1AFEEF9F0AF701E8505A
:10295000FE4F00819E012F5F3F4FF4016081C70150
:1029600004960E94040FF40180818F5FF50192812B
:10297000890FF4018083F5019281F7012285338567
:10298000291B310982171306A1F098F0F401108277
:10299000F6018081F5019381890FF601808309C0DA
:1029A000F701EA50FE4F1082F5018381480FF601CE
:1029B0004083F6012081F701848595852817190643
:1029C00010F0F601108281E090E00F900F90DF91FF
:1029D000CF911F910F91FF90EF90DF90CF90BF901C
:1029E000AF909F908F900895009729F090932104C5
:1029F0008093200408958091200490912104892BD4
:102A0000C9F70E944E14F2CF8091140281111BC0AD
:102A100088E080930E0280E180930F0280E2809331
:102A2000100280E68093110280E091E090931302FF
:102A3000809312028AE091E090930D0280930C0241
:102A400081E0809314028CE092E0089585ED96E099
:102A500008958AED91E00895089590E080E008954A
:102A60002F923F924F925F926F927F928F929F929E
:102A7000AF92BF92CF92DF92EF92FF920F931F938C
:102A8000CF93DF93CDB7DEB72F970FB6F894DEBFA5
:102A90000FBECDBF7C01162F442E69010987DC01D2
:102AA0005E96ED91FC91309709F4C8C0211531056F
:102AB00009F4C4C0D9010D900020E9F711971D0158
:102AC000221A330A09F4BAC0B381B695B695B69501
:102AD000BF87B11102C021E02F87552453943F8551
:102AE000313009F0512C26813781628170E0C901B3
:102AF0000E9426297B876A878F85829FA001839FFA
:102B0000500D11245C834B83A081B1812D913C91A8
:102B1000CF01F90109959E838D834601252D30E073
:102B20003D872C87D4018D914D01D7015E96ED91A3
:102B3000FC91082E000C990B2481821B91092581A0
:102B40002817190609F008F46BC06A857B850E9476
:102B500026294281489F9001499F300D1124EB8125
:102B6000FC816E9FC0016F9F900D7E9F900D112480
:102B7000A901480F591F58874F83042DB12CA12C50
:102B8000712E272D211BD7015E96ED91FC9132818C
:102B9000822F90E04C855D85430F511D841795076A
:102BA000BCF5BF85B13011F4321781F12681378130
:102BB000A29EF001A39EF00DB29EF00D11242F8174
:102BC0003885E20FF31FE80FF91F4D815E81E40F96
:102BD000F51F54915E8782E191E09A838983612C8D
:102BE000A981BA818D91BA83A983BE858B2351F0C7
:102BF000D7011A96ED91FC912985462D400F672D3E
:102C0000C70109956394B8E06B12EACF7394B9CF0A
:102C1000EFEFAE1ABE0A085FFF85AF1608F4B0CF1B
:102C2000D7015E96ED91FC918281850D180FC4014C
:102C30008C199D09821593050CF474CF2F960FB64D
:102C4000F894DEBF0FBECDBFDF91CF911F910F91E2
:102C5000FF90EF90DF90CF90BF90AF909F908F90BC
:102C60007F906F905F904F903F902F9008958F923C
:102C70009F92AF92BF92DF92EF92FF920F931F93BA
:102C8000CF93DF93FC0121A132A1232B09F460C073
:102C9000EC01D12C90E8892E912CAA24AA94BA2C6C
:102CA0008BA1D81608F050C06D2D70E08B01000F7D
:102CB000111F000F111F7E01E00EF11EF701EC5BEA
:102CC000FF4F80819181F70124A135A182179307DD
:102CD00014F495A384A3FE01E00FF11FDF01AA5BAA
:102CE000BF4F8D919C9126A137A12817390714F465
:102CF00097A386A3F70124A135A12038310511F14E
:102D00000C0F1D1FF80146A157A1421B530B4F5F2B
:102D10005F4FEE81FF816E9FC0016F9F900D7E9F80
:102D2000900D1124820F931F29A13AA170E060E059
:102D3000820F931F0E94942BF70195A284A2F801A1
:102D4000B7A2A6A2D394ACCFCC59DF4F81E0888341
:102D5000DF91CF911F910F91FF90EF90DF90BF9087
:102D6000AF909F908F90089585ED8093BC008091E7
:102D7000210390912203A0912303B091240307968D
:102D8000A11DB11D23E0B695A795979587952A9526
:102D9000D1F72091BC0024FD03C010921F030895B9
:102DA00040912103509122036091230370912403E9
:102DB000452B462B472B69F30097A105B10541F040
:102DC0002AE22A95F1F700C00197A109B109E1CFE4
:102DD000809120030C942E113F924F925F926F923C
:102DE0007F928F929F92AF92BF92CF92DF92EF929B
:102DF000FF920F931F93CF93DF93CDB7DEB7C058E9
:102E0000D1090FB6F894DEBF0FBECDBF9C0120598B
:102E10003F4F29F0DC0192963C932E9391974C0101
:102E2000BBE68B0E911C22E1F40120835C01FCE6E1
:102E3000AF0EB11C21EFD5012C938C0103591F4F0C
:102E400020E4F80120832C01FFE64F0E511CD20133
:102E50003C90311048C03C01B8E66B0E711CF30188
:102E600020813181232B09F43EC06C01FAE6CF0E9C
:102E7000D11CD6012C912223B1F1FC0141A152A118
:102E8000452B89F17C0181E0809325032093470342
:102E900010922603109248030E944F11811123C003
:102EA000D7015E968D919C91892B29F40E944E1436
:102EB000F701978F868FD701ED91FC91119784E1EF
:102EC0001A9601900D928A95E1F7F7018285938514
:102ED000885E904111F560915C0670915D0688E610
:102EE00091E00E949B2B832DC058DF4F0FB6F894C2
:102EF000DEBF0FBECDBFDF91CF911F910F91FF902D
:102F0000EF90DF90CF90BF90AF909F908F907F9089
:102F10006F905F904F903F900895D7011E968D91CE
:102F20009C91875E904129F4F70184859585978768
:102F30008687D70150968D919C91875E904129F4A8
:102F4000F70184859585918B808BD70154968D915F
:102F50009C91875E904129F4F70182899389958B32
:102F6000848BD70158968D919C91865E904129F46F
:102F7000F70186899789918F808F6EEAC7010E9439
:102F8000BB1240E865EDC7010E949A12D70118965E
:102F90004C91415068EAC7010E949A1240E063EDEB
:102FA000C7010E949A1260E4C7010E94BB1244E16B
:102FB0006DE8C7010E949A1242E060E2C7010E94D8
:102FC0009A1266EAC7010E94BB1264EAC7010E9416
:102FD000BB1261EAC7010E94BB1268ECC7010E94E4
:102FE000BB12F40140816AEDC7010E949A12F701F9
:102FF000E259FF4F408161E8C7010E949A12D50152
:103000004C9169EDC7010E949A12F80140816BED65
:10301000C7010E949A126EE2C7010E94BB126FEABA
:10302000C7010E94BB12D70118962D913C911997A8
:1030300083E0369527958A95E1F793962C9393979D
:1030400091968D919C919297009761F016966D9153
:103050007C91269FA001279F500D112470E060E015
:103060000E94942BF70123A130E0B49690E080E019
:1030700060E870E04FEF5FEF821793075CF47183B5
:1030800060835383428371A360A353A342A3019639
:103090003496F2CFF701EC59FF4F1082CE01019622
:1030A0005C0180E8D5011D928A95E9F7912CF70122
:1030B00083A19816A0F486819781892B81F0692DD0
:1030C000606BC7010E94BB12D70112966C91605FC2
:1030D000C7010E94BB1260E0C7010E94BB1200E85A
:1030E00010E0950140E4F6016081D3018D919C913F
:1030F0000E943F129394B8E09B12D9CF81E0F20175
:10310000808333243394EFCE1F920F920FB60F9229
:1031100011242F933F938F939F93AF93BF938091ED
:10312000E0029091E102A091E202B091E3023091BD
:10313000DF0223E0230F2D3758F50196A11DB11DA5
:103140002093DF028093E0029093E102A093E202D9
:10315000B093E3028091E4029091E502A091E6022F
:10316000B091E7020196A11DB11D8093E4029093F6
:10317000E502A093E602B093E702BF91AF919F9161
:103180008F913F912F910F900FBE0F901F90189528
:1031900026E8230F0296A11DB11DD2CF1F920F92D8
:1031A0000FB60F9211242F933F934F935F936F931A
:1031B0007F938F939F93AF93BF93EF93FF938091F0
:1031C000ED029091EE02A091EF02B091F002892BF6
:1031D0008A2B8B2BD1F19091E802E091E902F091DA
:1031E000EA028081892780838091ED029091EE022E
:1031F000A091EF02B091F002181619061A061B06EC
:103200009CF48091ED029091EE02A091EF02B091BA
:10321000F0020197A109B1098093ED029093EE02AB
:10322000A093EF02B093F002FF91EF91BF91AF91A5
:103230009F918F917F916F915F914F913F912F91CE
:103240000F900FBE0F901F901895809105010E945E
:103250006308EACF1F920F920FB60F9211242F939B
:103260003F934F935F936F937F938F939F93AF930E
:10327000BF93EF93FF9389E493E00E94EA0AFF91E2
:10328000EF91BF91AF919F918F917F916F915F91DE
:103290004F913F912F910F900FBE0F901F90189557
:1032A0001F920F920FB60F9211242F938F939F931B
:1032B000EF93FF93E0915903F0915A038081E091DD
:1032C0005F03F091600382FD1BC0908180916203D7
:1032D0008F5F8F7320916303821741F0E091620347
:1032E000F0E0E75BFC4F958F80936203FF91EF91D5
:1032F0009F918F912F910F900FBE0F901F90189557
:103300008081F4CF1F920F920FB60F9211242F934A
:103310003F934F935F936F937F938F939F93AF935D
:10332000BF93EF93FF938091B900887F803609F4B3
:103330004AC0F0F5883209F4A7C018F5803109F4C5
:103340009BC0B8F4882309F4F9C0883009F494C00C
:10335000FF91EF91BF91AF919F918F917F916F916D
:103360005F914F913F912F910F900FBE0F901F9043
:103370001895883109F488C0803251F780931D0375
:1033800014C0803409F49DC040F48033B9F388330D
:10339000F9F680931D0385ECB0C0803509F485C033
:1033A000883509F496C0883499F60E94B416D0CFB7
:1033B000883909F48CC038F5883729F050F48836FC
:1033C00011F0803729F683E080931F0310928F025B
:1033D00057C0883809F47BC0803919F0803809F06B
:1033E000B7CF80918F02803208F071C0E0918F02D8
:1033F00081E08E0F80938F028091BB00F0E0E15955
:10340000FD4F80833DC0803B39F0E0F4803A09F401
:1034100079C0883A09F09CCF84E080931F03109212
:103420006E0210926D02E0919202F0919302099562
:1034300080916D0281110FC081E080936D02109226
:103440004D0209C0803C09F4A6CF883C09F4A3CF03
:10345000883B09F07DCFE0916E0281E08E0F809372
:103460006E02F0E0E35BFD4F80818093BB009091A2
:103470006E0280916D0229C08091FA028093BB0098
:1034800085EC8093BC0064CF90911C0380911B035A
:10349000981758F5E0911C0381E08E0F80931C0370
:1034A000F0E0E550FD4F8081E9CFE0911C0381E021
:1034B0008E0F80931C038091BB00F0E0E550FD4F20
:1034C000808390911C0380911B039817C8F285E8B4
:1034D000D8CFE0911C0381E08E0F80931C03809174
:1034E000BB00F0E0E550FD4F808380911E03811109
:1034F0005CCF81E08093F90284EA8093BC00109253
:103500001F0326CF85EC8093BC0010921F0380918F
:103510008F02803230F4E0918F02F0E0E159FD4FEC
:10352000108260918F0270E0E0919002F091910220
:103530008FE692E0099510928F020ACF10921D0338
:1035400034CF0F931F93CF93DF93E9E4F3E013821B
:10355000128288EE93E0A0E0B0E084839583A68396
:10356000B7832EE131E03183208325EC30E03587CD
:10357000248724EC30E03787268720EC30E0318B3D
:10358000208B21EC30E0338B228B22EC30E0358B2A
:10359000248B26EC30E0378B268B118E128E138E07
:1035A000148EE6EEF3E02BEF3EE03183208321EF33
:1035B0003EE03383228327EE3EE0358324832DEDE6
:1035C0003EE03783268323EC36E0318720872AECE0
:1035D00036E033872287E2EFF3E01382128284839E
:1035E0009583A683B78380E391E091838083C9E0CC
:1035F000D6E01C821D821E821F82188619861A86BA
:103600001B861C861D861E861F861EA61FA618AA40
:1036100081E089AB1AAA81E096E09BA78AA785E0A2
:1036200096E099A788A78DEF95E09DA78CA71BAE84
:103630001CAE1DAE1EAE80E090E0AFE7B3E4809319
:10364000480690934906A0934A06B0934B0680EA39
:1036500096E8A1E0B0E08BAB9CABADABBEAB188203
:1036600019821A821B821C8E1D8E1E8E1F8E18A21E
:1036700019A21AA21BA21CA21DA21EA21FA20E9476
:10368000FD070BA91CA92DA93EA9601B710B820B7C
:10369000930B6FAB78AF89AF9AAFE7EFF5E0C2E07D
:1036A000D0E0D183C0838FEF9FEF93838283158215
:1036B000148261E082E00E947407EEEFF3E013826F
:1036C0001282D783C6831186108680E490E09387A8
:1036D000828780E390E09587848782E491E09583F8
:1036E00084838DE384A31092F3051092F20580E6A3
:1036F00091E091838083DF91CF911F910F91089585
:10370000CF93DF93CDB7DEB76D970FB6F894DEBFDA
:103710000FBECDBF789484B5826084BD84B58160CE
:1037200084BD85B5826085BD85B5816085BD80918C
:103730006E00816080936E00109281008091810004
:1037400082608093810080918100816080938100FC
:10375000809180008160809380008091B1008460BE
:103760008093B1008091B00081608093B00080911F
:103770007A00846080937A0080917A0082608093DE
:103780007A0080917A00816080937A0080917A003B
:10379000806880937A001092C10064EF71E080E04D
:1037A00090E00E942208E0915903F0915A0382E0D0
:1037B0008083E0915503F09156031082E091570306
:1037C000F09158038FEC808310926103E0915D03C8
:1037D000F0915E0386E08083E0915B03F0915C03EF
:1037E000808180618083E0915B03F0915C03808144
:1037F00088608083E0915B03F0915C038081806846
:103800008083E0915B03F0915C0380818F7D8083F6
:1038100064EF71E080E090E00E94220880918100D6
:10382000887F81608093810062E083E00E9474075A
:1038300062E086E00E94740762E085E00E947407FF
:1038400061E08AE00E94740761E088E00E947407EA
:1038500061E089E00E94740732EFE32E33E0F32E3B
:1038600041E6C42E48E0D42E52E6A52E58E0B52EEF
:1038700002EF15E08091080490910904892B51F022
:1038800080910A0490910B04892B21F01092F40589
:103890001092F50521E02093F6058091F2059091B4
:1038A000F305892BB1F4F092F305E092F205109242
:1038B00095021092940210922603109248030E94DF
:1038C0001011D0929302C0929202B0929102A092F3
:1038D00090028091220410936B0400936A048093F9
:1038E0006C0482E094E00E94EC16882311F40C949E
:1038F00050258091200490912104892B31F40E945D
:103900004E149093210480932004E0912004F091C0
:103910002104309719F083818093F50501E027EEAB
:1039200031E040E060E082E094E00E94040F27EE86
:1039300031E04AE060E082E094E00E94040F27EE6C
:1039400031E044E160E082E094E00E94040F27EE61
:1039500031E04EE160E082E094E00E94040F27EE47
:1039600031E048E260E082E094E00E94040F82E0EF
:1039700094E00E94EB1264EF71E080E090E00E941E
:10398000220882E094E00E94371682E094E00E94D0
:10399000EB120E9404150E94F41429EF31E040E07C
:1039A00060E082E094E00E94040F2DEF31E04FE0F0
:1039B00060E082E094E00E94040F24E032E04EE1F7
:1039C00060E082E094E00E94040F82E094E00E94B4
:1039D000EB120E944E140E94F41468E770E082E536
:1039E00090E00E948F0868E770E082E590E00E9416
:1039F0008F0868E770E085EA90E00E948F0868E72A
:103A000070E082E590E00E948F0868E770E082E550
:103A100090E00E948F0868E770E083E990E00E94E0
:103A20008F0868E770E082E590E00E948F0868E701
:103A300070E082E590E00E948F0868E770E083E81C
:103A400090E00E948F0868E770E082E590E00E94B5
:103A50008F0868E770E082E590E00E948F0868E7D1
:103A600070E085E790E00E948F0868E770E082E5EB
:103A700090E00E948F0868E770E082E590E00E9485
:103A80008F0868E770E08BE790E00E948F0868E796
:103A900070E083E890E00E948F088091DB029091B3
:103AA000DC02A091DD02B091DE02809305069093C6
:103AB0000606A0930706B0930806C12CD12C88EC0B
:103AC000E82E82E4F82EC0920D06D0920E06E09207
:103AD0000F06F092100680E090E0A0E8BFE380932C
:103AE000110690931206A0931306B0931406109239
:103AF000150610921606109217061092180660917D
:103B00003C0670913D0680913E0690913F060E94D2
:103B1000D02720E034E244E759E40E94022A9B01C6
:103B2000AC01C0922506D0922606E0922706F092BC
:103B300028062093290630932A0640932B0650939B
:103B40002C0660E070E0CB010E94022A60932D06F3
:103B500070932E0680932F0690933006809137063F
:103B6000811156C0E0913306F0913406A080B180F7
:103B7000C280D380C501D6018093090690930A06BE
:103B8000A0930B06B0930C06E0913106F09132063B
:103B900080819181A281B3818093540690935506D0
:103BA000A0935606B0935706E0904406F090450661
:103BB000309146063D8340914706498397014D81E8
:103BC0005981B501C6010E94CB2787FD16C0E09040
:103BD0004806F090490650914A065D8380914B0655
:103BE00089839701452F582FB501C6010E94AA2A43
:103BF00018161CF07501CD82D982C701AD81B9813B
:103C00008093090690930A06A0930B06B0930C06C6
:103C100081E08093370680933B0610924406109211
:103C20004506109246061092470680E090E0AFE706
:103C3000B3E48093480690934906A0934A06B09354
:103C40004B06A0913306B0913406BA83A983CD9078
:103C5000DD90ED90FC9020E030E0A901C701B601B5
:103C60000E94CB2787FD10C120E030E04FE753E4EE
:103C7000C701B6010E94AA2A181634F4C12CD12C0F
:103C80002FE7E22E23E4F22EE981FA81C082D1826D
:103C9000E282F382A0900906B0900A06C0900B065B
:103CA000D0900C06E0904406F0904506F091460650
:103CB000FD8320914706298397014F2F5981B50134
:103CC000C6010E94CB2787FD16C0E0904806F09001
:103CD000490630914A063D8340914B06498397013E
:103CE0004D815981B501C6010E94AA2A18161CF0FF
:103CF0007501CD82D982C701AD81B9818093090652
:103D000090930A06A0930B06B0930C0692EA292E14
:103D100092E0392E50E450937C0080917A008064C8
:103D200080937A0080917A0086FDFCCF60917800C4
:103D300070917900072E000C880B990B0E94D227F6
:103D400020E030EC4FE754E40E94022A20E030E00B
:103D500040EA50E40E9431286B017C0120E030E40D
:103D60004CE156E40E9431284B015C01A701960109
:103D700060E070E080EA90E40E9495299B01AC012C
:103D8000C501B4010E94022A20E030E543EC57E46B
:103D90000E94022A0E94B72A25E63FEC4BE859E32D
:103DA0000E94312822E63BEE4BE55BE30E94962918
:103DB0009B01AC0160E070E080E89FE30E94022A72
:103DC00023E333E948E853E40E94952926E636E6E2
:103DD00046EE5FE30E94312820E030E040E052E40C
:103DE0000E9496296B017C01C092DB02D092DC021A
:103DF000E092DD02F092DE02AC019B010E94072BF3
:103E0000811114C020E030E040E252ECC701B6015D
:103E10000E94CB2787FD0AC020E030E048EC53E445
:103E2000C701B6010E94AA2A181694F582E094E010
:103E30000E94371601E021EB31E049E160E082E0C9
:103E400094E00E94040F82E094E00E94EB1290E064
:103E500080E00E94A50760E088E00E94460761E0DC
:103E60008AE00E94460764EF71E080E193E00E94DF
:103E70008F0860E08AE00E94460764E670E080E018
:103E800090E00E942208EBCFC12CD12C7601FCCE11
:103E900020E030E040EF52E4C701B6010E94AA2AB8
:103EA00061E018165CF020E030E040EF52E4C7011A
:103EB000B6010E94CB2787FF04C060E08AE00E9421
:103EC00046078091D9029091DA020097B1F00197EC
:103ED00009F4B0C062E370E080E090E00E94220844
:103EE00040E050E0452B09F415CF0E94D60A882304
:103EF00009F410CF0E9400000DCF8091D802898371
:103F00008093040190E080E00E94A50783E00E9476
:103F10001D0721E0009709F420E02093D802892BA7
:103F200059F59981992341F164E688E00E9446079A
:103F30001092040164E670E083E992E00E948F0829
:103F400064E670E08AEB92E00E948F0864E670E01D
:103F500080E193E00E948F080E9455086093D4028C
:103F60007093D5028093D6029093D702A1E0B0E07F
:103F7000B093DA02A093D90220E030E040EF52E49F
:103F8000C701B6010E94AA2A18160CF04AC082E0A6
:103F900094E00E94371601E028EB31E04AE060E04F
:103FA00082E094E00E94040F0E9404150E94F41421
:103FB0006091DB027091DC028091DD029091DE0263
:103FC0000AEC12E020E043E00E9476258091030194
:103FD0008F93809102018F93C8019F930F93E3EC1D
:103FE000F1E0FF93EF931F9238E23F933F922F92BD
:103FF0000E94C22B01E022EA32E04EE16CE082E056
:1040000094E00E94040F0E944E140E94F41482E077
:1040100094E00E94EB120FB6F894DEBF0FBECDBF46
:1040200059CF82E094E00E94371682E094E00E942B
:10403000EB1250CF8091D802809304010E94550862
:10404000C0909E02D0909F02E090A002F090A1024A
:104050006C197D098E099F096333710581059105EE
:1040600008F479C182E094E00E9437160E9404159A
:104070000E94F41401E028EC31E043E064E082E0C7
:1040800094E00E94040F0E944E140E94F414609168
:10409000DB027091DC028091DD029091DE020AEC7D
:1040A00012E020E043E00E947625809103018F9387
:1040B000809102018F937801FF920F938DEC91E034
:1040C0009F938F931F92B8E2BF933F922F920E94CB
:1040D000C22B0E9404150E94F41401E022EA32E08F
:1040E00046E160E082E094E00E94040F0E944E14DA
:1040F0000E94F41460919A0270919B0280919C023C
:1041000090919D020E94D027870120E043E00E9409
:104110007625FF92EF92E4EDF1E0FF93EF931F928B
:1041200038E23F933F922F920E94C22B01E022EA95
:1041300032E047E063E282E094E00E94040F609185
:10414000020170910301072E000C880B990B0E944D
:10415000D2279B01AC016091DB027091DC0280915F
:10416000DD029091DE020E94022A20E030E040E869
:1041700052E40E9431280E947B2A69830FB6F8948A
:10418000DEBF0FBECDBF613410F050E4598389818A
:10419000C82ED12C623008F052C02FE2482F415077
:1041A00066E280E00E94CF06F12CE12CA09008048A
:1041B000B0900904EC14FD040CF05CC0B7010F2CA6
:1041C000000C880B990B0E94D22720919602309107
:1041D000970240919802509199020E9496292AE9EB
:1041E00039E949E15FE30E9431280E94FF2AEA147D
:1041F000FB0408F520E030E040E850E40E9431285C
:1042000020E030E04CE252E40E9496290E94742A99
:104210009B01332740910A0450910B042417350762
:1042200050F4E0910C04F0910D0421E0462F6E2D26
:1042300082E094E009959FEFE91AF90AB7CF8091DF
:10424000080490910904892B09F4AECF80910A04E7
:1042500090910B04879708F4A7CFE0911604F09192
:104260001704E12C0AE0298146E260E082E094E054
:1042700009959ACFAB2899F080910A0490910B048C
:10428000879768F0E0911404F0911504EE24E3940C
:104290000AE020E446E260E082E094E009952FE243
:1042A000498166E2842F0E94CF0620E030E040E89A
:1042B0005FE36091960270919702809198029091CD
:1042C00099020E94962960939602709397028093B8
:1042D0009802909399028091080490910904892B87
:1042E00099F080910A0490910B04892B69F0E09178
:1042F0001404F0911504EE24E39400E320E440E07C
:1043000060E082E094E009958091080490910904AE
:10431000892B99F080910A0490910B04892B69F004
:10432000E0911404F0911504EE24E39402E123E2F9
:1043300040E060E082E094E0099582E094E00E9431
:10434000EB120E94550860939E0270939F02809327
:10435000A0029093A1026091020170910301072EC7
:10436000000C880B990B0E94D2274B015C01C09076
:10437000DB02D090DC02E090DD02F090DE02A701CB
:1043800096010E9495292B013C0120E030E040EA93
:1043900050E40E94AA2A18160CF0E3C08FEF90E0B8
:1043A0000E94A50786E00E941D0731E0398300972F
:1043B00009F41982892BC9F4809101018823A9F09D
:1043C00080910201909103018C3241E094070CF43A
:1043D00053C38CE291E0909303018093020164E661
:1043E00070E082E690E00E948F089981909301012D
:1043F00085E00E941D07A1E0A983009709F41982B6
:10440000892BC1F4809100018823A1F080910201E1
:1044100090910301853691050CF038C384E690E055
:10442000909303018093020164E670E082E690E0DD
:104430000E948F08B981B093000183E00E941D079C
:1044400021E0009709F420E02093D802892B41F560
:1044500080910401882321F160E088E00E944607F2
:104460001092040164E670E080E193E00E948F08FE
:1044700064E670E08AEB92E00E948F0864E670E0E8
:1044800083E992E00E948F0882E094E00E94371650
:1044900082E094E00E94EB121092DA021092D902AC
:1044A0000E945508C090D402D090D502E090D60268
:1044B000F090D7026C197D098E099F0960387E4EF5
:1044C0008643910530F160E088E00E9446078091C4
:1044D000D8028093040164E670E080E193E00E94DA
:1044E0008F0864E670E08AEB92E00E948F0864E631
:1044F00070E083E992E00E948F0882E094E00E94DD
:10450000371682E094E00E94EB121092DA021092C9
:10451000D902C090D402D090D502E090D602F0909B
:10452000D7020E945508F0E8CF0EFEEEDF1EF6E33C
:10453000EF1EF11CA7019601261B370B480B590BE8
:10454000CA01B90120E63AEE40E050E00E944E294F
:1045500020939A0230939B0240939C0250939D02B9
:10456000B9CC20E030E040EA50E4C301B2010E943F
:10457000CB2718160CF47DC28092FD059092FE05A3
:10458000A092FF05B0920006C0920506D0920606E2
:10459000E0920706F092080680913706882309F416
:1045A0002AC20E94FD076D8B7E8B8F8B988F809126
:1045B00037068230F1F08091400690914106A0913B
:1045C0004206B09143064D895E896F89788D481BFC
:1045D000590B6A0B7B0B80913C0690913D06A09194
:1045E0003E06B0913F06481759076A077B0708F453
:1045F00002C2E0913106F091320620813181428180
:10460000538129873A874B875C87209154063091E4
:104610005506409156065091570669857A858B85D7
:104620009C850E9495292B013C01309138063983E5
:10463000313021F477FA709477F87094E091350670
:10464000F091360629853A854B855C8560817181BC
:10465000828193810E9495294981413009F4D7C113
:1046600060934C0670934D0680934E0690934F06D0
:10467000C0904C06D0904D06E0904E06F0904F064C
:1046800020915006309151064091520650915306A8
:10469000C701B6010E9495296D877E878F87988B09
:1046A0008090250690902606A0902706B0902806B8
:1046B000A5019401C701B6010E94312869837A835C
:1046C0008B839C8350913906598B552309F4A1C1E2
:1046D000A3019201C501B4010E9431286D837E833C
:1046E0008F8398878989813009F498C120E030E070
:1046F00040E05FE369817A818B819C810E9431284F
:1047000069837A838B839C8320E030E040E05FE321
:104710006D817E818F8198850E9431286D837E8393
:104720008F8398872D813E814F81588569817A8159
:104730008B819C810E9495294B015C018092190616
:1047400090921A06A0921B06B0921C062091290690
:1047500030912A0640912B0650912C06298B3A8BDA
:104760004B8B5C8BC701B6010E943128698F7A8F11
:104770008B8F9C8F60931D0670931E0680931F067F
:104780009093200660912D0670912E0680912F0641
:104790009091300620913A06211145C12D853E8524
:1047A0004F8558890E943128609321067093220614
:1047B000809323069093240630913B063D8F311160
:1047C0007DC0298D3A8D4B8D5C8DC701B6010E944D
:1047D000962929893A894B895C890E943128A5014B
:1047E00094010E949629962EA72EB82E892E4090CD
:1047F00048065090490660904A0670904B06A30107
:1048000092010E94AA2A18165CF420E030E0A90167
:104810006D857E858F8598890E94AA2A1816DCF0FE
:104820002091440630914506409146065091470636
:10483000692D7A2D8B2D982D0E94CB2787FF3EC0A6
:1048400020E030E0A9016D857E858F8598890E94E2
:10485000CB2787FF33C020E030E0A90169897A893E
:104860008B899C890E94CB27882341F173016201C7
:10487000F7FAF094F7F8F094A7019601692D7A2DD4
:104880008B2D982D0E94CB2787FD10C0A30192018C
:10489000692D7A2D8B2D982D0E94AA2A7301620111
:1048A000181624F0C92CDA2CEB2CF82CC0921D061B
:1048B000D0921E06E0921F06F092200620911D065F
:1048C00030911E0640911F06509120066091090606
:1048D00070910A0680910B0690910C060E94962911
:1048E0002D813E814F8158850E9495296B017C0165
:1048F0008090440690904506A0904606B0904706EA
:104900004D8D423009F093C0C601D701809309064E
:1049100090930A06A0930B06B0930C06209109060B
:1049200030910A0640910B0650910C0669817A81FC
:104930008B819C810E94962920912106309122062C
:1049400040912306509124060E949629D62EE72EE8
:10495000F82E99839401A5010E94CB2787FD84C07E
:1049600090904806A0904906B0904A06C0904B0629
:10497000292D3A2D4B2D5C2D6D2D7E2D8F2D99815E
:104980000E94AA2A18161CF4D92C7501C982E0913C
:104990003306F09134068D2D9E2DAF2DB981808385
:1049A0009183A283B38380914C0690914D06A09190
:1049B0004E06B0914F068093500690935106A093F7
:1049C0005206B093530689859A85AB85BC85809342
:1049D000540690935506A0935606B09357062D891A
:1049E0003E894F89588D209340063093410640936D
:1049F0004206509343066091010670910206809131
:104A00000306909104060E94742ACB01C9CC9058E9
:104A100027CE1D821E821F82188684CE19821A829A
:104A20001B821C827FCE9058A3019201BBCE9401C1
:104A3000A5010E94CB2787FD14C0409048065090E6
:104A4000490660904A0670904B069201A301B60198
:104A5000C7010E94AA2A18160CF056CF62017301F2
:104A600053CF6401750150CFD82CE92CFA2CB982B0
:104A70008ECF90E080E094CC0596909303018093D4
:104A8000020162E370E080E193E0ADCC0597909382
:104A900003018093020162E370E08BE092E0C8CCF6
:104AA00061E08AE00E9446074BE050E068ED71E06B
:104AB00089E493E00E946C0A42E050E064EE71E009
:104AC00089E493E00E946C0A64EF71E080E090E07A
:104AD0000E94220860E08AE00E94460764EF71E0CD
:104AE00080E090E00E9422080C943A1CEF920F9311
:104AF0001F93CF93DF93E80134E047FD34E1042EA8
:104B0000000C550B57FF03C0519541955109E32EF9
:104B1000022F242FAE010E949425CE01DF91CF9168
:104B20001F910F91EF900895A9E0B0E0EAE9F5E256
:104B30000C94F5286A01F22EB02E102FFBE3AF2E55
:104B4000A01608F41BE31F5F012F27E0AE014F5FA3
:104B50005F4F0E94F326BC018981982F9970913094
:104B600009F43FC09BE2E1FC04C09E2D9170E0FC83
:104B70003AC05E2D5071E82FE87083FF46C084E094
:104B8000911101C083E0EF2DE81B8F1508F0E0E0E4
:104B9000D6018E2F20E2552351F1992329F0D60119
:104BA0009C93C60101966C0196012D5F3F4FE2FE7A
:104BB00024C08EE4D6018C9391E411969C931197B6
:104BC00012968C93D9018E2F90E281111BC0E20FB7
:104BD000F32FF11D10828EEF9FEF2996ECE00C94DD
:104BE00011299DE2C6CF90E2C4CF2D93815081114F
:104BF000FCCFCE0ED11CE0E0D0CF8EE6D6018C9358
:104C000091E6DBCF9D938150E0CF482F447082FF27
:104C10003DC084E0911101C083E08F1510F4EF2DA9
:104C2000E81BD6018E2F20E2552309F1992329F0A4
:104C3000D6019C93C60101966C0196012D5F3F4FF2
:104C4000E2FE1BC089E4D6018C938EE411968C930E
:104C5000119786E412968C93D9018E2F90E28823C7
:104C600009F4B5CF9D938150FACF2D9381508111D6
:104C7000FCCFCE0ED11CE0E0D9CF89E6D6018C93D3
:104C80008EE611968C93119786E6E4CF9B0177FF11
:104C900002C030E020E0A1E0B0E0911102C0B0E03D
:104CA000A0E0F9013196AE0FBF1F8B2C912CBB20D9
:104CB00009F461C05401EFEFAE1ABE0AAA0DBB1D84
:104CC000FA161B0619F014F04F2D4A1B511188C01B
:104CD000E3FC59C07601A42FB0E2A1114FC0C40E6D
:104CE000D11C992309F45BC040E0D6011196F6016E
:104CF00090836D01552309F448C0012F060F9A8156
:104D0000582F507184FF03C0913309F401501016DD
:104D10000CF047C0093008F008E0EEE2FE2E5B011F
:104D2000A01AB10885019194819491082F3F320710
:104D300029F4D601FC92F60131966F0162177307D0
:104D400094F1021713077CF5DB01A21BB30BAA2415
:104D5000A394B12CAC0EBD1EAA0DBB1D11968C9157
:104D600021503109D601119628153905F4F0F601C4
:104D700080836D01DBCFB12CA12CA0CFF701B193C3
:104D80007F01A150AACF9111B0CFD601942F50E34B
:104D900002C05D9391509111FCCFC40ED11C40E034
:104DA000ACCF01E0BACF80E3DBCF6217730731F4F9
:104DB000963388F4953311F4552369F0F601808316
:104DC000FD01842F90E2811108C0A40FB11D1C9237
:104DD00090E080E002CF81E3F1CF91938150F3CF57
:104DE000911183CF8ACF283008F027E03327DA01EA
:104DF000990F311D87FD916000966105710539F4A9
:104E000032602E5F3D9330E32A95E1F708959F3F8E
:104E100030F080387105610509F03C5F3C5F3D93DF
:104E2000913008F08068911DDF93CF931F930F930B
:104E3000FF92EF92192F987F9695E92F9695969568
:104E4000E90FFF27E65CFE4F99273327EE24FF2466
:104E5000A701E70105900894079428F4360FE71E90
:104E6000F81E491F511D660F771F881F991F069452
:104E7000A1F70590079428F4E70EF81E491F561F66
:104E8000C11D770F881F991F661F0694A1F7059013
:104E9000079428F4F80E491F561FC71FD11D880F0D
:104EA000991F661F771F0694A1F70590079420F4B9
:104EB000490F561FC71FD81F990F661F771F881FDE
:104EC0000694A9F784911095177041F0D695C7956F
:104ED00057954795F794E7941A95C1F7E0EEF0E0FF
:104EE00068941590159135916591959105907FE2A3
:104EF0007395E118F10A430B560BC90BD009C0F7A3
:104F0000E10CF11E431F561FC91FD01D7EF47033E4
:104F100011F48A95E6CFE894015030F0080F0AF4B6
:104F20000027021708F4202F2395022F7A3328F048
:104F300079E37D932A95E9F710C07D932A9589F648
:104F4000069497956795379517951794E118F10A88
:104F5000430B560BC90BD00998F023957E9173959E
:104F60007A3308F070E37C932013B8F77E91706178
:104F70007D9330F0839571E37D9370E32A95E1F79B
:104F80001124EF90FF900F911F91CF91DF919927FE
:104F900087FD909508950E940D2808F481E00895FA
:104FA000E89409C097FB3EF49095809570956195C3
:104FB0007F4F8F4F9F4F9923A9F0F92F96E9BB2779
:104FC0009395F695879577956795B795F111F8CFF5
:104FD000FAF4BB0F11F460FF1BC06F5F7F4F8F4F60
:104FE0009F4F16C0882311F096E911C0772321F056
:104FF0009EE8872F762F05C0662371F096E8862FEE
:1050000070E060E02AF09A95660F771F881FDAF744
:10501000880F9695879597F90895990F0008550F71
:10502000AA0BE0E8FEEF16161706E807F907C0F02E
:1050300012161306E407F50798F0621B730B840B36
:10504000950B39F40A2661F0232B242B252B21F410
:1050500008950A2609F4A140A6958FEF811D811DB0
:1050600008950E9444280C94B5280E94A72838F07F
:105070000E94AE2820F0952311F00C949E280C94E9
:10508000A42811240C94E9280E94C62870F3959F47
:10509000C1F3950F50E0551F629FF001729FBB272F
:1050A000F00DB11D639FAA27F00DB11DAA1F649FCB
:1050B0006627B00DA11D661F829F2227B00DA11D7E
:1050C000621F739FB00DA11D621F839FA00D611D04
:1050D000221F749F3327A00D611D231F849F600D25
:1050E000211D822F762F6A2F11249F5750409AF04E
:1050F000F1F088234AF0EE0FFF1FBB1F661F771FDA
:10510000881F91505040A9F79E3F510580F00C94A4
:105110009E280C94E9285F3FE4F3983ED4F38695EB
:1051200077956795B795F795E7959F5FC1F7FE2B44
:10513000880F911D9695879597F9089597F99F6720
:1051400080E870E060E008959FEF80EC089500240F
:105150000A941616170618060906089500240A94DC
:1051600012161306140605060895092E0394000C62
:1051700011F4882352F0BB0F40F4BF2B11F460FFF1
:1051800004C06F5F7F4F8F4F9F4F089557FD90581A
:10519000440F551F59F05F3F71F04795880F97FBFB
:1051A000991F61F09F3F79F08795089512161306B5
:1051B0001406551FF2CF4695F1DF08C016161706E4
:1051C0001806991FF1CF8695710561050894089519
:1051D000E894BB2766277727CB0197F908952F928C
:1051E0003F924F925F926F927F928F929F92AF9277
:1051F000BF92CF92DF92EF92FF920F931F93CF93C4
:10520000DF93CDB7DEB7CA1BDB0B0FB6F894DEBF5A
:105210000FBECDBF09942A88398848885F846E8480
:105220007D848C849B84AA84B984C884DF80EE80CA
:10523000FD800C811B81AA81B981CE0FD11D0FB6D3
:10524000F894DEBF0FBECDBFED010895AA1BBB1BB6
:1052500051E107C0AA1FBB1FA617B70710F0A61B76
:10526000B70B881F991F5A95A9F780959095BC0197
:10527000CD01089597FB072E16F4009407D077FD13
:1052800009D00E94262907FC05D03EF4909581950F
:105290009F4F0895709561957F4F0895A1E21A2E52
:1052A000AA1BBB1BFD010DC0AA1FBB1FEE1FFF1FCA
:1052B000A217B307E407F50720F0A21BB30BE40B1A
:1052C000F50B661F771F881F991F1A9469F7609561
:1052D0007095809590959B01AC01BD01CF0108951B
:1052E000052E97FB1EF400940E94872957FD07D0D6
:1052F0000E944E2907FC03D04EF40C948729509548
:105300004095309521953F4F4F4F5F4F08959095B1
:105310008095709561957F4F8F4F9F4F0895EE0F49
:10532000FF1F0590F491E02D09945058BB27AA2740
:105330000E94AD290C94B5280E94A72838F00E943D
:10534000AE2820F039F49F3F19F426F40C94A428D9
:105350000EF4E095E7FB0C949E28E92F0E94C628E6
:1053600058F3BA17620773078407950720F079F49A
:10537000A6F50C94E8280EF4E0950B2EBA2FA02D7C
:105380000B01B90190010C01CA01A0011124FF27F2
:10539000591B99F0593F50F4503E68F11A16F040ED
:1053A000A22F232F342F4427585FF3CF46953795EC
:1053B0002795A795F0405395C9F77EF41F16BA0BB1
:1053C000620B730B840BBAF09150A1F0FF0FBB1F5F
:1053D000661F771F881FC2F70EC0BA0F621F731FA8
:1053E000841F48F4879577956795B795F7959E3F05
:1053F00008F0B0CF9395880F08F09927EE0F979596
:10540000879508950E94162A0C94B5280E94AE280C
:1054100058F00E94A72840F029F45F3F29F00C942F
:105420009E2851110C94E9280C94A4280E94C628A7
:1054300068F39923B1F3552391F3951B550BBB27C3
:10544000AA2762177307840738F09F5F5F4F220F08
:10545000331F441FAA1FA9F335D00E2E3AF0E0E8FF
:1054600032D091505040E695001CCAF72BD0FE2F49
:1054700029D0660F771F881FBB1F261737074807DD
:10548000AB07B0E809F0BB0B802DBF01FF27935895
:105490005F4F3AF09E3F510578F00C949E280C9493
:1054A000E9285F3FE4F3983ED4F3869577956795B6
:1054B000B795F7959F5FC9F7880F911D96958795CA
:1054C00097F90895E1E0660F771F881FBB1F6217E9
:1054D00073078407BA0720F0621B730B840BBA0BA7
:1054E000EE1F88F7E09508950E947B2A6894B11119
:1054F0000C94E92808950E94CE2888F09F5798F0D0
:10550000B92F9927B751B0F0E1F0660F771F881FC8
:10551000991F1AF0BA95C9F714C0B13091F00E94E2
:10552000E828B1E008950C94E828672F782F8827A1
:10553000B85F39F0B93FCCF3869577956795B39509
:10554000D9F73EF490958095709561957F4F8F4F78
:105550009F4F08950E940D2808F48FEF089516F0CC
:105560000C940C2B0C94A42868940C949E280E94F4
:10557000CE28A8F39923C1F3AEF3DF93CF931F9303
:105580000F93FF92C92FDD2788232AF02197660FFA
:10559000771F881FDAF720E030E040E85FEB9FE3F9
:1055A000883920F0803E38F021968F770E94962926
:1055B000E8E6F0E004C00E949629E5E9F0E00E94E8
:1055C0001A2B8B01BE01EC01FB2E6F5771097595EB
:1055D000771F880B990B0E94D22728E132E741E31D
:1055E0005FE30E944428AF2D9801AE01FF900F9118
:1055F0001F91CF91DF910E94AD290C94B5289F9304
:105600000E94432B0F9007FCEE5F0C946C2B0E94C2
:105610000D28880B990B08959F3F31F0915020F48D
:10562000879577956795B795880F911D969587957E
:1056300097F90895DF93CF931F930F93FF92EF9203
:10564000DF927B018C01689406C0DA2EEF010E9484
:105650004428FE01E894A5912591359145915591F5
:10566000A6F3EF010E94AD29FE019701A801DA948B
:1056700069F7DF90EF90FF900F911F91CF91DF912D
:1056800008950C94A4280E94CE28D8F3E894E0E072
:10569000BB279F57F0F02AED3FE049EC06C0EE0F24
:1056A000BB0F661F771F881F28F0B23A6207730787
:1056B000840728F0B25A620B730B840BE3959A951A
:1056C00072F7803830F49A95BB0F661F771F881FDA
:1056D000D2F790480C940E2BEF93E0FF07C0A2EA9C
:1056E0002AED3FE049EC5FEB0E94AD290E94B5280E
:1056F0000F90039401FC9058E2ECF0E00C94802BA6
:105700009F938F937F936F93FF93EF939B01AC01D4
:105710000E943128EF91FF910E941A2B2F913F9107
:105720004F915F910C943128DC0101C06D93415081
:105730005040E0F70895EF92FF920F931F93CF939D
:10574000DF93FB01238121FF19C0EB018C01F12CB8
:10575000E12CF80181918F01811106C0C701CDB7FD
:10576000DEB7E6E00C941729E885F985BE010995B6
:10577000892B79F3EE24EA94FE2CEBCFEE24EA9405
:10578000FE2CECCFAEE0B0E0E8ECFBE20C94FD28A0
:105790000D891E898F89988D26E02C831A830983B1
:1057A00097FF02C080E090E801979E838D83AE0151
:1057B000455E5F4F698D7A8DCE0101960E94F22B76
:1057C0004D815E8157FD0AC02F81388542175307EE
:1057D0000CF49A01020F131FF80110822E96E4E0D8
:1057E0000C941929ABE0B0E0E8EFFBE20C94EF2851
:1057F0007C013B018A01FC0117821682838181FFB3
:10580000C8C1CE0101965C01F7019381F30193FDBC
:10581000859193FF81913F01882309F453C185321B
:1058200039F493FD859193FF81913F01853229F4ED
:10583000B70190E00E94E22DE7CF912C212C312C72
:10584000FFE1F31538F08B3211F190F4803209F159
:10585000833229F137FC3CC020ED280F2A3050F567
:1058600036FE20C08AE0989E200D1124922E06C09C
:105870008D3291F0803371F7689430F8F30193FD25
:10588000859193FF81913F018111DACF21C0689406
:1058900031F8689432F8F2CF689433F8EFCF689417
:1058A00034F8ECCFEAE02E9E200D1124222E6894CD
:1058B00035F8E4CF8E3229F436FC04C1689436F80A
:1058C000DDCF8C3619F4689437F8D8CF8836B1F22A
:1058D000982F9F7D95549330E0F08336A1F1833764
:1058E000C1F1833509F063C02801F2E04F0E511C6D
:1058F000F801C080D180692D70E036FC02C06FEFE6
:105900007FEFC6010E94CC2D4C01689437F88201CC
:105910000AC00C5F1F4FFFE3F98388248394912C06
:105920006501E89437F833FE2DC0522C81149104A0
:1059300071F5552009F468CFB70180E290E00E942C
:10594000E22D5A94F6CFF801808189830E5F1F4FB4
:10595000E4CF2801F2E04F0E511CF801C080D18045
:10596000692D70E036FC02C06FEF7FEFC6010E9428
:10597000D72D4C018201D5CFB70180E290E00E9483
:10598000E22D2A942814190409F0B0F7CECFF601BD
:1059900037FC859137FE81916F01B70190E00E943D
:1059A000E22D51105A94F1E08F1A9108BFCF84363E
:1059B00019F0893609F077C0F80137FE6BC06081B5
:1059C0007181828193810C5F1F4FF32DFF763F2EF3
:1059D00097FF09C090958095709561957F4F8F4F87
:1059E0009F4F689437F82AE030E0A5010E94122EFC
:1059F000C82ECA188C2C432C36FE0CC0E89440F8F4
:105A0000C91440F434FE05C032FC03C0F32DFE7E01
:105A10004F2E892C44FE95C0FE01EC0DF11D8081B6
:105A2000803309F087C0242D297E422E842D887072
:105A3000582E43FC95C040FE8FC09C2C821418F455
:105A40002C0C922C981844FE91C0B70180E390E092
:105A50000E94E22D42FE09C088E790E041FE02C0AC
:105A600088E590E0B7010E94E22DC91408F48AC0CD
:105A7000CA94D12C9FEFC91AD90ACA0CDB1CF601B3
:105A800082916F01B70190E00E94E22DAC14BD0439
:105A9000B1F74FCF60817181072E000C880B990BF5
:105AA0000E5F1F4F92CFD32CE894D4F82AE030E059
:105AB000853739F1232D297FD22E8F3601F148F415
:105AC0008835A9F0F701868197812B96E2E10C9445
:105AD0000B29803749F08837A9F7D4FE02C06894B3
