:100000000C948A030C94B2030C94B2030C94B203C4
:100010000C94B2030C94B2030C94B2030C94A61586
:100020000C94B2030C94B2030C94B2030C94B2037C
:100030000C94B2030C94B2030C94B2030C94B2036C
:100040000C945C150C94B2030C9428160C940216B4
:100050000C94B2030C94B2030C94B2030C94B2034C
:100060000C945A160C94B20308000000BE92244966
:10007000123EABAAAA2ABECDCCCC4C3E00000080DA
:10008000BEABAAAAAA3E00000000BF000000803F4D
:100090000000000000084178D3BB4387D1133D190D
:1000A0000E3CC3BD4282AD2B3E68EC8276BED98F3A
:1000B000E1A93E4C80EFFFBE01C4FF7F3F0000007E
:1000C000000000407A10F35A00A0724E1809001088
:1000D000A5D4E80000E87648170000E40B540200BD
:1000E00000CA9A3B000000E1F505000080969800E8
:1000F000000040420F000000A08601000000102711
:1001000000000000E80300000000640000000000A0
:100110000A00000000000100000000002C76D888D2
:10012000DC674F0823DFC1DFAE59E1B1B796E5E3E5
:10013000E453C63AE651997696E8E6C28426EB89FE
:100140008C9B62ED407C6FFCEFBC9C9F40F2BAA59B
:100150006FA5F490055A2AF75C936B6CF9676DC133
:100160001BFCE0E40D47FEF520E6B500D0ED902E37
:100170000300943577050080841E080000204E0A95
:10018000000000C80C333333330F986E12831141D3
:10019000EF8D2114893BE65516CFFEE6DB18D1849E
:1001A0004B381BF77C1D901DA4BBE42420328472C5
:1001B0005E228100C9F124ECA1E53D27000000008A
:1001C000003E5B4F5B3E3E6B4F6B3E1C3E7C3E1CDD
:1001D000183C7E3C181C577D571C1C5E7F5E1C0023
:1001E000183C1800FFE7C3E7FF0018241800FFE7DA
:1001F000DBE7FF30483A060E2629792926407F059D
:100200000507407F05253F5A3CE73C5A7F3E1C1CB2
:1002100008081C1C3E7F14227F22145F5F005F5F72
:1002200006097F017F006689956A6060606060945E
:10023000A2FFA29408047E040810207E2010080863
:100240002A1C08081C2A08081E101010100C1E0C6E
:100250001E0C30383E3830060E3E0E060000000000
:100260000000005F00000007000700147F147F14E7
:10027000242A7F2A1223130864623649562050002C
:1002800008070300001C2241000041221C002A1C18
:100290007F1C2A08083E0808008070300008080803
:1002A0000808000060600020100804023E51494523
:1002B0003E00427F400072494949462141494D3341
:1002C0001814127F1027454545393C4A49493141A8
:1002D000211109073649494936464949291E000076
:1002E00014000000403400000008142241141414CB
:1002F0001414004122140802015909063E415D59B7
:100300004E7C1211127C7F494949363E41414122BF
:100310007F4141413E7F494949417F090909013EE9
:10032000414151737F0808087F00417F4100204010
:10033000413F017F081422417F404040407F021C22
:10034000027F7F0408107F3E4141413E7F09090939
:10035000063E4151215E7F09192946264949493205
:1003600003017F01033F4040403F1F2040201F3FCB
:100370004038403F63140814630304780403615950
:10038000494D43007F414141020408102000414192
:10039000417F04020102044040404040000307083E
:1003A0000020545478407F2844443838444444283A
:1003B000384444287F385454541800087E090218E1
:1003C000A4A49C787F0804047800447D4000204069
:1003D000403D007F1028440000417F40007C0478AD
:1003E00004787C080404783844444438FC182424F5
:1003F0001818242418FC7C08040408485454542475
:1004000004043F44243C4040207C1C2040201C3CF1
:100410004030403C44281028444C9090907C4464E8
:10042000544C44000836410000007700000041367B
:10043000080002010204023C2623263C1EA1A16101
:10044000123A4040207A3854545559215555794133
:100450002154547841215554784020545579400C0A
:100460001E527212395555555939545454593955EB
:100470005454580000457C410002457D420001452E
:100480007C40F0292429F0F0282528F07C5455459B
:10049000002054547C547C0A097F4932494949322E
:1004A0003248484832324A4848303A4141217A3A43
:1004B00042402078009DA0A07D39444444393D400D
:1004C00040403D3C24FF2424487E4943662B2FFCBA
:1004D0002F2BFF0929F620C0887E09032054547968
:1004E000410000447D413048484A32384040227A39
:1004F000007A0A0A727D0D19317D2629292F2826B6
:100500002929292630484D402038080808080808BD
:100510000808382F10C8ACBA2F102834FA00007B16
:10052000000008142A142222142A1408AA005500D4
:10053000AAAA55AA55AA000000FF00101010FF003B
:10054000141414FF001010FF00FF1010F010F0142E
:100550001414FC001414F700FF0000FF00FF141433
:10056000F404FC141417101F10101F101F1414147F
:100570001F00101010F0000000001F101010101FBE
:1005800010101010F010000000FF101010101010CC
:10059000101010FF10000000FF140000FF00FF000B
:1005A000001F10170000FC04F41414171017141483
:1005B000F404F40000FF00F714141414141414F7D6
:1005C00000F7141414171410101F101F141414F42F
:1005D000141010F010F000001F101F0000001F1476
:1005E000000000FC140000F010F01010FF10FF14C9
:1005F0001414FF141010101F00000000F010FFFF73
:10060000FFFFFFF0F0F0F0F0FFFFFF000000000040
:10061000FFFF0F0F0F0F0F38444438447C2A2A3E47
:10062000147E02020606027E027E02635549416381
:100630003844443C04407E201E2006027E0202997B
:10064000A5E7A5991C2A492A1C4C7201724C304A14
:100650004D4D303048784830BC625A463D3E49499D
:1006600049007E0101017E2A2A2A2A2A44445F4445
:100670004440514A444040444A51400000FF010375
:10068000E080FF000008086B6B083612362436063F
:100690000F090F060000181800000010100030406D
:1006A000FF0101001F01011E00191D1712003C3C33
:1006B0003C3C000000000000000000240027002A4D
:1006C00000000000002300260029000000000800B0
:1006D0000201000003040700000000000000000108
:1006E00002040810204080010204081020010204C6
:1006F00008102000000000250028002B000404043E
:1007000004040404040202020202020303030303BA
:100710000302791711241FBECFEFD8E0DEBFCDBF93
:1007200026E0ACEEB1E001C01D92A831B207E1F7BE
:1007300011E0A0E0B1E0EEE7F1E502C005900D9216
:10074000AC3EB107D9F713E0CAE8D3E004C0219763
:10075000FE010E943724C938D107C9F70E945818F2
:100760000C94BD280C940000FC01942F90954081BE
:10077000492340830895FC019081492B40830895CB
:10078000833081F028F4813099F08230A9F0089507
:100790008730A9F08830C9F08430B1F480918000AE
:1007A0008F7D03C0809180008F77809380000895B3
:1007B00084B58F7784BD089584B58F7DFBCF8091FC
:1007C000B0008F778093B00008958091B0008F7D46
:1007D000F9CFCF93DF93282F30E0F901E553F94F9C
:1007E0008491F901E152F94FD491F901E350F94FA5
:1007F000C491CC23A1F081110E94C003EC2FF0E042
:10080000EE0FFF1FEF53F94FA591B491EC91ED233B
:1008100081E090E009F480E0DF91CF91089580E0DD
:1008200090E0FACF1F93CF93DF93282F30E0F901A8
:10083000E553F94F8491F901E152F94FD491F9014F
:10084000E350F94FC491CC23A9F0162F81110E94D7
:10085000C003EC2FF0E0EE0FFF1FED50F94FA59114
:10086000B4918FB7F894EC91111108C0D095DE23A4
:10087000DC938FBFDF91CF911F910895DE2BF8CFCE
:10088000CF93DF9390E0FC01E152F94F2491835024
:10089000994FFC0184918823D1F090E0880F991F33
:1008A000FC01E954F94FA591B491FC01ED50F94FC9
:1008B000C591D491623071F49FB7F8943C91822F26
:1008C000809583238C93E8812E2B28839FBFDF9113
:1008D000CF9108958FB7F894EC912E2B2C938FBF66
:1008E000F6CFCF93DF93EC0161E089E00E944004F2
:1008F000209731F460E089E0DF91CF910C941204ED
:10090000CF3FD10511F461E0F6CFE4EDF6E0E491DC
:10091000E33029F140F4E130B1F0E230D9F0C038F1
:10092000D1058CF7E7CFE73021F1E83051F1E43021
:10093000B1F780918000806280938000D0938B001B
:10094000C0938A0004C084B5806884BDC7BDDF91B0
:10095000CF91089584B5806284BDC8BDF8CF8091E1
:100960008000806880938000D0938900C0938800C5
:10097000EECF8091B00080688093B000C093B30048
:10098000E6CF8091B00080628093B000C093B40045
:10099000DECF3FB7F89480919E0290919F02A09184
:1009A000A002B091A10226B5A89B05C02F3F19F067
:1009B0000196A11DB11D3FBFBA2FA92F982F8827DF
:1009C000BC01CD01620F711D811D911D42E0660FBA
:1009D000771F881F991F4A95D1F708958F929F928C
:1009E000AF92BF92CF92DF92EF92FF926B017C01A8
:1009F0000E94C9044B015C01C114D104E104F1045B
:100A0000B9F00E94C904681979098A099B09683EEE
:100A100073408105910580F321E0C21AD108E108F5
:100A2000F10888EE880E83E0981EA11CB11CE4CF6B
:100A3000FF90EF90DF90CF90BF90AF909F908F90FE
:100A40000895089508959091050189130BC0E1E17F
:100A5000F7E0E4919FEF90930501E13049F028F031
:100A6000E23061F060E00C94120410926E00FACF54
:100A700090916F009D7F90936F00F4CF90917000E4
:100A80009D7F9093700091E09093B0009091B100A1
:100A9000987F94609093B1001092B300E3CF8F924F
:100AA0009F92AF92BF92CF92DF92EF92FF920F93FD
:100AB0001F93CF936C018B018091B3059091B40586
:100AC0008F3F980719F061E00E9412048091B105F0
:100AD0009091B205209105012817C1F12F3F09F42B
:100AE000ACC0B801012E000C880B990B0E94EE04DB
:100AF0008091B3059091B4058F3F980719F060E09D
:100B00000E9412048091B1050E9423052091B50531
:100B10003091B605029FC001039F900D129F900D6A
:100B2000112464E670E00E94E223072E000C880B7B
:100B3000990BCF911F910F91FF90EF90DF90CF9085
:100B4000BF90AF909F908F900C94EE04E1E1F7E09E
:100B5000C491C7FDC6CF61E00E944004CC2319F0C8
:100B6000C23009F0E3C00D2C000CEE08FF0860E075
:100B700072E18AE790E0A70196010E94F6234901FD
:100B80005A0168E478EE81E090E0A70196010E94A6
:100B9000F6232150310941095109CC2309F42CC114
:100BA000C23009F027C184E02F3F310541055105CE
:100BB000A9F1A4F164E274EF80E090E0A70196014E
:100BC0000E94F623215031094109510985E02F3F48
:100BD00031054105510511F108F162E17AE780E044
:100BE00090E0A70196010E94F623215031094109A6
:100BF000510986E02F3F31054105510579F074F028
:100C00009AE0B594A794979487949A95D1F7A50103
:100C10009401215031094109510987E09091B100B7
:100C2000987F892B8093B100C13009F4ACC0C230E9
:100C300009F4BEC0C11155CFFDC080930501E1E1AB
:100C4000F7E0C491CF3F09F44CCFC13039F148F0FF
:100C5000C23009F445C0C7FD44CF61E00E944004A2
:100C60007FCF14BC15BC24B5226024BD25B52160FE
:100C700025BD9C013327F901E350F94FE491F0E0E1
:100C8000EE0FFF1FED50F94F45915491F901E152DC
:100C9000F94FE491E093A602C0E05DCF109280008E
:100CA0001092810020918100286020938100209182
:100CB00081002160209381009C013327F901E350DA
:100CC000F94FE491F0E0EE0FFF1FED50F94F459121
:100CD0005491F901E152F94FE491E093A5023BCF21
:100CE0001092B0001092B1002091B00022602093C9
:100CF000B0002091B10021602093B1009C01332706
:100D0000F901E350F94FE491F0E0EE0FFF1FED50D1
:100D1000F94F459154915093A4024093A302F901D5
:100D2000E152F94FE491E093A20215CF0D2C000C93
:100D3000EE08FF0860E072E18AE790E0A701960103
:100D40000E94F623215031094109510991E02115F2
:100D5000310581E0480751056CF068E478EE81E0E8
:100D600090E0A70196010E94F62321503109410924
:100D7000510993E0C13009F057CF80918100887FFD
:100D8000892B8093810030938900209388008FEF16
:100D90009FEFDC018093AB029093AC02A093AD0275
:100DA000B093AE0280916F00826080936F0099CE05
:100DB0002093B3008FEF9FEFDC018093A702909305
:100DC000A802A093A902B093AA0280917000826049
:100DD0008093700086CE8AE0B594A7949794879408
:100DE0008A95D1F7A5019401215031094109510992
:100DF00095E01CC084E0EBCE93E02F3F3105410528
:100E00005105A1F09CF062E17AE780E090E0A70153
:100E100096010E94F62321503109410951092F3FC3
:100E200031054105510509F0B4F694E085B5887F98
:100E3000892B85BD27BD8FEF9FEFDC018093AF022B
:100E40009093B002A093B102B093B20280916E0071
:100E5000826080936E0045CEAF92BF92CF92DF92B8
:100E6000EF92FF920F931F93CF93DF936C017B015F
:100E70008B01040F151FEB015E01AE18BF08C017F0
:100E8000D10759F06991D601ED91FC910190F08163
:100E9000E02DC6010995892B79F7C501DF91CF9126
:100EA0001F910F91FF90EF90DF90CF90BF90AF9088
:100EB0000895FC01538D448D252F30E0842F90E060
:100EC000821B930B541710F0CF9608950197089545
:100ED000FC01918D828D981761F0A28DAE0FBF2F0E
:100EE000B11D5D968C91928D9F5F9F73928F90E064
:100EF00008958FEF9FEF0895FC01918D828D9817D3
:100F000031F0828DE80FF11D858D90E008958FEF0F
:100F10009FEF0895FC01918D228D892F90E0805CD8
:100F20009F4F821B91098F739927089583E093E067
:100F30000E948A0721E0892B09F420E0822F08957E
:100F400080E090E0892B29F00E94960781110C9493
:100F500000000895FC01A48DA80FB92FB11DA35A5C
:100F6000BF4F2C91848D90E001968F739927848FC9
:100F7000A689B7892C93A089B1898C9183708064EC
:100F80008C93938D848D981306C00288F389E02D8D
:100F900080818F7D80830895EF92FF920F931F933E
:100FA000CF93DF93EC0181E0888F9B8D8C8D98131C
:100FB0001AC0E889F989808185FF15C09FB7F89428
:100FC000EE89FF896083E889F98980818370806474
:100FD00080839FBF81E090E0DF91CF911F910F91BF
:100FE000FF90EF900895F62E0B8D10E00F5F1F4FCE
:100FF0000F731127E02E8C8D8E110CC00FB607FCDD
:10100000FACFE889F989808185FFF5CFCE010E946A
:10101000AA07F1CFEB8DEC0FFD2FF11DE35AFF4F27
:10102000F0829FB7F8940B8FEA89FB8980818062F8
:10103000CFCFCF93DF93EC01888D8823B9F0AA89B5
:10104000BB89E889F9898C9185FD03C0808186FD83
:101050000DC00FB607FCF7CF8C9185FFF2CF8081D2
:1010600085FFEDCFCE010E94AA07E9CFDF91CF9196
:1010700008952F923F924F925F926F927F928F923C
:101080009F92AF92BF92CF92DF92EF92FF920F9317
:101090001F93CF93DF93CDB7DEB76A970FB6F8945F
:1010A000DEBF0FBECDBF4C01D42EF886EF82662E78
:1010B000712CDC011696ED91FC9117976E167F0648
:1010C00008F040C118964D915C918D2D90E08417E9
:1010D000950708F037C1CC2009F434C1AA2009F4DF
:1010E00031C1D301A20FB11DEA17FB0710F42E2F57
:1010F000261B122FC21608F41C2D800F911D4817B5
:10110000590710F4042F0D19A01608F40A2D8FEFBB
:101110008D0D080F902F969596959695F401EA59A6
:10112000FF4F0190F081E02DEE0FFF1FE056FC4FC6
:1011300020813181388B2F878D2D869586958695D8
:10114000282E312CA101440F551F440F551F480D67
:10115000591D5A8F498F412C692F70E07B8B6A8B08
:10116000802F90E09D8B8C8B07700E8BAC2DB0E0A8
:10117000B88FAF8BF301E10FF11DFA87E9872A8958
:101180003B89221533050CF4DDC02D2D2770422F2D
:1011900050E05A8349838D2D90E00896841B950B6F
:1011A0006C897D89681779070CF0A6C08E8947E0A5
:1011B00050E0481B5109AFEFB0E002C0B595A795CC
:1011C0004A95E2F7022E01C0AA0F0A94EAF7A98B0A
:1011D00055245394521A580E942D9770E92FF0E02D
:1011E000FC83EB830FEF090F050D28E030E02E1B89
:1011F0003F0B87E0521613060CF4802F27E030E0F7
:10120000281B31094FEF50E002C0559547952A95AC
:10121000E2F701C0440F9A95EAF74B87081B68E094
:1012200070E0601B71097E836D838FEF90E00D800D
:1012300002C0959587950A94E2F78E87E42CE69490
:10124000E694E694EC9C700111248F89988D8E0DA4
:101250009F1D9D878C87AF81B885EA0EFB1EB12C40
:10126000A12CA11608F04AC0F70161917F01FB850E
:101270006F23262F30E00B8002C0359527950A9406
:10128000E2F7622F0023A1F0EC85FD85EA0DFB1D3E
:101290004F815885E40FF51F80815E858523682F77
:1012A00070E00D8002C0660F771F0A94E2F7622B90
:1012B00070E0098002C0660F771F0A94E2F7D4013C
:1012C00016962D913C911797229EC001239E900D5A
:1012D000329E900D1124860D971D8A0D9B1D9196AF
:1012E0002D913C914989820F931FEF85F8890995CB
:1012F000FFEFAF1ABF0AB5CF87E059CFD50C450C29
:10130000A98DBA8D94968D919C91959768167906C2
:1013100024F495967C926E929497E98DFA8D86A12D
:1013200097A129853A858217930714F437A326A33A
:101330003FEF231A330A498D5A8D4C5F5F4F5A8F06
:10134000498F1DCF6A960FB6F894DEBF0FBECDBF92
:10135000DF91CF911F910F91FF90EF90DF90CF9091
:10136000BF90AF909F908F907F906F905F904F90C5
:101370003F902F900895EF920F930150040F21504A
:10138000260FDC01ED91FC910680F781E02D099597
:101390000F91EF9008952F923F924F925F926F922C
:1013A0007F928F929F92AF92BF92CF92DF92EF92F5
:1013B000FF920F931F93CF93DF93CDB7DEB729979B
:1013C0000FB6F894DEBF0FBECDBF4C01F42EFC016A
:1013D000868197816817190608F0A6C0041710F4D3
:1013E000F02E042FF401808591850817190610F05E
:1013F0000FEF080FAF2CA694A694A694802F869585
:1014000086958695261718F4962F622F292FF401BA
:10141000EA59FF4F0190F081E02DEE0FFF1FE056DB
:10142000FC4F408151815A834983B12C6501CC0C1A
:10143000DD1CCC0CDD1CC80CD91CE82FF0E0FC83B3
:10144000EB83402F50E05E834D8307700F83862F20
:1014500090E099878887022F10E0EB81FC81EA15E4
:10146000FB050CF461C0FF2DF7703F2E8F2D90E02F
:1014700008968F1B91092D813E814F8028173907CF
:1014800014F087E0482E87E090E0841991094FEF2F
:1014900050E002C0559547958A95E2F7CA01032CA2
:1014A00001C0880F0A94EAF7282E582EE11001C0D7
:1014B000512C6884798406151705CCF0F401268137
:1014C0003781A29EC001A39E900DB29E900D112463
:1014D000860D971D21A132A1422D652D820F931FEC
:1014E000E981FA810995FFEF6F1A7F0AE4CF81E065
:1014F0008319F80EF40CF60184A195A1288539858D
:101500002817390714F435A324A3F60186A197A15F
:101510008017910714F417A306A3FFEFAF1ABF0AB1
:1015200024E0C20ED11C99CF29960FB6F894DEBFE5
:101530000FBECDBFDF91CF911F910F91FF90EF9024
:10154000DF90CF90BF90AF909F908F907F906F90E3
:101550005F904F903F902F9008954F925F926F92BF
:101560007F928F929F92AF92BF92CF92DF92EF9233
:10157000FF920F931F93CF93DF935C01FC01808553
:1015800091854817190608F063C0261718F4862FAE
:10159000622F282FF501868197812817190610F0F0
:1015A0002FEF280FE42FE770F0E0E45FFE4F50804C
:1015B000F501EA59FF4F0190F081E02DEE0FFF1F7A
:1015C000E056FC4F60807180C62ED12C4695469522
:1015D0004695C42FD0E0C89FA001C99F500DD89F49
:1015E000500D11244C0D5D1DF50181A192A1840FB8
:1015F000951F452CE11001C0412C46017C01EC18DF
:10160000FD08022F10E0C701880D991D0815190566
:1016100044F0452D642DF3010995FFEF8F1A9F0AC1
:10162000F2CFCC0FDD1FCC0FDD1FF501EC0FFD1F3E
:1016300084A195A1C816D90614F4D5A2C4A2CA0DD6
:10164000DB1D8EA19FA18017910714F41FA30EA389
:10165000DF91CF911F910F91FF90EF90DF90CF908E
:10166000BF90AF909F908F907F906F905F904F90C2
:101670000895CF92DF92EF92FF920F931F93CF9333
:10168000DF938C01E62EF12CFC01A681B781EA16CE
:10169000FB0608F049C0808591854817190608F0B7
:1016A00043C0E42FE770F0E0E45FFE4F3081F801C3
:1016B000EA59FF4F0190F081E02DEE0FFF1FE05639
:1016C000FC4FC080D1802111232F842F86958695D1
:1016D0008695C82FD0E0CA9FC001CB9F900DDA9F9E
:1016E000900D11248E0D9F1DF801A1A1B2A1432FD1
:1016F000622F8A0F9B1FF6010995CC0FDD1FCC0FBF
:10170000DD1FF801EC0FFD1F84A195A1E816F90675
:1017100014F4F5A2E4A2C00FD11F8EA19FA18E15D3
:101720009F0514F4FFA2EEA2DF91CF911F910F91BC
:10173000FF90EF90DF90CF900895FC018081942F6F
:101740009095982368274623492B40830895FC01F0
:10175000208191E0211190E0922749234227408384
:101760000895FC01808191E0611190E09827492360
:10177000482740830895FC01942F909580819823F9
:101780006423692B608308950F93DC011696ED9115
:10179000FC9117976E171F0658F41896ED91FC915F
:1017A00019974E171F0620F45C96ED91FC91099550
:1017B0000F9108957F928F929F92AF92BF92CF9296
:1017C000DF92EF92FF920F931F93CF93DF936C0101
:1017D000F62EB42EA02E11E0121B922E9194990C8D
:1017E000C22F022F040F421BDC015096ED91FC9199
:1017F000EA2C262F0995D0E0DC170CF03FC017FD2E
:1018000004C0C15093949394190DDF5F8D2F880FFE
:101810008F5F180F6F2D6D0FD6015096ED91FC91D3
:10182000EA2C7C2E7B0C072D262F8B2C8C1A482D16
:10183000C60109956F2D6D1BD6015096ED91FC9157
:10184000262F482DC60109957B2C7D0E8B2C8D1AD9
:10185000D6015096ED91FC91072D6C2F6F0D262F20
:10186000482DC6010995D6015096ED91FC916F2D3A
:101870006C1B262F482DC6010995BECFDF91CF9155
:101880001F910F91FF90EF90DF90CF90BF90AF909E
:101890009F908F907F9008958F929F92AF92BF926A
:1018A000CF92DF92EF92FF920F931F93CF93DF932C
:1018B000EC01B62EC42E81E0A82EA21A922E91948D
:1018C000990C122F422F4C0DEA85FB85202FCE015B
:1018D00009954C2D411BEA85FB85202F6B2DCE01F0
:1018E0000995612F6B0DEA85FB85202F4C2DCE01CC
:1018F00009956B2D611BEA85FB85202F4C2DCE01B0
:101900000995F12CF1160CF054C0A7FC04C011503D
:1019100093949394A90CF3948F2D880F8F5FA80E46
:101920008B2C8F0CEA85FB85202FE12EEC0C4E2DA5
:10193000682DCE010995DB2CDF18EA85FB85202F69
:101940004E2D6D2DCE010995EA85FB85202FEC2CBF
:10195000E11A4E2D682DCE010995EA85FB85202FD1
:101960004E2D6D2DCE010995EC2CEF0CEA85FB85F3
:10197000202F4E2DD12EDB0C6D2DCE010995EA8541
:10198000FB85202F4E2DEB2CE11A6E2DCE010995F3
:101990008C2C8F18EA85FB85202F482D6D2DCE01CC
:1019A0000995EA85FB85202F482D6E2DCE010995DE
:1019B000A9CFDF91CF911F910F91FF90EF90DF9012
:1019C000CF90BF90AF909F908F900895BF92CF928D
:1019D000DF92EF92FF920F931F93CF93DF936C01EF
:1019E000F62ED42F2150122F160F0150C02FC40FE6
:1019F000DC011E96ED91FC91042F212F0995D60153
:101A00001E96ED91FC910C2F212F4C2F6F2DC601AE
:101A100009952C2F2D1B330B233031059CF0DF5FF4
:101A2000D6015096ED91FC912F2D4D2F6F2DC601B3
:101A30000995D6015096ED91FC91212F4D2F612FE4
:101A4000C6010995DF91CF911F910F91FF90EF9003
:101A5000DF90CF90BF9008958F929F92AF92BF92E8
:101A6000CF92DF92EF92FF920F931F93CF93DF936A
:101A70006C01B42EF22E261B330BC90137FF03C0B5
:101A8000919581959109182F802F8B19990BEC0155
:101A900097FF03C0D195C195D1099C2E111116C095
:101AA000C11145C0D6011A96ED91FC912E2D4B2DFA
:101AB000C601DF91CF911F910F91FF90EF90DF90C2
:101AC000CF90BF90AF909F908F900994A12E1C173C
:101AD00040F0AC2EC12F802F0F2DF82E8B2DB62E5F
:101AE000682F0B1530F08F2DF62E682F802F0B2DC1
:101AF000B82EDC2FD69588248394F61610F088240F
:101B00008A94B016B0F0D6011A96ED91FC912E2D64
:101B1000402F6F2D191510F04F2D602FC60109951C
:101B2000DA19D7FF02C0F80CDC0F0F5FEACFA12C47
:101B3000D8CFDF91CF911F910F91FF90EF90DF9061
:101B4000CF90BF90AF909F908F900895FC01268D0D
:101B5000378D232B19F52091580221111AC025E049
:101B60002093520228E020935302109254022FEF48
:101B7000209355022BEF34E0309357022093560206
:101B80002AE031E0309351022093500221E020936B
:101B9000580220E532E0FC01378F268F08958CEB48
:101BA00091E0089508950895089520912D02260F3B
:101BB0003327331F21323105ECF42091D902FC0187
:101BC00090E080E0243069F082E00895A0912D0239
:101BD0002191AC01435F5D4FA40FB52FB11D2C9334
:101BE0000196861798F380912D02680F60932D025D
:101BF00080E0089581E008951092D90281E08093F9
:101C0000D8021092B30261E082E10E94120461E006
:101C100083E10E941204E9EBF0E080818E7F8083F3
:101C200080818D7F808388E48093B80085E48093F1
:101C3000BC000895CF93DF9391E090930C0288232A
:101C4000B9F0C091B800D091BA008091BC008A7BF5
:101C50008093BC0060E082E10E94120460E083E1B6
:101C60000E9412040E94FC0DD093BA00C093B800E9
:101C7000DF91CF9108958F929F92AF92BF92CF92B2
:101C8000DF92EF92FF920F931F93CF93DF93D09148
:101C90000203D13208F0D7C0182FC09101030E946F
:101CA000C9046B017C018091D90281116BC082E073
:101CB0008093D9021093D8028FEF8093D7021092AD
:101CC000D602D093D502A1EEB2E0E5EBF2E080E0DF
:101CD000D81391C01092B4028091B402CC0FC82BDB
:101CE000C093B4028091B302813009F088C0109291
:101CF000B3020E94C9046B017C018091B4028093FD
:101D0000BB008091DB029091DC02A091DD02B091DA
:101D1000DE02892B8A2B8B2BA1F00E94C904009133
:101D2000DB021091DC022091DD023091DE026C19A1
:101D30007D098E099F09061717072807390708F438
:101D400042C08091BC0083FDD8CF85EC8093BC005D
:101D50000E94C9046B017C018091D902823009F490
:101D600050C08091D7028F3F09F46FC08091D70295
:101D7000803209F46CC08091D702803309F469C0C5
:101D800084E026C08091DB029091DC02A091DD020C
:101D9000B091DE02892B8A2B8B2B09F484CF0E9411
:101DA000C9048090DB029090DC02A090DD02B0902C
:101DB000DE026C197D098E099F0986169706A80612
:101DC000B90608F070CF8091DA020E941A0E85E001
:101DD0001092E002109202031092DF02DF91CF9185
:101DE0001F910F91FF90EF90DF90CF90BF90AF9039
:101DF0009F908F9008959D9191938F5F69CF85EE0D
:101E0000A5CF8091DB029091DC02A091DD02B09120
:101E1000DE02892B8A2B8B2B09F49ECF0E94C904EA
:101E20000091DB021091DC022091DD023091DE0294
:101E30006C197D098E099F090617170728073907AE
:101E400008F08ACFC0CF81E0C3CF80E0C1CF82E06D
:101E5000BFCF83E0BDCF7F928F929F92AF92BF9210
:101E6000CF92DF92EF92FF920F931F93CF93DF9366
:101E70005C01962E842E7901C02FD12F7724739484
:101E80002097A9F1F501808191817092DF029092F3
:101E900001031092E00210920203DC01ED91FC912B
:101EA0000190F081E02D682D09956E01C032D105B9
:101EB00018F08FE1C82ED12CF50180819181DC01D1
:101EC000ED91FC910280F381E02DA601B701099507
:101ED000CC19DD09E80EF91E81E0209709F080E0B9
:101EE0000E943B0E882361F28FEF9FEF01C0C80173
:101EF000DF91CF911F910F91FF90EF90DF90CF90E6
:101F0000BF90AF909F908F907F9008950F931F93F5
:101F1000CF93DF9300D0CDB7DEB769834A83FC014E
:101F2000E659FF4F88599F4F02E010E09E012F5F56
:101F30003F4F40E06081FC01808191810E942B0F26
:101F40000F900F90DF91CF911F910F9108951F93E4
:101F5000CF93DF93162FFC01E859FF4FC081D18149
:101F600086599F4FDC012C918881998131E0309313
:101F7000DF02209301031092E00210920203DC01C1
:101F8000ED91FC910190F081E02D60E00995888150
:101F90009981DC01ED91FC910190F081E02D612FA0
:101FA000099581E0DF91CF911F910C943B0E2F9208
:101FB0003F924F925F926F927F928F929F92AF92D9
:101FC000BF92CF92DF92EF92FF920F931F93CF9326
:101FD000DF9300D000D01F92CDB7DEB77C0184968E
:101FE0009D838C83D12CC12CF701EC59FF4F5F01ED
:101FF0008A5B9F4F9B838A83170198E6290E311CC9
:1020000090E8492E512C66246A94762CF70183A11E
:102010008C151D0409F00CF48DC0EC81FD818080CD
:10202000918002811381F5019081992381F0EC81E7
:10203000FD8120A131A1281539050CF44901EC815D
:10204000FD8122A133A1021713070CF48901F0E8E6
:102050008F16910409F465C089826C2DC816F0F4BE
:10206000F7018681978188161906C0F4606BC70155
:102070000E94A70FB40184E0759567958A95E1F7F2
:102080006F7077276061F7018281680FC7010E9436
:10209000A70F69816F70C7010E94A70F0F5FF981B9
:1020A0000F1B10E0F70186819781C89E9001C99EA1
:1020B000300DD89E300D1124820E931E21A132A125
:1020C000280D391D40E4EA81FB816081F1018081A6
:1020D00091810E942B0FF5018081882331F0EC81E2
:1020E000FD8151A240A273A262A2EC81FD81808198
:1020F000918120A131A18217930714F491A380A3A9
:10210000EC81FD818281938122A133A128173907B7
:1021100014F493A382A3EC81FD81518240827382E7
:102120006282FFEFCF1ADF0A8C819D8104969D8326
:102130008C836CCFF50110820F900F900F900F9051
:102140000F90DF91CF911F910F91FF90EF90DF9053
:10215000CF90BF90AF909F908F907F906F905F9047
:102160004F903F902F9008950895E09165028091DF
:102170006402E81730F4F0E0E451FE4F808190E013
:1021800008958FEF9FEF089590916502809164020A
:102190002FEF3FEF981748F4E92FF0E0E451FE4F9E
:1021A000208130E09F5F90936502C901089580917E
:1021B000640290916502891B990B0895CF92DF927A
:1021C000EF92FF920F931F93CF93DF937C01CB018C
:1021D0008A012091DF02222389F0EB016B01C40EFA
:1021E000D51ECC15DD0569F06991D701ED91FC9103
:1021F0000190F081E02DC7010995F3CF642F0E9473
:10220000D50DC801DF91CF911F910F91FF90EF90F5
:10221000DF90CF900895CF93DF931F92CDB7DEB7B5
:1022200069832091DF022223F9F0209102032032FA
:1022300058F021E030E0FC013383228390E080E01D
:102240000F90DF91CF9108958091E002E82FF0E0A8
:10225000EF51FD4F998190838F5F8093E0028093CF
:10226000020381E090E0ECCF61E0CE0101960E9494
:10227000D50DF7CF6F927F928F929F92AF92BF92C0
:10228000CF92DF92EF92FF920F931F93CF93DF9342
:1022900000D0CDB7DEB77C01162F3C0184E0680E7C
:1022A000711CF70182A193A1892B19F4C3010E942B
:1022B000A60DF701A2A0B3A090E080E0A114B104A4
:1022C00009F451C06701F9E0CF1AFEEFDF0AF60109
:1022D00040811A3099F11D30D1F11A821982198387
:1022E0004701FAE08F1AFEEF9F0AF701E850FE4F10
:1022F00000819E012F5F3F4FF4016081C3010E9466
:10230000C40BF40180818F5FF5019281890FF40184
:102310008083F5019281F70122853385291B3109DC
:1023200082171306A1F098F0F4011082F601808163
:10233000F5019381890FF601808309C0F701EA5006
:10234000FE4F1082F5018381480FF6014083F601AC
:102350002081F701848595852817190610F0F6016C
:10236000108281E090E00F900F90DF91CF911F914C
:102370000F91FF90EF90DF90CF90BF90AF909F9024
:102380008F907F906F900895089590E080E0089579
:10239000CF93DF93FC0101900020E9F73197AF0163
:1023A000481B590BBC0183E093E00E942C07EC0111
:1023B00042E050E062E671E083E093E00E942C0787
:1023C0008C0F9D1FDF91CF9108952F923F924F92D6
:1023D0005F926F927F928F929F92AF92BF92CF92B5
:1023E000DF92EF92FF920F931F93CF93DF93CDB7BE
:1023F000DEB72F970FB6F894DEBF0FBECDBF7C01BE
:10240000162F442E69010987DC015E96ED91FC913F
:10241000309709F4C8C02115310509F4C4C0D901A9
:102420000D900020E9F711971D01221A330A09F4D3
:10243000BAC0B381B695B695B695BF87B11102C043
:1024400021E02F87552453943F85313009F0512CDA
:1024500026813781628170E0C9010E94CE237B878B
:102460006A878F85829FA001839F500D11245C8312
:102470004B83A081B1812D913C91CF01F901099548
:102480009E838D834601252D30E03D872C87D40126
:102490008D914D01D7015E96ED91FC91082E000CB7
:1024A000990B2481821B910925812817190609F0AF
:1024B00008F46BC06A857B850E94CE234281489FC9
:1024C0009001499F300D1124EB81FC816E9FC0016A
:1024D0006F9F900D7E9F900D1124A901480F591FE9
:1024E00058874F83042DB12CA12C712E272D211B31
:1024F000D7015E96ED91FC913281822F90E04C8560
:102500005D85430F511D84179507BCF5BF85B1301C
:1025100011F4321781F126813781A29EF001A39E2A
:10252000F00DB29EF00D11242F813885E20FF31FBC
:10253000E80FF91F4D815E81E40FF51F54915E870E
:102540008CE091E09A838983612CA981BA818D9175
:10255000BA83A983BE858B2351F0D7011A96ED91DA
:10256000FC912985462D400F672DC701099563947D
:10257000B8E06B12EACF7394B9CFEFEFAE1ABE0A90
:10258000085FFF85AF1608F4B0CFD7015E96ED91D6
:10259000FC918281850D180FC4018C199D0982154B
:1025A00093050CF474CF2F960FB6F894DEBF0FBED0
:1025B000CDBFDF91CF911F910F91FF90EF90DF90F2
:1025C000CF90BF90AF909F908F907F906F905F90D3
:1025D0004F903F902F9008958F929F92AF92BF920D
:1025E000DF92EF92FF920F931F93CF93DF93FC0143
:1025F00021A132A1232B09F460C0EC01D12C90E879
:10260000892E912CAA24AA94BA2C8BA1D81608F052
:1026100050C06D2D70E08B01000F111F000F111FB6
:102620007E01E00EF11EF701EC5BFF4F808191818E
:10263000F70124A135A18217930714F495A384A36D
:10264000FE01E00FF11FDF01AA5BBF4F8D919C914E
:1026500026A137A12817390714F497A386A3F701F9
:1026600024A135A12038310511F10C0F1D1FF801EF
:1026700046A157A1421B530B4F5F5F4FEE81FF8175
:102680006E9FC0016F9F900D7E9F900D1124820F51
:10269000931F29A13AA170E060E0820F931F0E946E
:1026A000E125F70195A284A2F801B7A2A6A2D394CE
:1026B000ACCFCC59DF4F81E08883DF91CF911F9160
:1026C0000F91FF90EF90DF90BF90AF909F908F9011
:1026D000089585ED8093BC008091DB029091DC022F
:1026E000A091DD02B091DE020796A11DB11D23E08D
:1026F000B695A795979587952A95D1F72091BC0017
:1027000024FD03C01092D90208954091DB0250913C
:10271000DC026091DD027091DE02452B462B472BD7
:1027200069F30097A105B10541F02AE22A95F1F776
:1027300000C00197A109B109E1CF8091DA020C94A0
:102740001A0E2F923F924F925F926F927F928F92CA
:102750009F92AF92BF92CF92DF92EF92FF920F9330
:102760001F93CF93DF93CDB7DEB7C058D1090FB613
:10277000F894DEBF0FBECDBF9C0120593F4F29F01A
:10278000DC0192963C932E9391974C01BBE68B0E05
:10279000911C22E1F40120835C01FCE6AF0EB11C28
:1027A00021EFD5012C938C0103591F4F20E4F80130
:1027B00020832C01FFE64F0E511CD2013C903110BA
:1027C00069C03C01B8E66B0E711CF30120813181B8
:1027D000232B09F45FC06C01FAE6CF0ED11CD601A1
:1027E0002C91222309F456C0FC0141A152A1452B92
:1027F00009F450C07C01222423942092DF0220930C
:1028000001031092E0021092020381E00E943B0E4D
:10281000811140C0D7015E968D919C91892B11F555
:1028200080915802811119C085E08093520288E09E
:1028300080935302109254028FEF809355028BEFD6
:1028400094E090935702809356028AE091E090932F
:102850005102809350022092580280E592E0F701E5
:10286000978F868FD701ED91FC91119784E11A968D
:1028700001900D928A95E1F7F70182859385845D39
:102880009D4019F5609116067091170685E691E056
:102890000E94E825832DC058DF4F0FB6F894DEBFA5
:1028A0000FBECDBFDF91CF911F910F91FF90EF90A1
:1028B000DF90CF90BF90AF909F908F907F906F9060
:1028C0005F904F903F902F900895D7011E968D9165
:1028D0009C91835D9D4029F4F701848595859787B8
:1028E0008687D70150968D919C91835D9D4029F4F8
:1028F000F70184859585918B808BD70154968D91B6
:102900009C91835D9D4029F4F70182899389958B81
:10291000848BD70158968D919C91825D9D4029F4BE
:10292000F70186899789918F808F6EEAC7010E948F
:10293000A70F40E865EDC7010E94860FD7011896E2
:102940004C91415068EAC7010E94860F40E063ED58
:10295000C7010E94860F60E4C7010E94A70F44E1EF
:102960006DE8C7010E94860F42E060E2C7010E9445
:10297000860F66EAC7010E94A70F64EAC7010E949A
:10298000A70F61EAC7010E94A70F68ECC7010E9468
:10299000A70FF40140816AEDC7010E94860FF7017D
:1029A000E259FF4F408161E8C7010E94860FD501BF
:1029B0004C9169EDC7010E94860FF80140816BEDD3
:1029C000C7010E94860F6EE2C7010E94A70F6FEA3F
:1029D000C7010E94A70FD70118962D913C91199716
:1029E00083E0369527958A95E1F793962C939397F4
:1029F00091968D919C919297009761F016966D91AA
:102A00007C91269FA001279F500D112470E060E06B
:102A10000E94E125F70123A130E0B49690E080E028
:102A200060E870E04FEF5FEF821793075CF471830B
:102A300060835383428371A360A353A342A301968F
:102A40003496F2CFF701EC59FF4F1082CE01019678
:102A50005C0180E8D5011D928A95E9F7912CF70178
:102A600083A19816A0F486819781892B81F0692D26
:102A7000606BC7010E94A70FD70112966C91605F2F
:102A8000C7010E94A70F60E0C7010E94A70F00E8DE
:102A900010E0950140E4F6016081D3018D919C9195
:102AA0000E942B0F9394B8E09B12D9CF81E0F201E2
:102AB000808333243394EECE1F920F920FB60F9281
:102AC00011242F933F938F939F93AF93BF93809144
:102AD0009A0290919B02A0919C02B0919D0230912C
:102AE000990223E0230F2D3758F50196A11DB11D42
:102AF0002093990280939A0290939B02A0939C0248
:102B0000B0939D0280919E0290919F02A091A0029D
:102B1000B091A1020196A11DB11D80939E029093D8
:102B20009F02A093A002B093A102BF91AF919F9189
:102B30008F913F912F910F900FBE0F901F9018957E
:102B400026E8230F0296A11DB11DD2CF1F920F922E
:102B50000FB60F9211242F933F934F935F936F9370
:102B60007F938F939F93AF93BF93EF93FF93809146
:102B7000A7029091A802A091A902B091AA02892B64
:102B80008A2B8B2BD1F19091A202E091A302F091BC
:102B9000A4028081892780838091A7029091A80256
:102BA000A091A902B091AA02181619061A061B06CE
:102BB0009CF48091A7029091A802A091A902B091E3
:102BC000AA020197A109B1098093A7029093A802D4
:102BD000A093A902B093AA02FF91EF91BF91AF9188
:102BE0009F918F917F916F915F914F913F912F9125
:102BF0000F900FBE0F901F901895809105010E94B5
:102C00002305EACF1F920F920FB60F9211242F9334
:102C10003F934F935F936F937F938F939F93AF9364
:102C2000BF93EF93FF9383E093E00E94AA07FF9185
:102C3000EF91BF91AF919F918F917F916F915F9134
:102C40004F913F912F910F900FBE0F901F901895AD
:102C50001F920F920FB60F9211242F938F939F9371
:102C6000EF93FF93E0911303F09114038081E091BF
:102C70001903F0911A0382FD1BC0908180911C03FF
:102C80008F5F8F7320911D03821741F0E0911C0329
:102C9000F0E0ED5FFC4F958F80931C03FF91EF9167
:102CA0009F918F912F910F900FBE0F901F901895AD
:102CB0008081F4CF1F920F920FB60F9211242F93A1
:102CC0003F934F935F936F937F938F939F93AF93B4
:102CD000BF93EF93FF938091B900887F803609F40A
:102CE0004AC0F0F5883209F4A7C018F5803109F41C
:102CF0009BC0B8F4882309F4F9C0883009F494C063
:102D0000FF91EF91BF91AF919F918F917F916F91C3
:102D10005F914F913F912F910F900FBE0F901F9099
:102D20001895883109F488C0803251F78093D70212
:102D300014C0803409F49DC040F48033B9F3883363
:102D4000F9F68093D70285ECB0C0803509F485C0D0
:102D5000883509F496C0883499F60E946913D0CF5B
:102D6000883909F48CC038F5883729F050F4883652
:102D700011F0803729F683E08093D90210924F0238
:102D800057C0883809F47BC0803919F0803809F0C1
:102D9000B7CF80914F02803208F071C0E0914F02AE
:102DA00081E08E0F80934F028091BB00F0E0E15DE7
:102DB000FD4F80833DC0803B39F0E0F4803A09F458
:102DC00079C0883A09F09CCF84E08093D9021092B0
:102DD0002E0210922D02E0916202F0916302099599
:102DE00080912D0281110FC081E080932D021092FD
:102DF0000D0209C0803C09F4A6CF883C09F4A3CF9A
:102E0000883B09F07DCFE0912E0281E08E0F809308
:102E10002E02F0E0E35FFD4F80818093BB00909134
:102E20002E0280912D0229C08091B4028093BB00B4
:102E300085EC8093BC0064CF9091D6028091D5023E
:102E4000981758F5E091D60281E08E0F8093D60254
:102E5000F0E0EB54FD4F8081E9CFE091D60281E0B4
:102E60008E0F8093D6028091BB00F0E0EB54FD4FB3
:102E700080839091D6028091D5029817C8F285E898
:102E8000D8CFE091D60281E08E0F8093D602809158
:102E9000BB00F0E0EB54FD4F80838091D80281119C
:102EA0005CCF81E08093B30284EA8093BC001092EF
:102EB000D90226CF85EC8093BC001092D902809174
:102EC0004F02803230F4E0914F02F0E0E15DFD4FBF
:102ED000108260914F0270E0E0916002F091610217
:102EE0008FE292E0099510924F020ACF1092D7021A
:102EF00034CF0F931F93CF93DF93E3E0F3E013827C
:102F0000128288EE93E0A0E0B0E084839583A683EC
:102F1000B78328E131E03183208325EC30E0358729
:102F2000248724EC30E03787268720EC30E0318B93
:102F3000208B21EC30E0338B228B22EC30E0358B80
:102F4000248B26EC30E0378B268B118E128E138E5D
:102F5000148EE0EAF3E02BEB3BE03183208321EB9E
:102F60003BE03383228327EA3BE0358324832DE94A
:102F70003BE03783268324EB33E0318720872BEB3C
:102F800033E033872287ECEAF3E0138212828483F2
:102F90009583A683B7838AE291E091838083C3EC13
:102FA000D5E01C821D821E821F82188619861A8611
:102FB0001B861C861D861E861F861EA61FA618AA97
:102FC00081E089AB1AAA8BEB95E09BA78AA78FEBD0
:102FD00095E099A788A787EB95E09DA78CA71BAEE6
:102FE0001CAE1DAE1EAE80E090E0AFE7B3E4809370
:102FF000020690930306A0930406B093050680EAA8
:1030000096E8A1E0B0E08BAB9CABADABBEAB188259
:1030100019821A821B821C8E1D8E1E8E1F8E18A274
:1030200019A21AA21BA21CA21DA21EA21FA20E94CC
:10303000C9040BA91CA92DA93EA9601B710B820B09
:10304000930B6FAB78AF89AF9AAFE1EBF5E0C2E0DD
:10305000D0E0D183C0838FEF9FEF9383828315826B
:10306000148261E082E00E944004E8EBF3E0138206
:103070001282D783C6831186108680E490E09387FE
:10308000828780E390E0958784878CE391E0958345
:1030900084838DE384A31092AD051092AC058AE57C
:1030A00091E091838083DF91CF911F910F910895DB
:1030B000CF93DF93CDB7DEB7A6970FB6F894DEBFF8
:1030C0000FBECDBF789484B5826084BD84B5816025
:1030D00084BD85B5826085BD85B5816085BD8091E3
:1030E0006E00816080936E0010928100809181005B
:1030F0008260809381008091810081608093810053
:10310000809180008160809380008091B100846014
:103110008093B1008091B00081608093B000809175
:103120007A00846080937A0080917A008260809334
:103130007A0080917A00816080937A0080917A0091
:10314000806880937A001092C10064EF71E080E0A3
:1031500090E00E94EE04E0911303F091140382E0EA
:103160008083E0910F03F09110031082E09111032E
:10317000F09112038FEC808310921B03E0911703F0
:10318000F091180386E08083E0911503F091160317
:10319000808180618083E0911503F0911603808126
:1031A00088608083E0911503F09116038081806828
:1031B0008083E0911503F091160380818F7D8083D9
:1031C00064EF71E080E090E00E94EE0462E083E052
:1031D0000E94400462E086E00E94400462E085E0D4
:1031E0000E94400461E08AE00E94400461E088E0BF
:1031F0000E94400461E089E00E94400411E02CEA52
:10320000C22E23E0D22E31E2A32E35E0B32E42E2CD
:10321000842E45E0942E5CEAE52E55E0F52E809153
:10322000C2039091C303892B51F08091C403909104
:10323000C503892B21F01092AE051092AF051093B3
:10324000B0058091AC059091AD05892BB1F4D09279
:10325000AD05C092AC051092650210926402109206
:10326000E002109202030E94FC0DB0926302A09251
:10327000620290926102809260028091DC03F0927F
:103280002504E0922404809326048CEB93E00E94B2
:10329000A113882309F4B9C68091DA039091DB0366
:1032A000892B21F48CEB93E00E94A60DE091DA03C8
:1032B000F091DB03309719F083818093AF0501E033
:1032C00029ED31E040E060E08CEB93E00E94C40B1C
:1032D00029ED31E04AE060E08CEB93E00E94C40B02
:1032E00029ED31E044E160E08CEB93E00E94C40BF7
:1032F00029ED31E04EE160E08CEB93E00E94C40BDD
:1033000029ED31E048E260E08CEB93E00E94C40BD1
:103310008CEB93E00E94D70F64EF71E080E090E0C7
:103320000E94EE048CEB93E00E94EC128CEB93E095
:103330000E94D70F8091920290919302A0919402E3
:10334000B09195028093BF059093C005A093C105ED
:10335000B093C205C12CD12C88ECE82E82E4F82E63
:10336000C092C705D092C805E092C905F092CA057F
:1033700080E090E0A0E8BFE38093CB059093CC057C
:10338000A093CD05B093CE051092CF051092D00535
:103390001092D1051092D2056091F6057091F70553
:1033A0008091F8059091F9050E94782220E034E29E
:1033B00044E759E40E94AA249B01AC01C092DF05B6
:1033C000D092E005E092E105F092E2052093E3055A
:1033D0003093E4054093E5055093E60560E070E026
:1033E000CB010E94AA246093E7057093E8058093BF
:1033F000E9059093EA058091F10581115BC0E091A8
:10340000ED05F091EE059080A180B280C380892DFA
:103410009A2DAB2DBC2D8093C3059093C405A0932A
:10342000C505B093C605E091EB05F091EC058081F0
:103430009181A281B38180930E0690930F06A09391
:103440001006B0931106D090FE05E090FF05F090B5
:103450000006109101062D2D3E2D4F2D512F692D67
:103460007A2D8B2D9C2D0E94732287FD17C0D09042
:103470000206E0900306F0900406109105062D2D3B
:103480003E2D4F2D512F692D7A2D8B2D9C2D0E9475
:10349000522518161CF0D92C75011C2D8D2D9E2D32
:1034A000AF2DB12F8093C3059093C405A093C5059C
:1034B000B093C60581E08093F1058093F5051092E5
:1034C000FE051092FF05109200061092010680E0A2
:1034D00090E0AFE7B3E48093020690930306A093D5
:1034E0000406B0930506A090ED05B090EE05D50159
:1034F000CD90DD90ED90FC9020E030E0A901C70177
:10350000B6010E94732287FD11C120E030E04FE731
:1035100053E4C701B6010E945225181634F4C12C99
:10352000D12C9FE7E92E93E4F92EF501C082D182D8
:10353000E282F3829090C305A090C405B090C505C7
:10354000C090C605D090FE05E090FF05F090000603
:10355000109101062D2D3E2D4F2D512F692D7A2DC5
:103560008B2D9C2D0E94732287FD17C0D0900206E0
:10357000E0900306F0900406109105062D2D3E2DD7
:103580004F2D512F692D7A2D8B2D9C2D0E94522568
:1035900018161CF0D92C75011C2D8D2D9E2DAF2DCC
:1035A000B12F8093C3059093C405A093C505B09334
:1035B000C605CE0101961C0190E490937C00809199
:1035C0007A00806480937A0080917A0086FDFCCF37
:1035D0006091780070917900072E000C880B990B90
:1035E0000E947A2220E030EC4FE754E40E94AA24A3
:1035F00020E030E040EA50E40E94D9226B017C01D7
:1036000020E030E44CE156E40E94D9224B015C01F9
:10361000A701960160E070E080EA90E40E943D24FA
:103620009B01AC01C501B4010E94AA2420E030E551
:1036300043EC57E40E94AA240E945F2525E63FEC54
:103640004BE859E30E94D92222E63BEE4BE55BE3CF
:103650000E943E249B01AC0160E070E080E89FE3A3
:103660000E94AA2423E333E948E853E40E943D245E
:1036700026E636E646EE5FE30E94D92220E030E0FF
:1036800040E052E40E943E246B017C01C092920211
:10369000D0929302E0929402F0929502AC019B01C9
:1036A0000E94A725811114C020E030E040E252ECD6
:1036B000C701B6010E94732287FD0AC020E030E0F6
:1036C00048EC53E4C701B6010E945225181694F540
:1036D0008CEB93E00E94EC1201E02EEA31E049E12C
:1036E00060E08CEB93E00E94C40B8CEB93E00E94B3
:1036F000D70F90E080E00E94710460E088E00E94B3
:10370000120461E08AE00E94120464EF71E080E13B
:1037100093E00E944F0560E08AE00E94120464E694
:1037200070E080E090E00E94EE04EBCFC12CD12C41
:103730007601FBCE80919702909198020097B1F0AC
:10374000019709F479C062E370E080E090E00E94A4
:10375000EE0480E090E0892B09F42ECF0E949607BA
:10376000882309F429CF0E94000026CF10919602E9
:103770001093040120E030E040EF52E4C701B601AD
:103780000E94522561E018165CF020E030E040EF26
:1037900052E4C701B6010E94732287FF04C060E0B3
:1037A0008AE00E94120490E080E00E94710483E0AD
:1037B0000E94E90321E0009709F420E0209396029B
:1037C000892B09F0C0CF112309F4BDCF61E08AE055
:1037D0000E94120461E088E00E9412041092040129
:1037E00064E670E083E992E00E944F0564E670E0D1
:1037F0008AEB92E00E944F0564E670E080E193E07E
:103800000E944F052FB7F89480919A0290919B02E5
:10381000A0919C02B0919D022FBF80938E02909345
:103820008F02A0939002B0939102A1E0B0E0B09318
:103830009802A093970287CF80919602809304010B
:103840008CEB93E00E94EC1201E025EB31E040E0CC
:1038500060E08CEB93E00E94C40B60919202709147
:1038600093028091940290919502810122E043E0BD
:103870000E941E203F922F92EBEBF1E0FF93EF931B
:103880001F9288E28F93A6E6B2E0BF93AF930E94A7
:103890000F2601E026E632E04AE060E08CEB93E0A0
:1038A0000E94C40B86E692E00E94C81120EC31E031
:1038B00049E160E08CEB93E00E94C40B809103012E
:1038C0008F93809102018F9388EC91E09F938F9367
:1038D0001F92B8E2BF93E6E6F2E0FF93EF930E94F7
:1038E0000F2626E632E043E260E08CEB93E00E9494
:1038F000C40B8CEB93E00E94D70F60910201709192
:103900000301072E000C880B990B0E947A224B01B1
:103910005C01C0909202D0909302E0909402F090EB
:103920009502A70196010E943D242B013C010FB690
:10393000F894DEBF0FBECDBF20E030E040EA50E497
:103940000E94522518160CF0CAC08FEF90E00E941A
:10395000710486E00E94E90311E0009709F410E089
:10396000892BC9F4809101018823A9F0809102017B
:10397000909103018D32A1E09A070CF432C3ECE27E
:10398000F1E0F0930301E093020164E670E082E667
:1039900090E00E944F051093010185E00E94E90329
:1039A00011E0009709F410E0892BC1F48091000127
:1039B0008823A1F080910201909103018436910542
:1039C0000CF019C384E690E0909303018093020108
:1039D00064E670E082E690E00E944F0510930001DB
:1039E00083E00E94E90321E0009709F420E020939E
:1039F0009602892B61F580910401882341F160E0F2
:103A00008AE00E94120460E088E00E941204109292
:103A1000040164E670E080E193E00E944F0564E6F3
:103A200070E08AEB92E00E944F0564E670E083E963
:103A300092E00E944F058CEB93E00E94EC128CEB1D
:103A400093E00E94D70F10929802109297022FB71E
:103A5000F89480919A0290919B02A0919C02B0915F
:103A60009D022FBF40918E0250918F026091900273
:103A700070919102841B950BA60BB70B81159D4D80
:103A8000AD46B10508F45FCE60E08AE00E94120402
:103A900060E088E00E941204809196028093040105
:103AA00064E670E080E193E00E944F0564E670E018
:103AB0008AEB92E00E944F0564E670E083E992E0B1
:103AC0000E944F058CEB93E00E94EC128CEB93E08C
:103AD0000E94D70F109298021092970234CE20E0E5
:103AE00030E040EA50E4C301B2010E94732218168C
:103AF0000CF474C28092B7059092B805A092B905F3
:103B0000B092BA05C092BF05D092C005E092C1053F
:103B1000F092C2058091F105882309F420C20E9429
:103B2000C9046B8F7C8F8D8F9E8F8091F1058230C1
:103B3000F1F08091FA059091FB05A091FC05B09100
:103B4000FD054B8D5C8D6D8D7E8D481B590B6A0B71
:103B50007B0B8091F6059091F705A091F805B09147
:103B6000F905481759076A077B0708F4F8C1E0917F
:103B7000EB05F091EC0580819181A281B3818B8B63
:103B80009C8BAD8BBE8B20910E0630910F06409121
:103B9000100650911106BC01CD010E943D242B015D
:103BA0003C011091F205113021F477FA709477F806
:103BB0007094E091EF05F091F0052B893C894D89D7
:103BC0005E8960817181828193810E943D241130E0
:103BD00009F4D1C160930606709307068093080626
:103BE00090930906C0900606D0900706E09008065C
:103BF000F090090620910A0630910B0640910C06C0
:103C000050910D06C701B6010E943D246F8B788F3D
:103C1000898F9A8F8090DF059090E005A090E10554
:103C2000B090E205A5019401C701B6010E94D92216
:103C30006B877C878D879E871091F305112309F48C
:103C40009CC1A3019201C501B4010E94D9226F87D2
:103C5000788B898B9A8B113009F494C120E030E085
:103C600040E05FE36B857C858D859E850E94D9222F
:103C70006B877C878D879E8720E030E040E05FE3A4
:103C80006F85788989899A890E94D9226F87788B74
:103C9000898B9A8B2F85388949895A896B857C85D0
:103CA0008D859E850E943D246F8F78A389A39AA35A
:103CB0006093D3057093D4058093D5059093D60572
:103CC0008090E3059090E405A090E505B090E605AE
:103CD000A5019401C701B6010E94D9226BA37CA360
:103CE0008DA39EA36093D7057093D8058093D905C3
:103CF0009093DA056091E7057091E8058091E905F8
:103D00009091EA052091F405211141C12F89388D48
:103D1000498D5A8D0E94D9226093DB057093DC0592
:103D20008093DD059093DE051091F50511117BC0A0
:103D30002BA13CA14DA15EA1C701B6010E943E246A
:103D4000A50194010E94D9222F8D38A149A15AA121
:103D50000E943E24F62EE72ED82EC92E4090020651
:103D6000509003066090040670900506A30192012E
:103D70000E94522518165CF420E030E0A9016F89FA
:103D8000788D898D9A8D0E9452251816DCF020912D
:103D9000FE053091FF0540910006509101066F2D00
:103DA0007E2D8D2D9C2D0E94732287FF3CC020E02C
:103DB00030E0A9016F89788D898D9A8D0E947322D8
:103DC00087FF31C020E030E0A901C501B4010E94A5
:103DD0007322882341F153014201B7FAB094B7F836
:103DE000B094A50194016F2D7E2D8D2D9C2D0E94E8
:103DF000732287FD10C0A30192016F2D7E2D8D2DA2
:103E00009C2D0E94522553014201181624F08F2C3C
:103E10009E2CAD2CBC2C8092D7059092D805A092F8
:103E2000D905B092DA052091D7053091D805409197
:103E3000D9055091DA056091C3057091C405809150
:103E4000C5059091C6050E943E242F853889498971
:103E50005A890E943D246B017C018090FE05909060
:103E6000FF05A0900006B0900106123009F093C043
:103E7000C601D7018093C3059093C405A093C505DF
:103E8000B093C6052091C3053091C4054091C50586
:103E90005091C6056B857C858D859E850E943E244C
:103EA0002091DB053091DC054091DD055091DE0568
:103EB0000E943E24D62EE72EF82E192F9401A5013C
:103EC0000E94732287FD85C090900206A090030691
:103ED000B0900406C0900506292D3A2D4B2D5C2D7F
:103EE0006D2D7E2D8F2D912F0E94522518161CF4BA
:103EF000D92C75011C2DE091ED05F091EE058D2D6D
:103F00009E2DAF2DB12F80839183A283B3838091A7
:103F1000060690910706A0910806B09109068093C5
:103F20000A0690930B06A0930C06B0930D068B899E
:103F30009C89AD89BE8980930E0690930F06A0934D
:103F40001006B09311068B8D9C8DAD8DBE8D809328
:103F5000FA059093FB05A093FC05B093FD056091D5
:103F6000BB057091BC058091BD059091BE050E9476
:103F70001C25CB01ECCC90582DCE1F86188A198AAF
:103F80001A8A88CE1B861C861D861E8683CE905874
:103F9000A3019201BFCE9B01AC01B401C5010E94F7
:103FA000522518169CF0409002065090030660902F
:103FB0000406709005069601A701B201C3010E9494
:103FC000732287FF55CF6201730152CF64017501DF
:103FD0004FCFD82CE92CFA2C1B2D8DCF90E080E010
:103FE000B6CC0596909303018093020162E370E0E2
:103FF00080E193E0CECC059790930301809302017A
:1040000062E370E08BE092E0E7CC61E08AE00E943E
:1040100012048DEC91E00E94C81164EF71E080E021
:1040200090E00E94EE0460E08AE00E94120464EFD7
:1040300071E080E090E00E94EE04F1C8EF920F93EF
:104040001F93CF93DF93E80134E047FD34E1042E62
:10405000000C550B57FF03C0519541955109E32EB4
:10406000022F242FAE010E943C20CE01DF91CF9180
:104070001F910F91EF900895A9E0B0E0E2E4F0E223
:104080000C949D236A01F22EB02E102FFBE3AF2E6D
:10409000A01608F41BE31F5F012F27E0AE014F5F5E
:1040A0005F4F0E949B21BC018981982F99709130AC
:1040B00009F43FC09BE2E1FC04C09E2D9170E0FC3E
:1040C0003AC05E2D5071E82FE87083FF46C084E04F
:1040D000911101C083E0EF2DE81B8F1508F0E0E09F
:1040E000D6018E2F20E2552351F1992329F0D601D4
:1040F0009C93C60101966C0196012D5F3F4FE2FE35
:1041000024C08EE4D6018C9391E411969C93119770
:1041100012968C93D9018E2F90E281111BC0E20F71
:10412000F32FF11D10828EEF9FEF2996ECE00C9497
:10413000B9239DE2C6CF90E2C4CF2D938150811167
:10414000FCCFCE0ED11CE0E0D0CF8EE6D6018C9312
:1041500091E6DBCF9D938150E0CF482F447082FFE2
:104160003DC084E0911101C083E08F1510F4EF2D64
:10417000E81BD6018E2F20E2552309F1992329F05F
:10418000D6019C93C60101966C0196012D5F3F4FAD
:10419000E2FE1BC089E4D6018C938EE411968C93C9
:1041A000119786E412968C93D9018E2F90E2882382
:1041B00009F4B5CF9D938150FACF2D938150811191
:1041C000FCCFCE0ED11CE0E0D9CF89E6D6018C938E
:1041D0008EE611968C93119786E6E4CF9B0177FFCC
:1041E00002C030E020E0A1E0B0E0911102C0B0E0F8
:1041F000A0E0F9013196AE0FBF1F8B2C912CBB2094
:1042000009F461C05401EFEFAE1ABE0AAA0DBB1D3E
:10421000FA161B0619F014F04F2D4A1B511188C0D5
:10422000E3FC59C07601A42FB0E2A1114FC0C40E27
:10423000D11C992309F45BC040E0D6011196F60128
:1042400090836D01552309F448C0012F060F9A8110
:10425000582F507184FF03C0913309F40150101698
:104260000CF047C0093008F008E0EEE2FE2E5B01DA
:10427000A01AB10885019194819491082F3F3207CB
:1042800029F4D601FC92F60131966F01621773078B
:1042900094F1021713077CF5DB01A21BB30BAA24D0
:1042A000A394B12CAC0EBD1EAA0DBB1D11968C9112
:1042B00021503109D601119628153905F4F0F6017F
:1042C00080836D01DBCFB12CA12CA0CFF701B1937E
:1042D0007F01A150AACF9111B0CFD601942F50E306
:1042E00002C05D9391509111FCCFC40ED11C40E0EF
:1042F000ACCF01E0BACF80E3DBCF6217730731F4B4
:10430000963388F4953311F4552369F0F6018083D0
:10431000FD01842F90E2811108C0A40FB11D1C92F1
:1043200090E080E002CF81E3F1CF91938150F3CF11
:10433000911183CF8ACF283008F027E03327DA01A4
:10434000990F311D87FD916000966105710539F463
:1043500032602E5F3D9330E32A95E1F708959F3F49
:1043600030F080387105610509F03C5F3C5F3D939A
:10437000913008F08068911DDF93CF931F930F93C6
:10438000FF92EF92192F987F9695E92F9695969523
:10439000E90FFF27E45EFE4F99273327EE24FF2421
:1043A000A701E70105900894079428F4360FE71E4B
:1043B000F81E491F511D660F771F881F991F06940D
:1043C000A1F70590079428F4E70EF81E491F561F21
:1043D000C11D770F881F991F661F0694A1F70590CE
:1043E000079428F4F80E491F561FC71FD11D880FC8
:1043F000991F661F771F0694A1F70590079420F474
:10440000490F561FC71FD81F990F661F771F881F98
:104410000694A9F784911095177041F0D695C79529
:1044200057954795F794E7941A95C1F7E2ECF0E0B9
:1044300068941590159135916591959105907FE25D
:104440007395E118F10A430B560BC90BD009C0F75D
:10445000E10CF11E431F561FC91FD01D7EF470339F
:1044600011F48A95E6CFE894015030F0080F0AF471
:104470000027021708F4202F2395022F7A3328F003
:1044800079E37D932A95E9F710C07D932A9589F603
:10449000069497956795379517951794E118F10A43
:1044A000430B560BC90BD00998F023957E91739559
:1044B0007A3308F070E37C932013B8F77E91706133
:1044C0007D9330F0839571E37D9370E32A95E1F756
:1044D0001124EF90FF900F911F91CF91DF919927B9
:1044E00087FD909508950E94B52208F481E0089513
:1044F000E89409C097FB3EF490958095709561957E
:104500007F4F8F4F9F4F9923A9F0F92F96E9BB2733
:104510009395F695879577956795B795F111F8CFAF
:10452000FAF4BB0F11F460FF1BC06F5F7F4F8F4F1A
:104530009F4F16C0882311F096E911C0772321F010
:104540009EE8872F762F05C0662371F096E8862FA8
:1045500070E060E02AF09A95660F771F881FDAF7FF
:10456000880F9695879597F90895990F0008550F2C
:10457000AA0BE0E8FEEF16161706E807F907C0F0E9
:1045800012161306E407F50798F0621B730B840BF1
:10459000950B39F40A2661F0232B242B252B21F4CB
:1045A00008950A2609F4A140A6958FEF811D811D6B
:1045B00008950E94EC220C945D230E944F2338F052
:1045C0000E94562320F0952311F00C9446230C945E
:1045D0004C2311240C9491230E946E2370F3959F19
:1045E000C1F3950F50E0551F629FF001729FBB27EA
:1045F000F00DB11D639FAA27F00DB11DAA1F649F86
:104600006627B00DA11D661F829F2227B00DA11D38
:10461000621F739FB00DA11D621F839FA00D611DBE
:10462000221F749F3327A00D611D231F849F600DDF
:10463000211D822F762F6A2F11249F5750409AF008
:10464000F1F088234AF0EE0FFF1FBB1F661F771F94
:10465000881F91505040A9F79E3F510580F00C945F
:1046600046230C9491235F3FE4F3983ED4F3869560
:1046700077956795B795F795E7959F5FC1F7FE2BFF
:10468000880F911D9695879597F9089597F99F67DB
:1046900080E870E060E008959FEF80EC08950024CA
:1046A0000A941616170618060906089500240A9497
:1046B00012161306140605060895092E0394000C1D
:1046C00011F4882352F0BB0F40F4BF2B11F460FFAC
:1046D00004C06F5F7F4F8F4F9F4F089557FD9058D5
:1046E000440F551F59F05F3F71F04795880F97FBB6
:1046F000991F61F09F3F79F0879508951216130670
:104700001406551FF2CF4695F1DF08C0161617069E
:104710001806991FF1CF86957105610508940895D3
:10472000E894BB2766277727CB0197F908952F9246
:104730003F924F925F926F927F928F929F92AF9231
:10474000BF92CF92DF92EF92FF920F931F93CF937E
:10475000DF93CDB7DEB7CA1BDB0B0FB6F894DEBF15
:104760000FBECDBF09942A88398848885F846E843B
:104770007D848C849B84AA84B984C884DF80EE8085
:10478000FD800C811B81AA81B981CE0FD11D0FB68E
:10479000F894DEBF0FBECDBFED010895AA1BBB1B71
:1047A00051E107C0AA1FBB1FA617B70710F0A61B31
:1047B000B70B881F991F5A95A9F780959095BC0152
:1047C000CD01089597FB072E16F4009407D077FDCE
:1047D00009D00E94CE2307FC05D03EF49095819528
:1047E0009F4F0895709561957F4F0895052E97FB13
:1047F0001EF400940E940D2457FD07D00E9415243A
:1048000007FC03D04EF40C940D2450954095309540
:1048100021953F4F4F4F5F4F08959095809570952C
:1048200061957F4F8F4F9F4F0895A1E21A2EAA1BCB
:10483000BB1BFD010DC0AA1FBB1FEE1FFF1FA21750
:10484000B307E407F50720F0A21BB30BE40BF50B4D
:10485000661F771F881F991F1A9469F760957095D6
:10486000809590959B01AC01BD01CF010895EE0F9D
:10487000FF1F0590F491E02D09945058BB27AA27FB
:104880000E9455240C945D230E944F2338F00E940F
:10489000562320F039F49F3F19F426F40C944C234E
:1048A0000EF4E095E7FB0C944623E92F0E946E235B
:1048B00058F3BA17620773078407950720F079F455
:1048C000A6F50C9490230EF4E0950B2EBA2FA02D94
:1048D0000B01B90190010C01CA01A0011124FF27AD
:1048E000591B99F0593F50F4503E68F11A16F040A8
:1048F000A22F232F342F4427585FF3CF46953795A7
:104900002795A795F0405395C9F77EF41F16BA0B6B
:10491000620B730B840BBAF09150A1F0FF0FBB1F19
:10492000661F771F881FC2F70EC0BA0F621F731F62
:10493000841F48F4879577956795B795F7959E3FBF
:1049400008F0B0CF9395880F08F09927EE0F979550
:10495000879508950E94BE240C945D230E945623DF
:1049600058F00E944F2340F029F45F3F29F00C9447
:10497000462351110C9491230C944C230E946E23D6
:1049800068F39923B1F3552391F3951B550BBB277E
:10499000AA2762177307840738F09F5F5F4F220FC3
:1049A000331F441FAA1FA9F335D00E2E3AF0E0E8BA
:1049B00032D091505040E695001CCAF72BD0FE2F04
:1049C00029D0660F771F881FBB1F26173707480798
:1049D000AB07B0E809F0BB0B802DBF01FF27935850
:1049E0005F4F3AF09E3F510578F00C9446230C94AB
:1049F00091235F3FE4F3983ED4F3869577956795CE
:104A0000B795F7959F5FC9F7880F911D9695879584
:104A100097F90895E1E0660F771F881FBB1F6217A3
:104A200073078407BA0720F0621B730B840BBA0B61
:104A3000EE1F88F7E09508950E9423256894B11130
:104A40000C94912308950E94762388F09F5798F044
:104A5000B92F9927B751B0F0E1F0660F771F881F83
:104A6000991F1AF0BA95C9F714C0B13091F00E949D
:104A70009023B1E008950C949023672F782F882716
:104A8000B85F39F0B93FCCF3869577956795B395C4
:104A9000D9F73EF490958095709561957F4F8F4F33
:104AA0009F4F08950E94B52208F48FEF089516F0E5
:104AB0000C94AC250C944C2368940C9446230E94CF
:104AC0007623A8F39923C1F3AEF3DF93CF931F931B
:104AD0000F93FF92C92FDD2788232AF02197660FB5
:104AE000771F881FDAF720E030E040E85FEB9FE3B4
:104AF000883920F0803E38F021968F770E943E243E
:104B0000E8E6F0E004C00E943E24E5E9F0E00E94FF
:104B1000BA258B01BE01EC01FB2E6F57710975950B
:104B2000771F880B990B0E947A2228E132E741E334
:104B30005FE30E94EC22AF2D9801AE01FF900F9130
:104B40001F91CF91DF910E9455240C945D230E9408
:104B5000B522880B990B08959F3F31F0915020F4B6
:104B6000879577956795B795880F911D9695879549
:104B700097F90895DF93CF931F930F93FF92EF92CE
:104B8000DF927B018C01689406C0DA2EEF010E944F
:104B9000EC22FE01E894A59125913591459155911E
:104BA000A6F3EF010E945524FE019701A801DA94B3
:104BB00069F7DF90EF90FF900F911F91CF91DF91F8
:104BC0000895DC0101C06D9341505040E0F7089515
:104BD000EF92FF920F931F93CF93DF93FB012381FB
:104BE00021FF19C0EB018C01F12CE12CF80181911E
:104BF0008F01811106C0C701CDB7DEB7E6E00C9486
:104C0000BF23E885F985BE010995892B79F3EE2448
:104C1000EA94FE2CEBCFEE24EA94FE2CECCFAEE02F
:104C2000B0E0E5E1F6E20C94A5230D891E898F8999
:104C3000988D26E02C831A83098397FF02C080E0B9
:104C400090E801979E838D83AE01455E5F4F698D2D
:104C50007A8DCE0101960E943F264D815E8157FDDF
:104C60000AC02F813885421753070CF49A01020FAE
:104C7000131FF80110822E96E4E00C94C123ABE0E0
:104C8000B0E0E5E4F6E20C9497237C013B018A0155
:104C9000FC0117821682838181FFC8C1CE01019673
:104CA0005C01F7019381F30193FD859193FF81915D
:104CB0003F01882309F453C1853239F493FD85916E
:104CC00093FF81913F01853229F4B70190E00E9462
:104CD0002F28E7CF912C212C312CFFE1F31538F050
:104CE0008B3211F190F4803209F1833229F137FCD3
:104CF0003CC020ED280F2A3050F536FE20C08AE057
:104D0000989E200D1124922E06C08D3291F0803392
:104D100071F7689430F8F30193FD859193FF8191C9
:104D20003F018111DACF21C0689431F8689432F8DC
:104D3000F2CF689433F8EFCF689434F8ECCFEAE020
:104D40002E9E200D1124222E689435F8E4CF8E3249
:104D500029F436FC04C1689436F8DDCF8C3619F49A
:104D6000689437F8D8CF8836B1F2982F9F7D955444
:104D70009330E0F08336A1F18337C1F1833509F038
:104D800063C02801F2E04F0E511CF801C080D180B1
:104D9000692D70E036FC02C06FEF7FEFC6010E9404
:104DA00019284C01689437F882010AC00C5F1F4F24
:104DB000FFE3F98388248394912C6501E89437F804
:104DC00033FE2DC0522C8114910471F5552009F445
:104DD00068CFB70180E290E00E942F285A94F6CF66
:104DE000F801808189830E5F1F4FE4CF2801F2E034
:104DF0004F0E511CF801C080D180692D70E036FC47
:104E000002C06FEF7FEFC6010E9424284C0182018F
:104E1000D5CFB70180E290E00E942F282A94281471
:104E2000190409F0B0F7CECFF60137FC859137FEB3
:104E300081916F01B70190E00E942F2851105A9480
:104E4000F1E08F1A9108BFCF843619F0893609F046
:104E500077C0F80137FE6BC06081718182819381D8
:104E60000C5F1F4FF32DFF763F2E97FF09C09095E3
:104E70008095709561957F4F8F4F9F4F689437F85D
:104E80002AE030E0A5010E945F28C82ECA188C2CA9
:104E9000432C36FE0CC0E89440F8C91440F434FEAC
:104EA00005C032FC03C0F32DFE7E4F2E892C44FE3C
:104EB00095C0FE01EC0DF11D8081803309F087C0A3
:104EC000242D297E422E842D8870582E43FC95C0B7
:104ED00040FE8FC09C2C821418F42C0C922C981835
:104EE00044FE91C0B70180E390E00E942F2842FE6B
:104EF00009C088E790E041FE02C088E590E0B70174
:104F00000E942F28C91408F48AC0CA94D12C9FEF9C
:104F1000C91AD90ACA0CDB1CF60182916F01B701CC
:104F200090E00E942F28AC14BD04B1F74FCF6081F0
:104F30007181072E000C880B990B0E5F1F4F92CFCB
:104F4000D32CE894D4F82AE030E0853739F1232DCA
:104F5000297FD22E8F3601F148F48835A9F0F70168
:104F6000868197812B96E2E10C94B323803749F038
:104F70008837A9F7D4FE02C06894D2F820E130E067
:104F80000DC06894D4F8F6CF34FE03C0822F86603B
:104F9000D82E20E132E002C028E030E0F801D7FE50
:104FA0000FC060817181828193810C5F1F4FA501C9
:104FB0000E945F28C82ECA183D2CE89437F867CFA6
:104FC0006081718190E080E00E5F1F4FF0CF42FC66
:104FD00002C0839478CF8394839475CF842D867890
:104FE00009F471CFF6CFB70180E290E00E942F283C
:104FF00083948214C0F3512C73CF522C581882140E
:1050000008F46ECFF8CF842D867809F47BCF8BE23D
:1050100041FE80E247FC8DE2B70190E071CFB7011D
:1050200080E390E00E942F289A946CCF8FEF9FEF3F
:1050300099CFFC010590615070400110D8F7809520
:1050400090958E0F9F1F0895FC0161507040019054
:105050000110D8F7809590958E0F9F1F08950F939C
:105060001F93CF93DF93182F092FEB018B8181FDC5
:1050700009C01FEF0FEF812F902FDF91CF911F916C
:105080000F91089582FF14C02E813F818C819D81F4
:10509000281739073CF4E881F981CF0101969983FB
:1050A000888310838E819F8101969F838E83E3CFB7
:1050B000E885F985812F0995892BA1F3DACFFA01CB
:1050C000AA27283051F1203181F1E8946F936E7F47
:1050D0006E5F7F4F8F4F9F4FAF4FB1E03ED0B4E038
:1050E0003CD0670F781F891F9A1FA11D680F791F79
:1050F0008A1F911DA11D6A0F711D811D911DA11D8A
:1051000020D009F468943F912AE0269F1124301999
:10511000305D3193DEF6CF010895462F4770405D34
:105120004193B3E00FD0C9F7F6CF462F4F70405DE3
:105130004A3318F0495D31FD4052419302D0A9F73E
:10514000EACFB4E0A6959795879577956795BA9538
:10515000C9F700976105710508959B01AC010A2EFE
:1051600006945795479537952795BA95C9F7620FD5
:0E517000731F841F951FA01D0895F894FFCF94
:10517E000101C80001FF00000000CF0D010204086C
:10518E001020408000000000CC072C07590719089A
:10519E008A0768077C07000000000B11DE10C5119E
:1051AE00B410D710C410B51000000000390B2C0D30
:1051BE00AD0ACB09E60CBB094C0CDA0B3908E5112C
:1051CE00A113D70FEC12000000003A112C07C511E5
:1051DE00C4110D0A005B4552524F525D5B51774729
:1051EE00724275666665724465766963655D2052C6
:1051FE00656E64657220636C617373206D75737474
:10520E0020696D706C656D656E7420647261775F78
:10521E00706978656C206D6574686F640A0046412C
:10522E00554C54210054656D703A0025732046008C
:10523E005461726765743A0025692046004F4C45EB
:10524E0044206661696C656400636C656172696EA9
:0C525E006774686573637265656E00001C
:00000001FF
